:020000040800F2
:10000000181A00209D0C0108C90A0108CB0A010832
:10001000CD0A0108CF0A0108D10A0108000000003A
:100020000000000000000000000000006B6D0008F0
:10003000D30A010800000000256D0008D50A010858
:10004000110D0108150D0108190D01081D0D0108FC
:10005000210D0108250D0108290D01082D0D0108AC
:10006000310D0108350D0108390D01083D0D01085C
:10007000E30A0108410D0108450D0108490D010879
:100080004D0D0108E90A0108510D0108550D01083F
:10009000590D01085D0D0108610D0108650D01088C
:1000A000690D01086D0D0108710D0108750D01083C
:1000B000790D01087D0D0108810D0108850D0108EC
:1000C000890D01088D0D0108910D0108950D01089C
:1000D000990D01089D0D0108EF0A0108050B0108A3
:1000E000A10D0108A50D0108A90D0108AD0D01081C
:1000F000B10D0108B50D0108B90D0108BD0D0108CC
:10010000C10D0108C50D0108C90D0108CD0D01087B
:10011000D10D0108D50D0108D90D0108DD0D01082B
:10012000E10D0108E50D0108E90D0108ED0D0108DB
:100130004FF4E07210440268914203D343681A44BA
:10014000914202D380680028F5D17047DFF85C0740
:10015000016891B94FF4803181604FF48051416062
:100160004FF0FF31C16001610421DFF84427416194
:10017000C2F8BC11DFF83C1701600120704701F1A3
:10018000080313F0070305D001F10803C3F10803C6
:1001900003F007031944D21A8161C26042F00103DF
:1001A0004B60114428234B60DFF800170969C161D7
:1001B00070472DE9F84F064601F1080010F00700DE
:1001C00008BF884607D001F10800C0F1080000F020
:1001D000070001EB000802F1080010F0070006D04C
:1001E00002F10800C0F1080000F0070002441546C3
:1001F000A5EB0800A0EB030908EB030B43F0030099
:10020000C8F80400AB4528BF01F00CFA2879C007F4
:1002100058BF01F007FAB9F1100F38BF01F002FA28
:10022000B069854209D1F0684844F060C6F818B05A
:1002300040F00100CBF8040070E1706985420BD1F9
:10024000B0684844B060C6F814B040F00101CBF883
:1002500004104BF8000061E1686800F00301012917
:1002600040F0AF80C008C0000190C00820283BD2F9
:10027000D5F808A0EF680090BD4208BF01F0D2F9A0
:10028000554508BF01F0CEF968680099C008C00064
:10029000B0EBC10F18BF01F0C5F9009806EBC00024
:1002A00000F128018A4508D031698A45C0F0848070
:1002B000DAF80C10A94240F07F80574506D1009A29
:1002C0003068012191408843306077E028308742D0
:1002D00005D0306987426FD3B868A8426CD1CAF89C
:1002E0000C70C7F808A069E0EF68D5F818A0AF4215
:1002F0000CD0A8683169884223D3C168A94204BFE1
:10030000B968A9421DD1C760B8601CE005F11400AE
:10031000076837B905F110000768A7B101E0084682
:10032000076807F114010A68002A02BF07F11001EB
:100330000A68002AF3D13169884202D300210160A2
:1003400001E001F06FF9BAF1000F37D0E86906EB70
:1003500080004FF49871084401688D4208D107600D
:10036000A7B9EA697068012191408843706025E06F
:100370003069824508D3DAF81000A84214BFCAF8E1
:100380001470CAF8107001E001F04CF9B7B130698F
:10039000874211D3C7F818A0296929B1814226BF25
:1003A00039618F6101F03EF9686938B1316988427D
:1003B00002D37861876101E001F034F901980544C6
:1003C000814468684008400068604FEAD90549F0F8
:1003D0000100CBF804004BF80990202D23D206EB46
:1003E000C50000F12807BA46B9F1100F38BF01F077
:1003F00019F9306820FA05F1C90704D40121A94090
:100400000843306006E0B868316988422CBF8246F4
:1004100001F008F9C7F808B0CAF80CB0CBF808A08A
:10042000CBF80C707AE05FEA192108BF002023D0D6
:10043000B1F5803F28BF1F201ED2A1F58070000CAF
:1004400000F008008140A1F58052120C02F0040275
:100450009140A1F580431B0CC0F10E0003F0020394
:10046000801AC01A994000EBD130C11D29FA01F25F
:1004700002F0010101EB400006EB80014FF498729D
:100480001144CBF81C000022CBF81420CBF810202C
:10049000726822FA00F3DB0707D4012303FA00F0A5
:1004A00010437060C1F800B01DE009681F281DBF2F
:1004B0004008C0F1190009FA00F0484600E0114672
:1004C0004A68D208D2004A4514D0C20F01EB82021A
:1004D00002F1100340001A68002AF0D1306983420B
:1004E0001AD3C3F800B0CBF81810CBF80CB0CBF887
:1004F00008B013E032698868914228BF90420BD35C
:10050000C0F80CB0C1F808B0CBF80800CBF80C105C
:100510000020CBF8180001E001F084F808F1080091
:10052000BDE8E68F2DE9FA4D0546DFF88003006847
:1005300082B008B9FFF70AFEDFF8700302998068FD
:1005400041182F31401E21EA00000299814280F0BB
:10055000A9814FF4D8716E18B16839B1326880182A
:10056000824280F09F818142C0F09C8101F06CF852
:1005700000281EBF0446D0F8008014F1010F00F0DF
:1005800091813068716840448142306038BF0146D3
:100590007160A86980BB286908B1844200D22C61CF
:1005A0000020F0613461C6F8148005F12801BF48CD
:1005B000006868624FF0FF3028620020C9608960DF
:1005C00001F108024A610A61801C10312028F5D32C
:1005D000B748854203D1A8F1280221462AE055F800
:1005E000040CC00805EBC000A0F1080104EB0800F2
:1005F000401AA0F128021DE04FF4E07029180846C7
:1006000000E08068D0B1026843681A449442F8D18F
:10061000027B120712D4AA6903689A420ED3476874
:100620003B449A420AD208EB07014160E868A96995
:1006300008EB00022846FFF7A2FD1DE1286984426D
:10064000084638BF2C6104EB080100E0806880B1E7
:1006500002688A42FAD1017B09070AD40460416822
:10066000414441602146029B284604B0BDE8F04D5C
:100670009FE5AF6939462846FFF75AFD4FF0000B5A
:100680000168406808440190273810F0070101997B
:100690000EBF0020C0F1080000F0070008442F380A
:1006A00007F11001884234BF00970090009804F1D0
:1006B000080100F1180A11F00701A8F1280005D07F
:1006C00004F10801C1F1080101F00701401A2144B9
:1006D000A961E86040F001024A60084428224260B3
:1006E00072480069E8610098083010F0070018BFF0
:1006F00000F098FF00991B2048604FF4E0712944F6
:10070000B1E80C5000980830A0E80C503461C6F8ED
:100710001480C6F81CB000980830B061019801E060
:100720000AF1040A0721CAF804100BF1010B0AF1BF
:1007300008018142F4D3BBF1020FB8BF00F072FF91
:100740000098B84200F09880C01B3918C4084A6865
:10075000520852004A6040F0010179603850202C64
:1007600020D205EBC40101F12806B046102838BF9D
:1007700000F058FF286820FA04F1C90704D40121C9
:10078000A1400843286006E0B068296988422CBF70
:10079000804600F047FFB760C8F80C70C7F80880C3
:1007A000FE6069E0010A23D0B1F5803F28BF1F2118
:1007B0001ED2A1F58072120C02F008029140A1F540
:1007C00080531B0C03F004039940A1F58044240CD2
:1007D000C2F10E0204F00204D21A121BA14002EB75
:1007E000D131CA1D20FA02F303F0010202EB4101EC
:1007F00005EB81024FF498731A44F96100237B6181
:100800003B616B6823FA01F4E40705D401208840BA
:100810001843686017601CE012681F291DBF490853
:10082000C1F1190100FA01F1014600E01A465368CE
:10083000DB08DB00834210D0CB0F02EB830303F114
:10084000100449002368002BF0D12869844211D399
:100850002760BA61FF60BF600EE0296990688A4234
:1008600028BF884206D3C7609760B860FA6000204E
:10087000B86101E000F0D6FEE8680299814211D229
:10088000401AE860A969029A0A44AA6140F001008E
:100890005060029840F00300486004B001F1080085
:1008A000BDE8F08D002004B0BDE8F08D9C4D002027
:1008B000304600206859883C2DE9F84F0446002650
:1008C00089465FEA1920C9F1000B08BF002123D037
:1008D000B0F5803F28BF1F211ED2A0F58071090C02
:1008E00001F008018840A0F58052120C02F00402C9
:1008F0009040A0F580431B0CC1F10E0103F00203F0
:10090000891AC91A984001EBD030C11D29FA01F2A9
:1009100002F0010101EB400104EB8100D0F830014D
:1009200018B31F290FBF4A464A08C2F1190209FA33
:1009300002F2002300E052004568ED08ED00A5EB4F
:1009400009055D4503D25FEA050B06460BD04569F4
:10095000D70F00EB8700002D00691CBF85422B4696
:100960000028E8D11846B8BBC6BB0120884040002B
:10097000414208436168084000F05D8141420840FF
:10098000401E010B01F01001C840420902F00802AC
:10099000D040830803F00403D840450805F0020561
:1009A0005118E8405918C0F3400729443944F84029
:1009B000401804EB8000D0F830010DE00846416893
:1009C000C908C900A1EB090159453CBF8B46064641
:1009D00001690029F2D140690028F0D1002E00F011
:1009E0002A81A068A0EB0900834580F0248120695A
:1009F0008642C0F01E817068C00809EB0B08C00079
:100A0000404518BF00F00EFE06EB0905AE4280F02F
:100A10001081F768D6F818A0B7420CD0B0682169E9
:100A2000884223D3C168B14204BFB968B1421DD125
:100A3000C760B8601CE006F11400076837B906F11A
:100A400010000768A7B101E00846076807F1140124
:100A50000A68002A02BF07F110010A68002AF3D1D0
:100A60002169884202D30021016001E000F0DAFD33
:100A7000BAF1000F39D0F06904EB80004FF498719F
:100A8000084401688E4209D10760380014D1F26928
:100A90006068012191408843606026E020698245BA
:100AA00008D3DAF81000B04214BFCAF81470CAF8BC
:100AB000107001E000F0B6FDBFB12069874212D38B
:100AC000C7F818A0306930B12169884226BF386163
:100AD000876100F0A7FD706938B12169884202D3AF
:100AE0007861876101E000F09DFDBBF1100F09D234
:100AF00048F00300706006EB0800416841F0010116
:100B0000416095E049F0030070604BF001006860BF
:100B10004FEADB0045F80BB020281DD204EBC001E2
:100B200001F12807216821FA00F2D207BB4605D45B
:100B3000012202FA00F00843206006E0B86821694B
:100B400088422CBF834600F06DFDBD60CBF80C5091
:100B5000C5F808B0EF606BE05FEA1B2023D0B0F56A
:100B6000803F28BF1F201ED2A0F58071090C01F024
:100B700008018840A0F58052120C02F00402904057
:100B8000A0F580431B0CC1F10E0103F00203891A8A
:100B9000C91A984001EBD030C11D2BFA01F202F0C6
:100BA000010101EB400004EB80014FF49872114405
:100BB000E86100226A612A61626822FA00F3DB07B9
:100BC00006D4012303FA00F0104360600D601CE0BE
:100BD00009681F281DBF4008C0F119000BFA00F07A
:100BE000584600E011464A68D208D2005A4510D053
:100BF000C20F01EB820202F1100340001A68002AC2
:100C0000F0D12069834211D31D60A961ED60AD6010
:100C10000EE022698868914228BF904206D3C560E1
:100C20008D60A860E9600020A86101E000F0FAFC96
:100C300008E100F0F7FC02E12DE9F84F0446884690
:100C4000606841420840401E010B01F01001C8409D
:100C5000420902F00802D040830803F00403D840A0
:100C6000450805F002055118E8405918C0F3400640
:100C700029447118F040401804EB8000D0F830018E
:100C80004168C908C9000646A1EB080A09E0084600
:100C90004168C908C900A1EB080151453CBF8A461B
:100CA000064601690029F2D140690028F0D1206987
:100CB0008642C0F0C2807068C00808EB0A09C00014
:100CC000484518BF00F0AEFC06EB080B5E4580F00F
:100CD000B480F768B569B7420CD0B0682169884222
:100CE00023D3C168B14204BFB968B1421DD1C76006
:100CF000B8601CE006F11400076837B906F110006F
:100D00000768A7B101E00846076807F114010A68FF
:100D1000002A02BF07F110010A68002AF3D12169F5
:100D2000884202D30021016001E000F07BFC002D2D
:100D300035D0F06904EB80004FF4987108440168E5
:100D40008E4209D10760380011D1F2696068012133
:100D500091408843606022E02069854205D328697C
:100D6000B04214BF6F612F6101E000F05BFCB7B1CE
:100D70002069874211D3BD61306930B12169884251
:100D800026BF3861876100F04DFC706938B1216978
:100D9000884202D37861876101E000F043FCBAF138
:100DA000100F09D249F00300706006EB090041689A
:100DB00041F0010141603FE048F0030070604AF0FB
:100DC0000100CBF804004BF80AA0D4F808804FEAE1
:100DD000D805202D28BF00F025FCB8F1000F27D042
:100DE000D4F81490009504EBC50000F128052F46B7
:100DF000B8F1100F38BF00F015FC2068009920FAF8
:100E000001F2D10705D4009A0121914008432060E6
:100E100006E0A868216988422CBF074600F002FC62
:100E2000C5F80890C7F80C90C9F80870C9F80C50BC
:100E3000C4F808A0C4F814B004E000F0F3FB0020EC
:100E4000BDE8F28F06F10800BDE8F28F2DE9F04F02
:100E500083B00546AFF30080F52DDFF8C04780F082
:100E600002810B2D31BF102705F10B00C708FF00D1
:100E70002068FE08F04010F0030F42D0C04300F09D
:100E80000100861904EBC60000F12808F700D8F825
:100E900008506868C008C000B84218BF00F0C2FB24
:100EA000D5F80890454508BF00F0BCFB4D4508BF8C
:100EB00000F0B8FB6868C008C000B84218BF00F076
:100EC000B1FBC84505D120680121B14088432060AD
:100ED0000DE02069814508D3D9F80C00A84204D15F
:100EE000C8F80890C9F80C8001E000F09BFB47F0BF
:100EF00003006860E8190835416841F0010141606C
:100F0000F9E0A168B94280F0C080002800F0A2801A
:100F1000012505FA06F149004A42B0401143084054
:100F200041420840401E010B01F01001C840420937
:100F300002F00802D040830803F00403D8404608BA
:100F400006F002065118F0405918C0F34008711815
:100F5000414420FA08F000EB010804EBC80000F15E
:100F600028094FEAC80AD9F808607068C008C000AC
:100F7000504518BF00F056FBD6F808B04E4508BFE4
:100F800000F050FB5E4508BF00F04CFB7068C008E5
:100F9000C000504518BF00F045FBD94505D1206879
:100FA00005FA08F1884320600DE02069834508D3E5
:100FB000DBF80C00B04204D1C9F808B0CBF80C90B3
:100FC00001E000F02FFB47F003007060AAEB070878
:100FD000F019019048F0010001994860019840F82B
:100FE0000880A7684FEAD70ABAF1200F28BF00F09F
:100FF00019FB47B3CDF800A004EBCA00D4F8149055
:1010000000F1280AD346102F38BF00F00BFB2068F0
:10101000009920FA01F2D10705D4009905FA01F1EF
:101020000843206007E0DAF80800216988422CBFF5
:10103000834600F0F7FACAF80890CBF80C90C9F88C
:1010400008B0C9F80CA0C4F8088006F1080501989A
:10105000606150E06068C0B339462046FFF7ECFDA0
:10106000050012D047E015F1400F28BF4FF0FF37C1
:101070000BD205F10B00C7086068FF0028B13946A4
:101080002046FFF719FC050035D1A068B8421CD3F3
:10109000C11B626910290AD3D0196061A16041F0B7
:1010A00001034360415047F0030050600AE0002113
:1010B000A160616140F0030151601044416841F05A
:1010C0000101416002F1080515E0E06887420DD298
:1010D000C01BA169E060CA19A26140F00100506024
:1010E00001F1080547F00300486004E03946204656
:1010F000FFF718FA0546AFF30080284603B0BDE8B5
:10110000F08F00B970472DE9F047A0F10804AFF364
:101110000080DFF8085528698442C0F07982616850
:1011200001F00302012A00F07382CA084FEAC208E4
:10113000CA0704EB080937D4226811F0030F00F046
:10114000698251420C4484429044C0F061826969D2
:101150008C4200F0D980D608202E70D2D4F80CA092
:10116000A768544508BF00F05DFABC4208BF00F014
:1011700059FA6068C008C000B0EBC60F18BF00F095
:1011800051FA05EBC60000F128018F4205D029690C
:101190008F4251D3F968A1424ED1BA453DD128685A
:1011A0000121B140884328604C4580F03182D9F854
:1011B0000400C10740F12C82810700F17D81A969FB
:1011C000894540F0B680E868AC614044E86040F092
:1011D0000101616069698C4202D100216961A960E5
:1011E000E969814280F01682DFF83404006808B9AA
:1011F000FEF7ACFFA969002900F00C82E8682928F5
:1012000024BF2846FEF794FFE869E968884280F029
:1012100001824FF0FF30E861FCE12830824506D0C2
:101220002869824508D3DAF80800A04204D1C7F83B
:101230000CA0CAF80870B7E700F0F4F9B4E7E76863
:10124000A669A7420BD0A168814222D3C868A042F8
:1012500004BFB868A0421CD1CF60B9601BE004F1A4
:1012600014010F6837B904F110010F689FB101E054
:1012700011460F6807F114021368002B02BF07F133
:1012800010021368002BF3D1814202D300200860C2
:1012900001E000F0C7F9002E86D0E06905EB800080
:1012A0004FF49871084401688C4209D107603800F6
:1012B00011D1E2696868012191408843686073E751
:1012C0002869864205D33069A04214BF776137612F
:1012D00001E000F0A7F9002F3FF466AF28698742CC
:1012E000AAD3BE61216929B1814226BF39618F61CC
:1012F00000F098F9606900283FF456AF29698842E8
:101300009AD3786187614FE799F8040000F00300F1
:1013100003287FF449AFC5F80880D9F804004008D5
:101320004000C9F8040048F00100606044F80880FB
:1013300070E16969894508D1A8686C614044A8607A
:1013400040F001016160205064E1C008C0004FEA34
:10135000D00ABAF1200F804437D2D9F80C70D9F8EE
:101360000860B94508BF00F05DF9B14508BF00F05D
:1013700059F9D9F80400C008C000B0EBCA0F18BF73
:1013800000F050F905EBCA0000F128018E4207D0A9
:1013900029698E42C0F08380F168494540F07F8022
:1013A000B74206D12868012101FA0AF18843286072
:1013B00077E02830874205D0286987426FD3B86824
:1013C00048456CD1F760BE606BE0D9F80C70D9F875
:1013D00018604F450DD0D9F808002969884223D3F9
:1013E000C168494504BFB96849451DD1C760B860A7
:1013F0001CE009F11400076837B909F1100007680B
:10140000A7B101E00846076807F114010A68002A3D
:1014100002BF07F110010A68002AF3D12969884246
:1014200002D30021016001E000F0FCF8002E38D06A
:10143000D9F81C0005EB80004FF49871084401684E
:1014400089450AD10760380012D1D9F81C20686894
:10145000012191408843686023E02869864205D3D2
:101460003069484514BF7761376101E000F0DAF870
:10147000BFB12869874212D3BE61D9F8101029B1D3
:10148000814226BF39618F6100F0CCF8D9F8140091
:1014900038B12969884202D37861876101E000F0A0
:1014A000C1F848F00100606044F80880686984422F
:1014B0000BD1C5F80880ADE040084000C9F8040031
:1014C00048F00100606044F808804FEAD807202FF8
:1014D00022D205EBC70000F128094E46B8F1100FE3
:1014E00038BF00F09FF8286820FA07F1C90704D434
:1014F0000121B9400843286007E0D9F808002969AC
:1015000088422CBF064600F08DF8C9F80840F46008
:10151000A660C4F80C907DE05FEA182008BF0021A7
:1015200023D0B0F5803F28BF1F211ED2A0F58071C7
:10153000090C01F008018840A0F58052120C02F05D
:1015400004029040A0F580431B0CC1F10E0103F092
:101550000203891AC91A984001EBD030C11D28FA3C
:1015600001F202F0010101EB400105EB81004FF4B3
:1015700098721044002262612261E1616A6822FA75
:1015800001F3DB0706D4012303FA01F1114369607B
:1015900004601CE000681F291DBF4908C1F1190142
:1015A00008FA01F1414600E010464268D208D20034
:1015B000424510D0CA0F00EB820202F1100349002D
:1015C0001A68002AF0D129698B4211D31C60A061EE
:1015D000E460A4600EE02A698168904228BF9142CD
:1015E00006D3CC608460E060A1600020A06101E0CF
:1015F00000F018F8286A401E28620BD1D5F8C801FF
:1016000000E080680028FCD14FF0FF30286201E044
:1016100000F008F8AFF30080BDE8F0873046002006
:101620009C4D0020012000F025B8A0F161010629A1
:1016300024BFA0F14101062904D330380A28804193
:10164000C00F7047012070470749086808B10020A3
:1016500070470648C008C00008600549C908C900AD
:10166000091A0160704700BF584E00201F1A002061
:10167000181A002080B5AFF30080024A110018202C
:10168000ABBEFBE7260002002DE9F04F82460FF2C9
:101690005860A5B015461E46D0E90023CDE91223B7
:1016A00003AF00207960B8620DF1500900E04544B5
:1016B0000020ADF8020012AB4FF0FF3229460DF1C9
:1016C000020001F0AEF88046B8F1010F08DA287880
:1016D000B0F1010868EB08086FEA08004FEAD0781B
:1016E000BDF8020025280CBFA8F1010BC346BBF1D1
:1016F000010F0EDB2C4614F8011B7868D047002838
:10170000786000F0F880B86A401CBBF1010BB86249
:10171000F1D1BDF80200252807D100203861786199
:10172000B861F8613862786205E00028BFD1B86A14
:10173000E2E240F0010015F8011F2029F9D0232929
:101740000DD02B2904D02D2906D030290AD00CE049
:1017500040F0020080B2EEE740F00400FAE740F00B
:101760000800F7E740F01000F4E72A290ED13168AD
:10177000316051F8042B3160002A3A6304D551429C
:1017800040F00400396380B26D1C13E0002139631E
:101790000BE0396B6FF00043994205D001EB8103F8
:1017A00002EB4301303939636D1C2A78A2F1300114
:1017B0000A29EED329782E2903D04FF0FF31F962A0
:1017C0001FE015F8011F2A2907D1316831606D1C0F
:1017D00051F8042B3160FA6213E00021F9620BE04A
:1017E000F96A6FF00043994205D001EB810302EBE7
:1017F00043013039F9626D1C2A78A2F130010A29BF
:10180000EED3B8860FF2E840297801F027F808B146
:1018100015F8010B8DF842009DF84200682802BFC0
:1018200029786829622005D06C2804BF28786C28A4
:1018300003D171208DF842006D1C14A8F86015F8D2
:10184000014BB4F125002AD01C3800F0DB80001FCA
:10185000022840F2D780133800F0FB80093800F0EE
:10186000D180801E00F06581401E00F03C81401E4A
:10187000022840F2C780001F00F03581401F00F0B1
:101880009280401E00F0E580401E37D0C01E0BD075
:10189000801E00F0DE80C01E00F0DB806CE12520A1
:1018A0008DF85000012070E19DF842006C283068EE
:1018B000306016D050F8048B3060C7F80880FC6A9E
:1018C000002C04D5404600F0D9FF044607E022462C
:1018D0000021404600F0EEFF08B1A0EB08047C6157
:1018E00054E150F8042B306002A9504600F03EFA53
:1018F000002840F14B814FF0FF30FDE1316831604D
:10190000002251F8040B31604FF03C0E0021CDE96C
:10191000020114A8B860DDE902019142FC6808BF29
:10192000904201D1FA6AC2B100F00F033033DBB24A
:101930003A2BA8BF2733AEF101020009A354964603
:1019400040EA017009090022914208BF904204D088
:10195000BA6804EB0E039A42E6D304EB0E01B960B9
:10196000CEF13C00F96A7861884207DA081AF8611A
:101970004FF6EF71B88E0840B88607E1002940F1B4
:10198000058197F8341001F01401102940F0FE8011
:10199000396B3A69891AFA69891A081A0128C0F25A
:1019A000F580F861F2E09DF8420062281AD06828BC
:1019B00006D06A280CD06C281CD0712808D019E0F9
:1019C0003068306050F8041B3060B86A0880DDE091
:1019D0003068306050F8042B3060B86AC117C2E933
:1019E0000001D3E03068306050F8041B3060B86A02
:1019F0000870CBE03068306050F8041B3060B86A83
:101A00000860C3E03068C01D20F007023260D2E9F0
:101A1000000108323260CDE90201002902D538699F
:101A20002D2109E0B88E810702D538692B2103E00A
:101A3000C00705D53869202109F80010401C38611D
:101A400014A839690844B860214602A800F09AFB3E
:101A50009CE09DF842006C280DD0712818BF6A28C0
:101A600009D13068C01D20F007023260D2E90001C0
:101A70000832326005E03168316051F8040B3160A2
:101A80000021CDE902019DF84200682803D1DDE97B
:101A9000020180B20BE0622803D1DDE90201C0B28D
:101AA00005E0742818BF7A2804D1DDE9020100217D
:101AB000CDE9020197F83400000731D5DDE90223B2
:101AC0000020834208BF82422AD044F020007828B8
:101AD00026D13869302109F80010401C411C3961B9
:101AE00009F800401CE09DF84200314600F007F97B
:101AF000CDE90201DDE9022300218B4202DA3869D7
:101B00002D2109E0B88E810702D538692B2103E029
:101B1000C00705D53869202109F80010401C38613C
:101B200014A839690844B860214602A800F0A4FA54
:101B30002CE09DF842006C2809D001203861306803
:101B4000306050F8041B30608DF850101EE0306893
:101B5000306001AA50F8041B3060ADF8041000207A
:101B6000ADF8060002A94FF0FF30F862504600F0D1
:101B7000FDF800280AD5BEE625208DF8500001208A
:101B800038611CB189F8014002203861386B39692D
:101B9000401AF969401A7969401A396A401AB969D4
:101BA000401A796AA0EB010897F83400400711D475
:101BB0002020B8F1010F8DF800000BDB4446012313
:101BC0006A4602A9504600F007FE00287FF493AE53
:101BD000641EF4D1D7F810B0BBF1000F14AC0DD0D7
:101BE00014F8011B7868D047002878603FF483AE72
:101BF000B86A401CBBF1010BB862F1D130208DF8FE
:101C00000000FC69012C0ADB01236A4602A9504648
:101C100000F0E2FD00287FF46EAE641EF4D1D7F828
:101C200014B0BC68BBF1000F0DD014F8011B78682C
:101C3000D047002878603FF45EAEB86A401CBBF124
:101C4000010BB862F1D130208DF800003C6A012C04
:101C50000ADB01236A4602A9504600F0BDFD0028B8
:101C60007FF449AE641EF4D1B8687969D7F818B02A
:101C70004418BBF1000F0DD014F8011B7868D04751
:101C8000002878603FF437AEB86A401CBBF1010B06
:101C9000B862F1D130208DF800007C6A012C0ADB9B
:101CA00001236A4602A9504600F096FD00287FF401
:101CB00022AE641EF4D197F8340040077FF5F8ACEB
:101CC0002020B8F1010F8DF80000FFF6F1AC0123E0
:101CD0006A4602A9504600F07FFD00287FF40BAE53
:101CE000B8F10108F3D1E3E40000000000000000B7
:101CF000686A6C747A4C000025B0BDE8F08F6228E9
:101D000026D068281DD06A2808D06C2827D07128D2
:101D100004D0742823D07A280CD020E00868C01D95
:101D200020F007000860D0E9002308300860194659
:101D3000104670470A680A6052F8040B0A600021D6
:101D400070470A680A6052F8040B0A6000B20BE0A0
:101D50000A680A6052F8040B0A6040B204E00A689C
:101D60000A6052F8040B0A60C11770472DE9F44F5E
:101D70000D4694B0D5F830A0BAF1000F804648BFA8
:101D80006FF0004A00F0C2FD696B401801900FF639
:101D90007820D0E90023CDE9022395F838004007E8
:101DA00002D40198412805D240200DF1100901907C
:101DB000002609E0FFF74AF85FEA0009F8D14FF082
:101DC000FF3056E1AAEB040ABAF1010FC0F2CE804F
:101DD0001498018802AA0DF1010000F09CFD002872
:101DE000044600F1DE801498008810B9641E00F1EA
:101DF000D880A245C0F2BA80686901992218914240
:101E000080F0A2806E634042296A401AA969401A94
:101E1000696A401AE969401AA96A461A95F83800B1
:101E2000400710D42020012E8DF800000BDB374630
:101E300001236A462946404600F0CEFC002840F0C7
:101E4000B0807F1EF4D1D5F814B0BBF1000F4F461F
:101E50000DD017F8011BA868C0470028A86000F043
:101E6000A080E86A401CBBF1010BE862F1D1302090
:101E70008DF800002F6A012F0ADB01236A462946EC
:101E8000404600F0A9FC002840F08B807F1EF4D172
:101E9000D5F818B0EF68BBF1000F0CD017F8011B94
:101EA000A868C0470028A8607BD0E86A401CBBF146
:101EB000010BE862F2D130208DF800006F6A012F2B
:101EC00009DB01236A462946404600F085FC0028CC
:101ED00067D17F1EF5D1E868A969D5F81CB047180D
:101EE000BBF1000F0CD017F8011BA868C0470028F1
:101EF000A86056D0E86A401CBBF1010BE862F2D141
:101F000030208DF80000AF6A012F09DB01236A46FB
:101F10002946404600F060FC002842D17F1EF5D1E2
:101F200095F8380040070DD52020012E8DF80000CF
:101F300008DB01236A462946404600F04DFC80BB81
:101F4000761EF6D100266E61224668690DF1010108
:101F5000484400F0EDFC6869201868611498801C02
:101F60001490801E008800287FF42CAF686B69698C
:101F7000401A296A401AA969401A696A401AE9692F
:101F8000401AA96AA0EB010A95F83800400710D45E
:101F9000BAF1010F0DDB5446A8682021C047A860A4
:101FA00010B94FF0FF365DE0E86A401C641EE8623D
:101FB000F2D16B694A462946404600F00DFC0028E4
:101FC000EFD12C6A012C0ADBA8683021C047002819
:101FD000A860E6D0E86A401C641EE862F4D1AB69F0
:101FE000EA682946404600F0F7FB0028D9D16C6A20
:101FF000012C0ADBA8683021C0470028A860D0D097
:10200000E86A401C641EE862F4D1E868A969EB69DB
:1020100042182946404600F0DFFB0028C1D1AC6AD7
:10202000012C0ADBA8683021C0470028A860B8D07E
:10203000E86A401C641EE862F4D195F83800400755
:102040000ED5BAF1010F0BDBA8682021C04700288C
:10205000A860A6D0E86A401CBAF1010AE862F3D190
:102060006E616E6304A881451CBF4846FFF749F8BE
:10207000304615B0BDE8F08F2DE9F343054608461C
:102080002F696F2808BF082405D041F02001782966
:1020900014BF0A2410243C26D5E90023642818BF65
:1020A00069289046994606D100218B4203DAD8F17F
:1020B000000869EB49090020814508BF80450CD123
:1020C000286B50B9082C38D195F83800000734D562
:1020D00030203B2687F83B002FE0701E009006461C
:1020E000404649462246E31700F05EFC02F130000C
:1020F000C0B23A2803DB9DF8041051390818B855CE
:10210000494640462246E31700F04EFC8046894689
:102110000020814508BF804503D0E868B91988428E
:10212000DBD3082C09D195F83800000705D5B85D38
:10213000302802D0761E3020B855B919E960C6F1B2
:102140003C00296BA861884208DA081A28624FF619
:10215000EF71288F08402887BDE8F38300290ED54A
:1021600095F8381001F01401102908D1696B6A69DB
:10217000891A2A6A891A0E1A012EA8BF2E62BDE892
:10218000F38300002DE9F24F04468EB0D4E900013C
:10219000CDE9020104AF9DF8380040F0200BBBF1FF
:1021A000610F0AD0206B002848BF062004D408BF66
:1021B000BBF1670F01D1012020636168C1F30A50B0
:1021C00040F2FF7290421CD1080304BF206800282F
:1021D00009D10320A0619DF8380061381A2835D351
:1021E0000FF2386108E00320A0619DF838006138E3
:1021F0001A2828D30FF21C61E068032200F098FB34
:10220000BDE1012815DA204600F045FC012810DB6D
:1022100000250020BBF1610F1FD1E16830220A7058
:102220008A1CE2609DF83820612A0CBF782258226F
:102230000FE0626840F2FE3161F31E52451A62609F
:102240004FF0FF30E6E70FF2C851D5E70FF2C85163
:10225000D2E74A706169891C616110B900260025C6
:1022600084E1BBF1610F40F09880206BD4E900ABB2
:1022700000284CBF2126461CDDE902010022002374
:1022800000F02CFC36B23ABF8BF00040CDE902A042
:10229000CDE902AB06F101082D1FB8F1010F8DF851
:1022A00010200DF1110736DBDDE9020100220023C9
:1022B00000F02CFC2FD21C2102A800F03FFCDDE92D
:1022C000020100F0C1FCA8F10708B8F1010F814636
:1022D00009DB00F0E5FC02460B46DDE9020100F0F7
:1022E000F7FCCDE90201F81D072105E009F00F0216
:1022F00000F8012D4FEA2919B9F1010F01DB491E40
:10230000F4D5491E5CBF002200F8012DF9D5C71D88
:10231000B8F1010FC8DA0DF11100391AB142B8BF96
:102320000E4636B230000DF111072FD4884206DA7E
:1023300004A9014449780829A8BF0F2100DA002127
:1023400004AA024400E0761E12F80139401E8B42B6
:10235000F9D00F2904D104A901444A78521C4A70CB
:10236000002802D504AF761C2D1D36B2701E0DD488
:1023700039180A783032D2B23A2A03DB9DF8383065
:102380003A3B9A18401E01F80129F2D5206B00282B
:1023900040F1EC80701E2063E8E0DDE902010022DC
:1023A000002300F09BFB3CBF81F00041CDE902011E
:1023B0002DB247F2975068434B49DFF8309190FBBC
:1023C000F1F52DB2C5F1070ABAF1010F90461CDBF9
:1023D000DDE902675FEACA7007D542464B463046E0
:1023E000394600F035FD06460F464046494642460E
:1023F0004B464FEA6A0A00F02BFDBAF1000F804607
:102400008946E7D1CDE9026724E0CAF1000A002637
:10241000374F14E05FEACA7007D542464B46304654
:10242000394600F015FD06460F46404649464246ED
:102430004B4600F00DFD4FEA6A0A80468946BAF124
:10244000000FE7D1DDE9020132463B4600F0D2FD44
:10245000CDE90201BBF1660F216BDFF898900CBF4C
:1024600005F10A0006204618142EA8BF13263020B6
:102470008DF810000DF11107012E3DDBDDE90201A1
:1024800000F0F8FB07F1080104220A23B0FBF3F384
:1024900003EB8307A0EB4700303001F8010C0A2062
:1024A000B3FBF0F000EB8007A3EB47033033521E81
:1024B00001F8023DE9D1083E012E01F10807DBDBFE
:1024C000DDE9020100F0D6FB00F0F4FB02460B460A
:1024D000DDE9020100F0FCFB00224B4600F0B8FCF5
:1024E000CDE90201CAE700BFA08601000000244038
:1024F0000000F03F84D797410DF11100381A0DF11B
:10250000110702E0401E6D1E7F1C39783029F9D07A
:10251000BBF1660F08BF691C04D0BBF1650F0CBF8F
:1025200001210021226B8E1836B2B042B8BF064698
:1025300036B231001AD4814204DA785C3528A8BF5B
:10254000392000DA30207A18521E00E0761E12F888
:102550000139491E8342F9D0392802D1785C401CE8
:102560007854002902D57F1E761C6D1C2DB29DF873
:102570003810009533B23A46204600F003F80FB009
:10258000BDE8F08F2DE9F04786B006468A469046B2
:102590001D4600F078FE012D406A376B90F80090E0
:1025A00002DA01250FF278284AF02000BDF9384000
:1025B000662808BF641C12D0672878D114F1040F74
:1025C0007BDBBC4279DA96F83800641C000702D441
:1025D000BD42B8BF2F4624B23F1B48BF002724B2DC
:1025E000F068B169012C23DA4A1C30234354012FCF
:1025F00003DA96F83800000703D5F06800F8029077
:10260000521CE742B8BF7C4224B260427062E719B4
:10261000AF42B261B8BF3D46F068B3692DB2F56113
:102620002A464146184400F083F9781BB062BCE0AA
:1026300022469542084416DA2A46414600F078F9C7
:10264000B1696918601B012FB161706203DA96F8F5
:102650003800000705D5F06800F80190F069401CCB
:10266000F061B762A1E0414600F062F9B06920185C
:102670002D1B012F03DA96F83810090703D5F168EE
:1026800001F80090401CB0612DB2AF42B8BF3D468A
:10269000F068B3692DB22A4608EB0401184400F033
:1026A00047F9B0692818B061781B70627DE0BAF113
:1026B000610F14D14FF0700A16E0BD4204DA96F8AB
:1026C0003810090758BF2F467F1E48BF0027BAF1B0
:1026D000670F14BF4FF0450A4FF0650A04E0BAF1E6
:1026E000410F08BF4FF0500AB169F368481CB06150
:1026F000012F18F8012B5A5403DA96F838100907FD
:1027000017D5F168431CB36101F80090012F10DB6D
:102710006D1E2DB2AF42B8BF3D46F0682DB22A46BD
:102720004146184400F004F9B0692818B061781BDC
:102730007062F068B1690144200081F800A004D4FF
:102740002B20487001F1020804E02D224A7001F1AB
:1027500002086442002502AF08E00A22684600F041
:10276000ABFD019807F8010B6D1C009C21B20129FB
:10277000F3DA022D06DA4AF02000652804BF302083
:1027800008F8010B4DB9302008F8010B07E06D1E69
:1027900002A8405D303008F8010B012DF7DAF0682F
:1027A000B1690844A8EB0000F06196F8380000F029
:1027B000140010280DD17069B1690818716A0818E1
:1027C000F1690818B16A0818716B8842BCBF081A11
:1027D000306206B0BDE8F087F8B504460D461646EF
:1027E0001F46002077B116F8011BA868A047A86013
:1027F00030B1E86A401CE86200207F1EF3D1F2BDD0
:102800004FF0FF30F2BD00000000000000000000AB
:102810006E616E004E414E00696E6600494E460084
:102820003000F8B504460D4616461F4600F055FD2B
:102830003B4632462946204601B0BDE8F04000F054
:1028400062BD8268521C8260426832B10268531CC9
:10285000036011704168491E416070470278C9B237
:102860008A421AB11CBF10F8012FF9E718BF0020E7
:1028700070470268531C03601170704700F1010338
:10288000810704D010F8011B89B18107FAD10268D1
:10289000B2F10131914311F0803F04BF50F8042F91
:1028A000F6E710F8011B11B110F8011BFBE7C01A85
:1028B00070470000C9B2830706D0521E22D310F819
:1028C000013B9942F7D11FE0083A13D302F1040209
:1028D00041EA012141EA014150F8043B121F21BFA6
:1028E0004B40A3F1013C2CEA030C1CF0803FF3D0D9
:1028F000C9B2001F083210F8013B521E28BF91EAEE
:10290000030FF8D818BF0120401E704780B500F0B3
:10291000E4FC012002BD70B504460D46164600F0E9
:10292000DCFC324629462046BDE8704000F0DEBCA3
:1029300062B38B0708D0521E11F8013B00F8013B2F
:1029400000F024808B07F6D1830740F0208000BF81
:10295000103A07D330B4B1E83810103AA0E8381074
:10296000F9D230BC530724BFB1E80810A0E8081022
:1029700044BF51F8043B40F8043BD20724BF31F870
:10298000022B20F8022B44BF0B7803707047083AE3
:1029900007D3B1E80810083A40F8043B40F804CBEC
:1029A000F7D25307E4E700001B4213D1094236D1A6
:1029B0002AB18446B0FBF2F002FB10C2704700F06F
:1029C000C5BCFCD30022002370470B00020000218D
:1029D00000207047904271EB030CF6D370B5B1FA4A
:1029E00081F4B3FA83F52C1BA340C4F1200532FA1D
:1029F00005F63343A2405FF00046E64002E05B0884
:102A00005FEA3202841A71EB030524BF204629468F
:102A10007641F4D302000B003000002170BD012A82
:102A2000CFD970B5140C20D0B1FA81F4B2FA82F586
:102A3000C4F120046419B4F12006D6D3B2405FF08B
:102A40000044F440002502E052085FEA3303C61A4E
:102A500071EB020E24BF3046714664416D41F3D3E1
:102A600002000B002000290070BD0C46B1FBF2F102
:102A700002FB11452D0445EA1045B5FBF2F402FBBB
:102A8000145580B240EA0545B5FBF2F002FB105246
:102A900040EA044070BD30B4436803F000420121B5
:102AA000C3F313034360002B04BF0368002B08D15A
:102AB0000DE00368DD0F45EA440444605B000360F9
:102AC000491E4468E302F4D5C4F31303436043682A
:102AD0001A434260084630BC704700004FF4001CA7
:102AE0001CEB410F94BF1CEB430F09E041EA030CC0
:102AF00050EA4C0C52EA0C0C03D2994208BF9042A7
:102B0000704714BF8B428242704700004FF4001C94
:102B10001CEB410F94BF1CEB430F09E041EA030C8F
:102B200050EA4C0C52EA0C0C03D28B4208BF824292
:102B3000704714BF994290427047000070B5044638
:102B40000D466068C0F30A5040F2FF71884207D119
:102B50006068000304BF2068002817D0022070BD01
:102B600020B92046FFF797FF012866DA012D0FDB19
:102B700040F2FF71091A8D420AD36068002847BFEE
:102B800000202F4900202F49C4E90001012070BD19
:102B90004142A942616806DA6FF31E51401941EAC9
:102BA0000050606040E0401E63684519012205F155
:102BB000350062F31F53352801F00041636003D3F1
:102BC00061600020206070BD002015F11F0F04DA45
:102BD000206823600022203562606A4212D0401EC5
:102BE00025688041C2F12003C0439D4045EAD07072
:102BF00025686668D54006FA03F32B4323606368B3
:102C0000D340636062680A43B0F1004F626003D84A
:102C10000DD12078C0070AD52068401C20602068AC
:102C200028B96068401C60604FF0FF3070BD60687C
:102C3000884204BF20680028F6D1002070BD00BF84
:102C40000000F0FF0000F07FF446400D40EAC12094
:102C5000490006D200F014F8004248BF6FF000406F
:102C6000604700F00DF84FF0004188428CBF0846E5
:102C700040426047400D40EAC120490080F00D808D
:102C800040F00040490DA1F58061491C05D4D1F107
:102C90001F0154BFC840C01770474FF00000704775
:102CA000010040F10980F446404200F005F851F07F
:102CB00000416047010000BF09D0B0FA80F18840B0
:102CC000C91CC1F58461090501EBD021400570479D
:102CD000F0B44FF0004591EA030F44BF6B4000F0A1
:102CE00037BB00BF841A71EB030604D26E40001B91
:102CF000B141121973414FF4001C1CEB410F34BF5A
:102D00007CEB430684E00C0DA4EB1356362E7DDCE1
:102D1000012E43DC45EAC32343EA525312BFD202D9
:102D200092025B08240545EAC12141EA5051D2EBE9
:102D3000C020994125D407D1B0FA80F610FA06F1E7
:102D400064D00020203608E0B1FA81F6B140C6F127
:102D5000200220FA02F21143B0404FEAF474B4EBBF
:102D6000465434F001064FEA74040AD8D6F500162A
:102D7000760D04F00044F04061FA06F25040F14054
:102D80004840C00A40EA415021F0004128BF5FEAB4
:102D9000500550F1000044EBD12137E045EAC32350
:102DA000DB0A45EAC121C90AB6F120050EDD42EA77
:102DB0000242120CC5F1200603FA06F6EB4042EA85
:102DC00006056D42984161F100010DE062FA06F5D9
:102DD000F240554063FA06FC82EA0C02F3405A4086
:102DE0006D42904161EB030111F4801F05D1641E17
:102DF000620502D06D004041494121F48011430831
:102E000075F1004350F1000041EB0451F0BC7047F4
:102E10001CEB410F15D223F0004352EA43060BD0BE
:102E20004FEA4C0CBCEB410F04D80C0D661E342E3F
:102E3000B7DDEBE7801A994150EA410608BF00214F
:102E4000E4E708BF1CEB430F28BF6FF00001DDE78C
:102E5000B0B581EA030C0CF0004C40F2FF7515EAA6
:102E600011541DBF15EA1357AC42AF4239E0E419C3
:102E700023EA455343F48013C90241F0004141EA7B
:102E8000505EC7021100A7FB020200284FF00000AD
:102E9000EEFB01204FF00001E3FB072118BF42F0D9
:102EA0000102401800214941E3FB0E01A4F58064B2
:102EB0000F0302D252004041494154F101046CDD3C
:102EC000470872F1004250F1000051EB0451A1F5A6
:102ED00080115CBF41EA0C01B0BD4CEA05510020F5
:102EE000B0BD05EA1357AC4214BFAF4241E050EA0F
:102EF000410E1CBF52EA430E02E061460020B0BD05
:102F000024423C441BD15FEA070EF6D0090302BFFE
:102F100001460020AEF1140EB1FA81F7AEEB0704C2
:102F200001FA07FE0C37C7F1200100FA07F7C84085
:102F30004EEA000E23EA455343F48013A2E733F030
:102F40000043B3FA83F704BFB2FA82FE77440B3F23
:102F5000E41BB7F1200E2FBF02FA0EF3BB40C7F1FE
:102F6000200E22FA0EFE38BF43EA0E03BA40641C5C
:102F700082E750EA410E14BF52EA430E6FF000019F
:102F80004FF4001717EB430F8ABF194617EB410F99
:102F9000B5E74CEA05510020B0BDD4F10104B4F10D
:102FA00020070FDAC4F12007520828BF42F00102BF
:102FB00010FA07F501FA07F7E1BF2A43E04038436A
:102FC000E1400FE0352C98DCC7F1200452EA4002C2
:102FD00020FA07F218BF42F0010231FA07F0A140CF
:102FE0000A43002172F1004250F1000051EB0C0144
:102FF000B0BD00002DE9F04140F2FF7581EA030CFD
:103000000CF0004C15EA11541DBF15EA1357AC42E1
:10301000AF42E9E0BC41C1F31301C3F31303801ACB
:10302000994143F4801304D2641E40004941801842
:103030005941C90241EA5051B1FBF3F603FB1611A5
:10304000A2FB0675D7EBC020A94102D2761E8018DC
:103050005941C90241EA5051B1FBF3FE03FB1E1175
:10306000A2FB0E75D7EBC020A94103D2AEF1010E31
:1030700080185941890241EA9051760546EA8E2E20
:10308000B1FBF3F603FB1611A2FB0675D7EB80200C
:10309000A94102D2761E80185941C90241EA505115
:1030A0004EEA060EB1FBF3F603FB1611A2FB067502
:1030B000D7EBC020A94102D2761E80185941C9021F
:1030C00041EA5051B1FBF3F703FB1711A2FB07359F
:1030D000D3EBC020A94167F100070CBF004247F0C5
:1030E000010766F3D5274FEA1E31B80814F580644E
:1030F00014DDBD0775F1004250EB0E5051EB045149
:1031000011F5801F5CBF41EA0C01BDE8F0814CF075
:103110007F6141F0E0410020BDE8F081BD076D080E
:1031200040EA0E5041F48011D4F10104B4F12006BC
:103130000ADAC4F120060200E04001FA06F3E14099
:103140001843B24015430EE0342C14DCC6F12004C1
:1031500045EA40056D0820FA06F2154321FA06F00B
:10316000A1400D43002175F1004250F1000051EBE8
:103170000C01BDE8F08100205FEA0C01BDE8F081A0
:10318000CFB992185B41B3FA83F704BFB2FA82F663
:10319000BF190B3FB7F120062FBF02FA06F3BB4061
:1031A000C7F1200622FA06F638BF3343BA401CB1F5
:1031B000E419641E2FE77F4231F00041B1FA81F437
:1031C00004BFB0FA80F6A4190B3CB4F120062FBF5F
:1031D00000FA06F1A140C4F1200620FA06F638BF35
:1031E0003143A0403C1B16E7AC421ABF05EA135717
:1031F000AF4214E050EA41061CBF52EA4306BFE763
:1032000050EA4107304661461CBF41EA0551BDE81E
:10321000F08152EA430C08BFC143BDE8F0810020B1
:103220004FF4001616EB410F98BF16EB430F08BF83
:1032300016EB410F24BFC14305E016EB430F0CBF53
:1032400061464CEA0551BDE8F081000080B51348A5
:1032500000F0E8F80FF24C020FF244010160426204
:1032600041600FF24402826381600FF24402C16048
:103270000161416181618162C16201634163C26335
:103280000164416401BD10B5044800F0CBF8044668
:10329000206808B9FFF7DAFF204610BD8813002028
:1032A000000000002E00000066616C7365000000E5
:1032B000747275650000000091FBF2F303FB1211BC
:1032C000C0E900317047000010B50446DFF818006F
:1032D00000F0A8F850F8240010BD80B5DFF8080011
:1032E00000F0A0F8806902BD1C13002030B430B992
:1032F0000FF24800D0E90045C2E900451BE001702B
:10330000012030BC704730B431B90FF23800D0E939
:103310000045C3E900450EE01AB930BC6FF001006A
:10332000704708B10A7802800978481E804130BC95
:10333000C043C00F7047002030BC70470000000041
:1033400000000000000000000000000070470000C6
:10335000841A71EB030603D2001BB14112197341A9
:103360004FF4001C1CEB410F34BF7CEB430443E0E3
:103370000C0DA4EB1356352E50DC45EAC323DB0AB3
:1033800045EAC121C912B6F120050DDD63FA05F643
:10339000EB4086EA0305124218BF45F00105C0184C
:1033A00051F100010CD213E062FA06F5F2405540EB
:1033B000F3415A40B340F3405A408018594107D373
:1033C00049085FEA30005FEA350528BF45F001058E
:1033D00001F58011420875F1004250F1000041EB07
:1033E0000451F0BC4FF4001C1CEB410F38BF704778
:1033F0000020090D090570471CEB410F10D252EA5D
:1034000043060BD0BCEB410F05D80C0DAB43661E39
:10341000342EB5DD02E0AB4380185941F0BC704753
:10342000F0BC70477047000080B5DFF8E00A01F09B
:1034300080F8BDE804400FF63831032001F07BBB73
:103440004FF080402DE9F84FDFF8C46ADFF8C47A06
:10345000B06000254FF40060B0604FF4FA740220B1
:10346000B860A9464FF48050B060AA4601F0C6FD8E
:10347000AB46A846009017E04FF48050B0600320A0
:103480000FF6203101F057FB4FF0010BBAF1C90FD5
:103490000AD30A20BAFBF0F00A2101FB10A018B9E8
:1034A000A4B2312CA8BF641E01F0A8FD0099401AF7
:1034B00048F6B80188423AD218EA0B0F37D10120FA
:1034C00000F0B1FBDFF8500A01F0C0FD2846451CB2
:1034D00080B2B0F5FA6F14DBB8F1000F11D1386883
:1034E0000025400604D5786880F00200786008E086
:1034F0000220B86003200FF6982101F01CFB4FF06A
:103500000108484600F1010980B2A1B28842BDD34A
:10351000BBF1000FBAD13068C0064FF000090AF1C4
:10352000010AA9D5706880F480507060AEE702206F
:10353000B86000214FF48050B060DFF8E00901600E
:103540004160BDE8F18F2DE9F041DFF8D069DFF887
:10355000D029336801248342A0464FF0FF3C03D2B8
:10356000C71A4FF4804003E01F1A64464FF08040B2
:1035700010607068884203D20D1A4FF0006003E0BB
:10358000451AE0464FF4006010602946384600F0C6
:103590000FF83068012C0CBF3818C01B3060B8F130
:1035A000010F70680CBF2818401B7060BDE8F081E7
:1035B0002DE9F24F86B00021059001910091400065
:1035C0000390002706990698049140000026029077
:1035D00040F6B931884224BFA0F6B8300490039871
:1035E000DFF84019B0F5FA7F84BFA0F5FA700590B6
:1035F00000F0C6F801F002FD804601F0FFFC4FF03C
:10360000000B4FF4FA644FF4FA75DA46814644E051
:1036100001F0F4FCA0EB080050284FF4FA6403D347
:1036200001F0ECFC8046012605980199884202D2FF
:10363000032EB8BF0326504600F1010A80B2A8420B
:103640002BD300980299884227D2401C00904FF05B
:10365000000ADFF8D408DFF8D018006880F4805042
:1036600008600098C00718D427B1012F5CD0032F41
:103670006AD00BE001F0C2FCA0EB090064284FF413
:10368000FA7503D301F0BAFC01278146049800992A
:10369000884202D2032FB8BF0327019803998842BA
:1036A00022BF00980299884260D2012000F0BBFA44
:1036B000DFF8640801F0CAFC584600F1010B80B243
:1036C000A042B8D3019803998842B4D2401C01901B
:1036D0004FF0000BDFF84C08DFF84818006880F066
:1036E000020008600198C007A5D4300090D0012ED8
:1036F00002D0032E0CD097E7A41E01F07FFCA4B2E9
:10370000B4F5967F80468FDC4FF4967402268BE7E3
:10371000641C01F073FCA4B2B4F5FA6F80468ADB36
:103720004FF4FA64042686E701F068FCA0EB090078
:103730000428ABD36D1E01F061FCADB2112D8146A2
:10374000A4DA10250227A1E701F058FCA0EB09003C
:103750000428A2D36D1C01F051FCADB2B5F5FA7F7F
:1037600081469ADB4FF4FA75042796E7DFF8B41721
:1037700000F006F807B0BDE8F04F022001F094BC5D
:10378000022048604FF48050DFF89C174860704773
:103790002DE9F84F04460020009001F02FFC8046F0
:1037A00022460FF61401DFF88467DFF88477DFF82C
:1037B000845700F0B8F8DFF8800700EBC400083841
:1037C00041680068FFF7BFFE01F018FCA0EB08029B
:1037D0000FF60C0100F0A7F801F010FC611E0F2994
:1037E0004FF480602DD8DFE801F0080A0D101315A2
:1037F00017191B1E20222426282A306021E04FF4AE
:10380000007103E04FF4807100E08021316018E026
:10381000202106E0102104E0082102E0042100E05C
:10382000022139600DE040210AE0202108E010214A
:1038300006E0082104E0042102E0022100E0012169
:10384000296038604FF00069C7F8009001F0D6FB9E
:10385000824601F0D3FBA0EB0A0043F69821884290
:1038600008D2DFF8AC06D0F800B000F0F3F85FEA59
:103870000B70EED4641E0F2C4FF0806A00F0CAF972
:103880004FF4003E30D8DFE804F0080B0E11151796
:10389000191B1D202E232527292CC6F800A023E064
:1038A0004FF0007004E04FF0807001E04FF4000032
:1038B000306019E0386017E0396015E03A6013E0D5
:1038C0003B6011E0C7F800E00EE04FF480000AE032
:1038D000296009E02A6007E02B6005E0C5F800E0F8
:1038E00002E04FF48030286001F088FB044601F0CC
:1038F00085FB001B41F28831884206D200F0AAF80D
:10390000684601F015FD0028F1D0C7F80090C7F80F
:1039100000A001F073FBA0EB08020FF2F06100F0D1
:1039200002F8BDE8F18F032001F005B92DE9F04759
:1039300001F064FB04460FF2F861DFF8D465DFF8AC
:10394000D49500F00EFB47F2305140F21240FFF7E1
:10395000FAFD01F053FB021B0FF2F061FFF7E3FFEA
:1039600001F04CFB05460120B0604FF40037B76012
:1039700041F2883801F042FB401B404505D200F07F
:1039800069F8D9F800008006F4D4B7604FF48035A8
:10399000B56040F6B83001F087FB01F02FFB82469E
:1039A0000220B060B56001F029FBA0EB0A004045A1
:1039B00004D200F04FF830680006F4D4B760B56068
:1039C00001F01CFB021B0FF2B061DFF86465FFF72A
:1039D000AAFF00211E20FFF7B6FD01F00FFB021B1E
:1039E0000FF2C061FFF79FFF4FF40060C9F80800B5
:1039F00030604FF08067376001F000FB4FF0000847
:103A0000054601F0FBFA401B42F21071884208D2D1
:103A100000F020F8D9F8000000F0010090F0010853
:103A2000EFD04FF0006535603760B8F1000F1CBF74
:103A30004FF4FA6001F038FBC9F80850FFF700FDB9
:103A400001F0DCFA021BBDE8F0470FF284610320AD
:103A500001F071B8022001F027BB00002DE9F84FFA
:103A6000834601F0CBFA82465A460FF28861DFF8AE
:103A7000A464DFF8C874DFF8C844FFF754FF01F00E
:103A8000BDFAABF101000F284FF000082ED8DFE897
:103A900000F0080B0E111416181A1C1F21232527DD
:103AA000292B4FF4806006E04FF4007003E04FF4E0
:103AB000807000E08020B06018E0202006E0102038
:103AC00004E0082002E0042000E00220B8600DE0DD
:103AD00040200AE0202008E0102006E0082004E052
:103AE000042002E0022000E00120A06001F086FA3C
:103AF0008146DFF8505401F081FAA0EB090042F250
:103B0000107188423FD2FFF7A5FFABF101000F28EB
:103B100036D8DFE800F0080A0D10121416181A1D26
:103B2000202326292C2F306813E03068800B23E0F7
:103B30003068400B20E030680EE038681CE02868F0
:103B400013E0286814E0286815E02868800913E06D
:103B50002068C00B10E02068000B0DE02068C00A50
:103B60000AE02068800A07E02068400A04E0206834
:103B7000000A01E02068C00900F0010080F001089F
:103B8000B8F1000FB7D001F039FAABF1010BBBF17E
:103B90000F0F00F03FF84FF400352ED8DFE80BF0A0
:103BA000080B0E111517191B1D1F2C222426282A5D
:103BB0004FF0806007E04FF0007004E04FF080703D
:103BC00001E04FF40000B06017E0B86015E0B960A4
:103BD00013E0BA6011E0BB600FE0BD600DE04FF490
:103BE000800009E0A16008E0A26006E0A36004E0B4
:103BF000A56002E04FF48030A06001F0FFF9A0EB77
:103C00000A0243460FF21051032000F094FF404691
:103C1000BDE8F28F4FF400104FF480114FF40022F2
:103C20004FF48023704781B000210CE00521ADF8EE
:103C30000210BDF802104A1E0029ADF80220F8D18A
:103C4000BDF80010491CADF80010BDF8001081420D
:103C5000ECD301B070472DE9F8430F460FF2E8416D
:103C600057F8040FAE4D01F0A1FBC8B957F8040F87
:103C70000FF2DC4101F09AFB28B94FF48040286034
:103C80000FF2D44195E038680FF2E44101F08EFB69
:103C9000002820D14FF0804028600FF2DC4188E0FE
:103CA0003E680FF2EC4100F056F94FF400694FF016
:103CB0000068B8B957F8040F93A101F077FB20B959
:103CC000C5F800800FF2D04173E038680FF2DC4194
:103CD00001F06CFB002840F01581C5F800900FF250
:103CE000D44166E00FF2E44100F035F94FF40034BE
:103CF000B8B978688D4D00F0ABFB00F025F981462E
:103D000007E000F031F900F023F900F02DF900F0A0
:103D10001FF95FEA0900A9F10109F2D10FF2B441DC
:103D200047E00FF2CC4100F016F9E8B900F016F9BF
:103D300000F00AF981464FF080544FF480570BE0B1
:103D40002F603046FFF76FFF00F002F92F6030461A
:103D5000FFF769FF00F0FCF85FEA0900A9F101092B
:103D6000EED10FF2944124E00FF2A84100F0F3F8F5
:103D700090B900F0F3F800F0E7F804462146304629
:103D8000FFF716FC2346324601B0BDE8F0430FF2C0
:103D90008C41032000F0CFBE0FF2A44100F0DBF80D
:103DA00058B90FF2A44100F0DCF8FFF749FB0FF21D
:103DB000C041BDE8F443FFF740BB0FF2DC4100F027
:103DC000CAF890B900F0CAF8064632460FF2D4415C
:103DD000FFF7A9FD002E33D0112E33D2564800EB49
:103DE000C60008384168006818E00FF2D04100F0C2
:103DF000B2F830B90FF2D04100F0B3F800211E2024
:103E00000CE00FF2E04100F0A6F858B90FF2E041E3
:103E100000F0A7F847F2305140F21240BDE8F443F9
:103E2000FFF791BB0FF2E84100F095F8C8B900F038
:103E300095F8064632460FF2E041FFF774FD002E7A
:103E400060D0112E5ED2F0B2FFF7A2FCFFF76EFD3C
:103E5000F0B2FFF703FEBDE8F84302460FF2D4418B
:103E6000F5E50FF2F04100F076F84FF4803730B905
:103E70000FF2EC4100F075F80220286016E00FF216
:103E8000F44100F068F838B90FF2F84100F069F831
:103E9000012028602C6035E00FF2005100F05BF843
:103EA00030B90FF2085100F05CF82C602F6029E067
:103EB0000FF210511E4C00F04EF848B90FF2145199
:103EC00000F04FF84FF480602060C4F8008019E0E3
:103ED0000FF2185100F03FF84FF0806530B90FF243
:103EE0001C5100F03EF8C4F800900AE00FF2245193
:103EF00000F031F830B90FF2305100F032F8C4F868
:103F000000802560BDE8F183757000007C02002010
:103F10000814014008180140D8010020304E00204C
:103F2000101401400C1801400C14014010180140FD
:103F30001010014010080140FC0100200810014051
:103F400008080140080C01400646B86800F080BA35
:103F50002C60304667E6304601F028BA786800F0F9
:103F600077BA032000F0E7BD0220286030465AE609
:103F70006C6F673E204D6F746F7220636F6E74724A
:103F80006F6C20696E6974204F4B2E0D0A00000083
:103F90006C6F673E2058207265736574204F4B2EFE
:103FA0000D0A00006C6F673E205A207265736574BD
:103FB000204F4B2E0D0A00006C6F673E20676F6F1D
:103FC0006473207069636B757020616374696F6ED0
:103FD0002C2066726F6D20726F616425640D0A007B
:103FE0006C6F673E20676F6F6473207069636B75D9
:103FF0007020585A206D6F76652075736564207443
:10400000696D653A25646D730D0A00006C6F673E3B
:1040100020676F6F6473207069636B7570207573B0
:1040200065642074696D653A25646D730D0A00003E
:104030006C6F673E20676F6F64732073686F7720C3
:10404000616374696F6E0D0A000000006C6F673E5B
:1040500020676F6F64732073686F7720585A206DE4
:104060006F766520757365642074696D653A2564A3
:104070006D730D0A000000006C6F673E20676F6F64
:1040800064732073686F7720646F6F72206D6F7632
:104090006520757365642074696D653A25646D7378
:1040A0000D0A00006C6F673E20676F6F64732072AB
:1040B00065636F766572206D6F76652075736564D4
:1040C0002074696D653A25646D730D0A0000000067
:1040D0006C6F673E20676F6F64732073686F772023
:1040E000757365642074696D653A25646D730D0A96
:1040F000000000006C6F673E20676F6F6473206381
:104100006865636B20616374696F6E2C20726F61E8
:104110006425640D0A0000006C6F673E20676F6FB6
:10412000647320636865636B2075736564207469CC
:104130006D653A25646D732C2072657475726E3AE4
:1041400025640D0A00000000786469720000000018
:104150006C656674000000006C6F673E206D6F74C4
:104160006F722058206C6566742E0D0A00000000E6
:1041700072696768740000006C6F673E206D6F7431
:104180006F7220582072696768742E0D0A00000053
:104190007A646972000000006C6F673E206D6F7476
:1041A0006F72205A2075702E0D0A0000646F776EB2
:1041B000000000006C6F673E206D6F746F72205AB4
:1041C00020646F776E2E0D0A00000000787374650E
:1041D000700000006C6F673E206D6F746F72207806
:1041E0002073746570206F7665722E0D0A000000D2
:1041F0007A737465700000006C6F673E206D6F7499
:104200006F72207A2073746570206F7665722E0D40
:104210000A00000073657470706572006C6F673E11
:10422000206D6F746F722058206D6F76653A25642B
:104230002C205A206D6F76653A25642E0D0A0000F9
:1042400072657365740000006C6F673E207365745F
:1042500070656572206D6F746F722072657365741E
:1042600020626567696E6E696E672E0D0A00000038
:104270006C6F673E2073657470656572206D6F7436
:104280006F7220726573657420636F6D706C6974F2
:10429000652E2E0D0A0000006D6F7665726F6164E9
:1042A000000000006C6F673E206D6F766520746FB4
:1042B00020726F61643A25640D0A00006D6F7665A7
:1042C0006261636B000000006C6F673E206D6F766B
:1042D0006520746F206261636B757020726F61641A
:1042E0002E0D0A006D6F766573686F770000000011
:1042F0006C6F673E206D6F766520746F2073686FFA
:104300007720706F736974696F6E2E0D0A0000005C
:1043100074657374000000006C6F673E2070696301
:104320006B757020676F6F647320726F61643A25DC
:10433000640D0A006C6F673E20726F6F61642564C4
:1043400020636865636B20726573756C743A640DE5
:104350000A0000006761705F646F6F725F757000C4
:104360006C6F673E206761705F646F6F725F75701E
:104370000D0A00006761705F646F6F725F646F7732
:104380006E0000006C6F673E206761705F646F6F46
:10439000725F646F776E0D0A000000006761705FE6
:1043A000646F6F725F73746F700000006C6F673EB4
:1043B000206761705F646F6F725F73746F700D0A56
:1043C00000000000636172676F5F6D6F746F725FF2
:1043D000696E00006C6F673E20636172676F5F6D8E
:1043E0006F746F725F696E0D0A000000636172671F
:1043F0006F5F6D6F746F725F6F7574006C6F673E87
:1044000020636172676F5F6D6F746F725F6F757439
:104410000D0A0000636172676F5F6D6F746F725F8A
:1044200073746F70000000006C6F673E20636172F0
:10443000676F5F6D6F746F725F73746F700D0A00DA
:104440000146002000291CBF0846FEF717BA704736
:1044500038B5044600255CB105E014F8011B0A20BC
:10446000303900FB0515207800F0C1FF0028F4D199
:10447000284632BDB0B5054600241DB32878302843
:104480000BD16878782818BF582806D1AD1C04E0F5
:10449000A7F1570000EB04146D1C2F78380010D0E2
:1044A00000F0A5FF10B1A7F13000F3E7A7F141003C
:1044B000062838BFA7F13700ECD3A7F16100062822
:1044C000E6D32046B0BD70B500230FF2003409E0FA
:1044D00011F8016B86EA202534F8155085EA002092
:1044E00080B25B1C9DB29542F2D370BD01090A22D5
:1044F00000F00F0002FB0100C0B270470A2190FBE0
:10450000F1F10A2202FB110040EA0110C0B270472B
:1045100038B50446254600E06D1C2878010003D01C
:1045200000F06AFF0028F7D1FFE70020287020463E
:1045300032BD002100281CBF0268002A0BD0DFF822
:1045400084120A6812B9086004E00A4691680029DA
:10455000FBD19060012108467047B0B5DFF86412C6
:104560000D68044692B0002000214DF82010401C38
:104570001028FADB2078010005D000F051FF002858
:1045800008BF641CF6D001270094204602E04DF8D5
:1045900027007F1C017891B1102F10DA01780A00F2
:1045A00018BF202904D0401CF8E7002100F8011BA7
:1045B00001780A0001D02029F7D00029E7D1002096
:1045C0004DF8270000E0AD685DB1012FFBDB2968E5
:1045D000204600F0EBFE0028F5D16A6869463846AF
:1045E000904712B0B0BD2DE9F04105460E464FF0A0
:1045F000FF38002700E07F1CBFB23C4655F824007E
:1046000028B1314600F0D2FE0028F4D1A046404641
:10461000BDE8F08181B0002101E00099491C0091C2
:1046200000998142F9D301B0704767490A6812B90D
:10463000086070470A46824204D011690029F9D106
:104640000161106170470021C16070475E490968CF
:10465000002000E0096921B1CA688B689A42F9D349
:104660000868704758490968002000E0096951B19D
:104670004A68002AFAD0CA68521CCA60CA688B68A5
:104680009A42F3D308687047002918BF002A09D05E
:10469000531E134206D10160436000218160C16056
:1046A000012070470020704738B504460D4600F0E1
:1046B0000EF86168884208D2E268206811404554CB
:1046C000E068401CE060012032BD002032BDC168BE
:1046D0008068081A7047C16881607047F8B50D4658
:1046E00000261746002D18BF002F044611D0FFF7F3
:1046F000EEFFB84201D207465FB1A1686268206848
:1047000011407F1E405CA855761CA068401CA0602C
:10471000F2E73046F2BDF8B50D4600261746002DEB
:1047200018BF002F044614D0FFF7D1FF6168081AA4
:10473000401CB84201D207465FB1E1686268206858
:104740001140AA5D42547F1EE068401CE060761C68
:10475000F2E73046F2BD70B504460D46FFF7B7FFED
:104760000026854205D2A168626820686918114058
:10477000465C304670BD30B5002304E02C705B1CF5
:10478000202401F8014B934215DAC45C24094D1C26
:104790000A2CACBF373430340C70C15CCC0801EB50
:1047A00014742409A1EB0414E4B2691C0A2CACBFF4
:1047B00037343034E2E70D2008700A2048700020BA
:1047C000887030BD4C4E0020504E0020000021105B
:1047D000422063308440A550C660E770088129916B
:1047E0004AA16BB18CC1ADD1CEE1EFF13112100213
:1047F00073325222B5529442F772D66239931883BB
:104800007BB35AA3BDD39CC3FFF3DEE362244334DE
:1048100020040114E664C774A44485546AA54BB50A
:1048200028850995EEE5CFF5ACC58DD553367226B2
:1048300011163006D776F6669556B4465BB77AA75A
:1048400019973887DFF7FEE79DD7BCC7C448E558FE
:104850008668A7784008611802282338CCC9EDD9AA
:104860008EE9AFF9488969990AA92BB9F55AD44A52
:10487000B77A966A711A500A333A122AFDDBDCCBFA
:10488000BFFB9EEB799B588B3BBB1AABA66C877C1E
:10489000E44CC55C222C033C600C411CAEED8FFD4A
:1048A000ECCDCDDD2AAD0BBD688D499D977EB66EF2
:1048B000D55EF44E133E322E511E700E9FFFBEEF9A
:1048C000DDDFFCCF1BBF3AAF599F788F8891A9815C
:1048D000CAB1EBA10CD12DC14EF16FE18010A10046
:1048E000C230E3200450254046706760B983989336
:1048F000FBA3DAB33DC31CD37FE35EF3B102901296
:10490000F322D2323542145277625672EAB5CBA501
:10491000A89589856EF54FE52CD50DC5E234C324E5
:10492000A01481046674476424540544DBA7FAB7D5
:104930009987B8975FE77EF71DC73CD7D326F23635
:104940009106B01657667676154634564CD96DC921
:104950000EF92FE9C899E9898AB9ABA94458654885
:1049600006782768C018E1088238A3287DCB5CDB75
:104970003FEB1EFBF98BD89BBBAB9ABB754A545AD5
:10498000376A167AF10AD01AB32A923A2EFD0FED41
:104990006CDD4DCDAABD8BADE89DC98D267C076C25
:1049A000645C454CA23C832CE01CC10C1FEF3EFF15
:1049B0005DCF7CDF9BAFBABFD98FF89F176E367E75
:1049C000554E745E932EB23ED10EF01E10B5DFF838
:1049D000E8440320207286B0012000F0D1F84FF4A3
:1049E000807204F1200104F11000FFF74DFE6846CB
:1049F0000FF2F4511422FDF7ABFF0021684600F0DE
:104A00003CFB4FF490702044FFF793FD0FF2BC4144
:104A1000032000F090F806B010BD80B50FF2C4413D
:104A2000032000F088F800F067F90A2000F03CFB52
:104A3000F9E770B5044600F061FD00250026DFF8B7
:104A40007C0450F8251019B940F82540AE1D02E04D
:104A50006D1C082DF5DB00F06AFDF0B270BD0A4652
:104A60000146DFF85404007AC5E180B50A460146E4
:104A7000DFF84C04FFF732FE80B202BD80B5DFF8EC
:104A80004004FFF724FE80B202BD0EB430B50446E8
:104A90004FF4807000F0AEFD05000CD003AB00F0C9
:104AA0006AF82846FDF7EAFE81B22846FFF7D7FFED
:104AB000284600F024FE30BC5DF810FB2DE9F84FCD
:104AC00081460026B9F1000F0D4632D0280030D0C3
:104AD000E80805EB10700009B5EB001118BF0121C3
:104AE00001EB15101FFA80FB332000F083FD5FEA15
:104AF00000081ED000240FF2084A12E0AF1BBFB21C
:104B0000112FA8BF10273A4641464846FFF733FE0B
:104B1000424631465046FFF7B8FFBE19B944B6B217
:104B2000641CA4B25C45E9DB4046BDE8F24F00F0EE
:104B3000E6BDBDE8F18F0CB438B50C46010017D0C6
:104B4000DFF87413897A814212D34FF4807000F039
:104B500051FD05000CD004AB00F00DF82846FDF720
:104B60008DFE81B22846FFF77AFF284600F0C7FD88
:104B700031BC5DF80CFB22464FF4807100F010BE92
:104B800038B5CD4D0446E868844203D000F0B6FC49
:104B9000EC600BE031BD38B5C74DA97A88420446B8
:104BA00003D000F0ABFCAC7200E031BDBDE8314099
:104BB00000F0BDBC2DE9F04D0125BF4EE8B200F07C
:104BC000B0FE5FEA000B68D0307A85420BF1010835
:104BD00013D1404600F00EFD04005ED05A46214637
:104BE000E8B200F0BCFE002004F80B005A46214653
:104BF000E8B200F057F820464DE0717AE8B28842FA
:104C000006D100F0C8FEB0F57A7F28BF002430D26C
:104C1000E8B200F086FE8246BAF10B0F3DDBE8B247
:104C200000F0B9FEB0F57A7F37D3002400E0641CB1
:104C3000544532DAA1B2E8B200F083FE7328F6D10F
:104C4000AAEB04000728F2DB0027391989B2E8B281
:104C500000F077FEF0557F1C062FF6DB0020B071C8
:104C600030460FF2A82100F0A1FB0028DFD1002C74
:104C700013D4404600F0BEFC07000ED05A46394619
:104C8000E8B200F06CFE002007F80B003919E8B21A
:104C900000F06FF8384600F032FD6D1C062D8DDBFC
:104CA000BDE8F08D70B5844E1546327A90420C46C0
:104CB0000DD1F06818B129462046FFF7D0FE2A46EC
:104CC000214606F11000BDE87040FFF724BDBDE8A5
:104CD00070404EE038B504000DD0FDF7CFFD764DA5
:104CE00082B2287A2146FFF7DDFF287ABDE83840F6
:104CF00002226EA1D6E731BD70B56F4C04F11000F1
:104D0000FFF7E5FC86B29EB3711E04F11000FFF7B9
:104D100022FD0D2818BF0A2821D1701C00F06AFC62
:104D200005001CD03246294604F11000FFF7D6FCDE
:104D300086B20020A855A819801E41780D2912BFFF
:104D40000A290021417001780D2912BF0A2900218A
:104D500001702846FFF701FC284600F0D0FCB6F5AC
:104D6000807F05D104F11000BDE87040FFF7B3BCAF
:104D700070BD70B504460E4606220FF290114E4DDE
:104D8000304601F079F8002811D0697A8C4231D18F
:104D90003046FFF7BDFB0FF2C811304600F006FBAE
:104DA000F8B92C7213220FF288111FE0761C3078AC
:104DB000010018BF2028F9D13078010003D0202845
:104DC00008BF761CF8D03046FFF7A2FB0FF288111F
:104DD000304600F0EBFA68B96C7219220FF2341108
:104DE00004E00020687213220FF258112046BDE83B
:104DF000704000E070BD0346084611461A000CD012
:104E0000062B04DA0A460146184600F028BD2B4A54
:104E100002EB830252F8182C1047704770B50C460D
:104E20000FF2481154F8040F00F0C0FA88B9656811
:104E30001FA100F047F808B9012003E01DA100F010
:104E400041F808B9FFF79CFE62680FF228110320B1
:104E500028E025680FF23811174E00F033F838B902
:104E60000FF234110320FFF766FE0320307270BD8D
:104E70000FF2401100F026F818B96068BDE87040E4
:104E800028E70FF2381100F01DF870B965682DB1F0
:104E90002846FFF7DDFAC0B2FFF77DFEB27A0FF2C7
:104EA00028110220BDE8704045E670BD0D0A0000E3
:104EB0006F6E00006F666600000000205C4D0020F1
:104EC00010000020284600F071BA00006C6F673EA9
:104ED00020436F6E736F6C6520696E69742E0D0AC6
:104EE000000000006C6F673E20436F6E736F6C654F
:104EF000207461736B2073746172742E0D0A00004C
:104F00003078253034583A25730000007379737473
:104F1000656D0000506C6561736520696E70757415
:104F2000207061737320776F72642E0D0A00000089
:104F3000436F6E736F6C65206C6F67696E204F4BAB
:104F40002E0D0A0050617373776F72642065727260
:104F50006F722E0D0A000000524F4F5400000000E7
:104F60003132333435363738000000006563686FFE
:104F7000000000006C6F673E20436F6E736F6C65BE
:104F800020736574206563686F3A25732E0D0A00DF
:104F90006C6F676F757400006C6F673E20434D4403
:104FA00020706970652077696C6C20726573657418
:104FB0002E0D0A007669727475616C006C6F676CF7
:104FC0006576656C0000000077617272696E673EFD
:104FD0002053797374656D206C6F67206C657665FE
:104FE0006C3A25642E0D0A00080D01081B4A0008C2
:104FF00000000000000000000001000001484068BF
:10500000704700BF940B002038B5040001D1012087
:1050100032BD20684CF6CC41016045F2555101602B
:1050200061684160A1688160FFF7E8FF054620687C
:10503000C16831B1FFF7E2FF401B3128F7D30320ED
:1050400032BD4AF6AA210160002032BD00684AF64E
:10505000AA210160002070470021842818BFC11CCC
:1050600008467047EFF3058000B10120C0B27047D9
:1050700080B500F0F1FF002002BD3EB504460D46AC
:10508000B4F90800FFF7E8FF02A9019100902B4650
:1050900022692168606892B200F004FF012801D003
:1050A00000203EBD02983EBD80B500B9012000F051
:1050B000B6FF002002BD012001F021BB38B5044637
:1050C000002000900CB9802032BD002511F1010FA5
:1050D00008BF4FF0FF3500F063F838B100F05BF81F
:1050E000012807D100F060F8002032BD00F04DF833
:1050F0000128F9D0FF2032BD38B500F07EF860B14C
:105100006946204601F032FC012801D0FF2032BD63
:10511000009838B100F0D4F804E000F068F80128F5
:1051200018BFFF25284632BD10B501290DD1032235
:105130000021012001F0BCFA040004D00023002269
:10514000002101F02AFB204610BD002010BD38B51B
:105150000446002000900CB9802032BD002511F1DA
:10516000010F08BF4FF0FF3500F01AF838B100F01A
:1051700012F8012807D100F017F8002032BD00F026
:1051800004F80128F9D0FF2032BD00232A4600216F
:10519000204601F02BBC6A460021204601F0D4BC19
:1051A00001D001B10D465DE7009838B149494FF093
:1051B00080500860BFF34F8FBFF36F8F704738B5D3
:1051C00000F01BF860B16946204601F0CFFB0128D2
:1051D00001D0FF2032BD009838B100F071F804E032
:1051E00000F005F8012818BFFF25284632BD00232E
:1051F00000220021204601F0D0BA00250446009587
:1052000030E741680068002201F052BA32B582B03E
:10521000044600201546009005B90125FFF722FF3E
:1052200058B100236A4602A9204601F04DFB01282F
:105230000BD1FFF7B9FF00203EBD00232A4602A98B
:10524000204601F0AAFA0128F5D0FF203EBD7FB527
:1052500004460D460020029501900DB9802026E0FD
:10526000002612F1010F039008BF4FF0FF3600F047
:1052700023F870B103AA01A9284601F065FC0128B2
:105280000CBF102000200090039888B100F018F89F
:105290000EE00023324601A9284601F0A7FB0128B1
:1052A00008BF102003D0002E0CBF0020402000902B
:1052B00068460EC80EC47FBD01D002B11646D1E6C5
:1052C00004494FF080500860BFF34F8FBFF36F8FDA
:1052D0007047000004ED00E080B501F0C1F801283E
:1052E00003D0BDE8014000F034B901BD042001F055
:1052F00006BA10B501F013FA0024012818BFFF24E4
:10530000204610BD80B508B9802002BD002211F1F1
:10531000010F08BF4FF0FF3201D001B10A4611461C
:1053200001F017FA012801D0FF2002BD002002BDC4
:10533000F8B50446022000F0F4FA002507460A2FCB
:1053400025DB00F057F9060021D03A46314602200D
:1053500000F005FB304601E0401C7F1E02787E2AEB
:1053600004BF42781B2ABFB201D0092FF4DA092FFB
:105370000ADBC178122907D102690FF218012260F5
:105380000320FFF7D8FB0125304600F0B8F9284686
:10539000F2BD00006C6F673E20726561642052466A
:1053A00049443A2523780D0A00000000820707D0FF
:1053B00010F8012B11F8013BBAB19A42F6D014E073
:1053C00002680B689A42A2F1013301BF934313F0C4
:1053D000803F50F8042F51F8043FF3D010F8012B10
:1053E00011F8013B0AB19A42F8D0D01A7047303810
:1053F0000A288041C00F704710B50446A4F1200070
:105400005F280BD3204601F06FFC38B9204601F02D
:1054100075FC401E8041C043C00F10BD012010BD6F
:1054200010B50446202C11D0A4F120005F280BD326
:10543000204601F059FC38B9204601F05FFC401EBF
:105440008041C043C00F10BD012010BD002010BD21
:10545000490810B54900A0F10C034FF08074596061
:105460009C600FF20D01196040F8202D203810BD0E
:1054700052494968502011F1010F06D080F311887C
:10548000BFF34F8FBFF36F8FFEE780F31188BFF339
:105490004F8FBFF36F8FFEE71CB54948474C01782B
:1054A0000191FF21017001788DF800109DF8001026
:1054B00001F050012170072105E09DF80020520005
:1054C000491E8DF800209DF800201206F5D409022F
:1054D00001F4E061A160019901703A48016841F46A
:1054E00070010160016841F07041016000F072F8E4
:1054F0000020606001F049FC002016BD502080F3C0
:105500001188BFF34F8FBFF36F8F2C494A68521C2D
:10551000012A4A600AD12C490968090606D080F39D
:105520001188BFF34F8FBFF36F8FFEE7704723489B
:10553000416839B9502080F31188BFF34F8FBFF312
:105540006F8FFEE7491E416004BF002080F3118881
:10555000704780B5502080F31188BFF34F8FBFF3A1
:105560006F8F00F0FBFD18B117494FF080500860B5
:10557000002080F3118801BDEFF305805021102831
:105580000E4A0BD3114B185C1378984206D281F364
:105590001188BFF34F8FBFF36F8FFEE790680C4AFF
:1055A000126802F4E062904206D281F31188BFF3E0
:1055B0004F8FBFF36F8FFEE770470000300B002066
:1055C00000E400E020ED00E004ED00E0F0E300E0A6
:1055D0000CED00E00549064809684FF47A72B1FB0A
:1055E000F2F1491E4160072101607047C00F0020A1
:1055F00010E000E02DE9F041044600F058FD674E50
:10560000B068002508BB06F1180306F1180213F074
:1056100007034FF43051104605D0D01DC008C0001C
:10562000C0F53051511809180839C908C90030604F
:105630007560B1604D600D600A1A4260016040689B
:105640003061F0604FF0004070614FF050087069B9
:1056500004423FD1002C3DD0083414F0070F1FBF87
:1056600004F1080004F00701441A14F0070F00F0D9
:105670003DF87CB3F068A0422CD33768304601E097
:1056800038460F467968A14202D239680029F7D11D
:10569000B1688F421ED0016801F1080539680160C8
:1056A0007868011B112908D3381910F0070200F09F
:1056B0001DF841607C6000F04EF87868F16832694E
:1056C000091AF160914238BF31617169084378600D
:1056D0000020386000F0F1FC0DB901F0A7FB15F0D7
:1056E000070000F003F82846BDE8F08106D088F3F3
:1056F0001188BFF34F8FBFF36F8FFEE7704738B548
:10570000F0B1A0F10804254D606869695022084293
:1057100002D100F016F8FEE7236813B100F011F88B
:10572000FEE78843606000F0C2FCE8686168081822
:10573000E860204600F00FF8BDE8314000F0BDBC45
:1057400031BD82F31188BFF34F8FBFF36F8F704766
:105750001248C068704730B510490A4600E01A4642
:1057600013688342FBD35368D418844203D1406842
:10577000C0185060104643681468C518A54208D187
:1057800089688C4204D06168C9184160246800E0CF
:105790000C460460824218BF106030BD181A002009
:1057A00008B584B00023029311B90093019302E07D
:1057B0000090481E019004AB6946074878441830B1
:1057C000FBF762FF009911B1009A002111700028C7
:1057D00058BF029805B000BD6BD0FFFF2DE9F04126
:1057E000DFF844750646F86B0C46154628B907F1F4
:1057F0007C00FEF79EFE0120F86330002DD0062EBF
:105800002BDA280029D0681E284226D12846FFF727
:10581000F1FE5FEA000820D0761EF6B207EB86079D
:1058200007F168003C60FFF746FCB862012107F110
:105830005400FFF779FC78614FF0FF31FFF787FCE8
:10584000DFF8E8042A46414600EB0610FEF71CFF8D
:105850002068C16841F02001C160BDE8F0812DE9F8
:10586000F04100F092F824D0062C22DA0DB3320079
:105870001FD0DFF8B40400EB840808F110074FF0E4
:10588000FF317869FFF71AFC641E032C58F8040CEA
:105890003246294602D801F0DFFB01E001F0B9FBF6
:1058A00038684FF0FF31FFF752FC7869FFF724FCAE
:1058B0003046BDE8F08138B51446020010D0062805
:1058C0000EDA69B122000BD0DFF85C5405EB8000E2
:1058D0004FF4FA6350F8040C01F040FB204632BD4F
:1058E000002032BD0CB410B5044600202200ADF5F6
:1058F000007D11D0062C0FDA71B10A4682AB4FF44D
:1059000000716846FFF74CFF6846FCF7B7FF82B2AC
:1059100069462046FFF7CFFF0DF5007D10BC5DF80E
:105920000CFB014680B500200A0008D0062906DAE3
:10593000DFF8F80300EB01101038FEF7C8FE80B264
:1059400002BD02460020130008D0062A06DADFF85E
:10595000DC0300EB02101038FEF7FDBE704770B597
:1059600000F013F80FD0062C0DDA65B131000AD023
:1059700000F088F8DFF8B40300EB04103246294643
:105980001038FEF7ABFE80B270BD04460D46002015
:1059900021001646704710B50446002021000DD0A6
:1059A000062C0BDAFFF72AFBDFF87C1301EB8401EE
:1059B000C96B401AB0F57A7F88BF002010BD020085
:1059C00000D1704710B5062816DAD74A02EB8004DA
:1059D00054F8040C426891420ED00268D36823F058
:1059E0002003D360416001F081FA54F8040C006890
:1059F000C16841F02001C16010BDF8B506460F46F0
:105A0000062EB8BF062F1CDAFFF778FDC84DC74C2D
:105A10002E746F743EB104EB0611284600F02EF888
:105A20002846FEF758FE47B1C24E04EB0711304638
:105A300000F024F83046FEF74EFEBDE8F140FFF7D7
:105A400076BDF1BD38B50D460446062DB8BF062C0F
:105A500013DAFFF753FDB6488574C4744DB1B349EA
:105A6000B54C01EB0511204600F008F82046FEF782
:105A700032FEBDE83140FFF75ABD31BD103910226A
:105A8000FCF766BF2DE9F84F00250FF2C426DFF8BA
:105A90009C8208EB05173846FEF719FE79686C1CE6
:105AA00080B2491C884204D1E0B2FFF774FF642839
:105AB00009D23846FEF70BFE68B1E0B2FFF76BFF84
:105AC000B0F57A7F07D33846FEF705FE6A1C3146EB
:105AD0000220FFF730F86D1C052DDADBDFF8589255
