:020000040800F2
:1000000090120020FD290108B1270108B32701083B
:10001000B5270108B7270108B9270108000000002B
:10002000000000000000000000000000CF7C00087D
:10003000BB27010800000000897C0008BD270108DB
:100040007D2A0108812A0108852A0108892A0108D8
:100050008D2A0108912A0108952A0108992A010888
:100060009D2A0108A12A0108A52A0108A92A010838
:10007000CB270108AD2A0108B12A0108B52A0108D9
:10008000B92A0108D1270108BD2A0108C12A01089F
:10009000C52A0108C92A0108CD2A0108D12A010868
:1000A000D52A0108D92A0108DD2A0108E12A010818
:1000B000E52A0108E92A0108ED2A0108F12A0108C8
:1000C000F52A0108F92A0108FD2A0108012B010877
:1000D000052B0108092B0108D7270108ED27010886
:1000E0000D2B0108112B0108152B0108192B0108F4
:1000F0001D2B0108212B0108252B0108292B0108A4
:100100002D2B0108312B0108352B0108392B010853
:100110003D2B0108412B0108452B0108492B010803
:100120004D2B0108512B0108552B0108592B0108B3
:100130004FF4E07210440268914203D343681A44BA
:10014000914202D380680028F5D17047DFF85C0740
:10015000016891B94FF4803181604FF48051416062
:100160004FF0FF31C16001610421DFF84427416194
:10017000C2F8BC11DFF83C1701600120704701F1A3
:10018000080313F0070305D001F10803C3F10803C6
:1001900003F007031944D21A8161C26042F00103DF
:1001A0004B60114428234B60DFF800170969C161D7
:1001B00070472DE9F84F064601F1080010F00700DE
:1001C00008BF884607D001F10800C0F1080000F020
:1001D000070001EB000802F1080010F0070006D04C
:1001E00002F10800C0F1080000F0070002441546C3
:1001F000A5EB0800A0EB030908EB030B43F0030099
:10020000C8F80400AB4528BF01F00CFA2879C007F4
:1002100058BF01F007FAB9F1100F38BF01F002FA28
:10022000B069854209D1F0684844F060C6F818B05A
:1002300040F00100CBF8040070E1706985420BD1F9
:10024000B0684844B060C6F814B040F00101CBF883
:1002500004104BF8000061E1686800F00301012917
:1002600040F0AF80C008C0000190C00820283BD2F9
:10027000D5F808A0EF680090BD4208BF01F0D2F9A0
:10028000554508BF01F0CEF968680099C008C00064
:10029000B0EBC10F18BF01F0C5F9009806EBC00024
:1002A00000F128018A4508D031698A45C0F0848070
:1002B000DAF80C10A94240F07F80574506D1009A29
:1002C0003068012191408843306077E028308742D0
:1002D00005D0306987426FD3B868A8426CD1CAF89C
:1002E0000C70C7F808A069E0EF68D5F818A0AF4215
:1002F0000CD0A8683169884223D3C168A94204BFE1
:10030000B968A9421DD1C760B8601CE005F11400AE
:10031000076837B905F110000768A7B101E0084682
:10032000076807F114010A68002A02BF07F11001EB
:100330000A68002AF3D13169884202D300210160A2
:1003400001E001F06FF9BAF1000F37D0E86906EB70
:1003500080004FF49871084401688D4208D107600D
:10036000A7B9EA697068012191408843706025E06F
:100370003069824508D3DAF81000A84214BFCAF8E1
:100380001470CAF8107001E001F04CF9B7B130698F
:10039000874211D3C7F818A0296929B1814226BF25
:1003A00039618F6101F03EF9686938B1316988427D
:1003B00002D37861876101E001F034F901980544C6
:1003C000814468684008400068604FEAD90549F0F8
:1003D0000100CBF804004BF80990202D23D206EB46
:1003E000C50000F12807BA46B9F1100F38BF01F077
:1003F00019F9306820FA05F1C90704D40121A94090
:100400000843306006E0B868316988422CBF8246F4
:1004100001F008F9C7F808B0CAF80CB0CBF808A08A
:10042000CBF80C707AE05FEA192108BF002023D0D6
:10043000B1F5803F28BF1F201ED2A1F58070000CAF
:1004400000F008008140A1F58052120C02F0040275
:100450009140A1F580431B0CC0F10E0003F0020394
:10046000801AC01A994000EBD130C11D29FA01F25F
:1004700002F0010101EB400006EB80014FF498729D
:100480001144CBF81C000022CBF81420CBF810202C
:10049000726822FA00F3DB0707D4012303FA00F0A5
:1004A00010437060C1F800B01DE009681F281DBF2F
:1004B0004008C0F1190009FA00F0484600E0114672
:1004C0004A68D208D2004A4514D0C20F01EB82021A
:1004D00002F1100340001A68002AF0D1306983420B
:1004E0001AD3C3F800B0CBF81810CBF80CB0CBF887
:1004F00008B013E032698868914228BF90420BD35C
:10050000C0F80CB0C1F808B0CBF80800CBF80C105C
:100510000020CBF8180001E001F084F808F1080091
:10052000BDE8E68F2DE9FA4D0546DFF88003006847
:1005300082B008B9FFF70AFEDFF8700302998068FD
:1005400041182F31401E21EA00000299814280F0BB
:10055000A9814FF4D8716E18B16839B1326880182A
:10056000824280F09F818142C0F09C8101F06CF852
:1005700000281EBF0446D0F8008014F1010F00F0DF
:1005800091813068716840448142306038BF0146D3
:100590007160A86980BB286908B1844200D22C61CF
:1005A0000020F0613461C6F8148005F12801BF48CD
:1005B000006868624FF0FF3028620020C9608960DF
:1005C00001F108024A610A61801C10312028F5D32C
:1005D000B748854203D1A8F1280221462AE055F800
:1005E000040CC00805EBC000A0F1080104EB0800F2
:1005F000401AA0F128021DE04FF4E07029180846C7
:1006000000E08068D0B1026843681A449442F8D18F
:10061000027B120712D4AA6903689A420ED3476874
:100620003B449A420AD208EB07014160E868A96995
:1006300008EB00022846FFF7A2FD1DE1286984426D
:10064000084638BF2C6104EB080100E0806880B1E7
:1006500002688A42FAD1017B09070AD40460416822
:10066000414441602146029B284604B0BDE8F04D5C
:100670009FE5AF6939462846FFF75AFD4FF0000B5A
:100680000168406808440190273810F0070101997B
:100690000EBF0020C0F1080000F0070008442F380A
:1006A00007F11001884234BF00970090009804F1D0
:1006B000080100F1180A11F00701A8F1280005D07F
:1006C00004F10801C1F1080101F00701401A2144B9
:1006D000A961E86040F001024A60084428224260B3
:1006E00072480069E8610098083010F0070018BFF0
:1006F00000F098FF00991B2048604FF4E0712944F6
:10070000B1E80C5000980830A0E80C503461C6F8ED
:100710001480C6F81CB000980830B061019801E060
:100720000AF1040A0721CAF804100BF1010B0AF1BF
:1007300008018142F4D3BBF1020FB8BF00F072FF91
:100740000098B84200F09880C01B3918C4084A6865
:10075000520852004A6040F0010179603850202C64
:1007600020D205EBC40101F12806B046102838BF9D
:1007700000F058FF286820FA04F1C90704D40121C9
:10078000A1400843286006E0B068296988422CBF70
:10079000804600F047FFB760C8F80C70C7F80880C3
:1007A000FE6069E0010A23D0B1F5803F28BF1F2118
:1007B0001ED2A1F58072120C02F008029140A1F540
:1007C00080531B0C03F004039940A1F58044240CD2
:1007D000C2F10E0204F00204D21A121BA14002EB75
:1007E000D131CA1D20FA02F303F0010202EB4101EC
:1007F00005EB81024FF498731A44F96100237B6181
:100800003B616B6823FA01F4E40705D401208840BA
:100810001843686017601CE012681F291DBF490853
:10082000C1F1190100FA01F1014600E01A465368CE
:10083000DB08DB00834210D0CB0F02EB830303F114
:10084000100449002368002BF0D12869844211D399
:100850002760BA61FF60BF600EE0296990688A4234
:1008600028BF884206D3C7609760B860FA6000204E
:10087000B86101E000F0D6FEE8680299814211D229
:10088000401AE860A969029A0A44AA6140F001008E
:100890005060029840F00300486004B001F1080085
:1008A000BDE8F08D002004B0BDE8F08DF84A0020CE
:1008B000B44200206859883C2DE9F84F04460026D0
:1008C00089465FEA1920C9F1000B08BF002123D037
:1008D000B0F5803F28BF1F211ED2A0F58071090C02
:1008E00001F008018840A0F58052120C02F00402C9
:1008F0009040A0F580431B0CC1F10E0103F00203F0
:10090000891AC91A984001EBD030C11D29FA01F2A9
:1009100002F0010101EB400104EB8100D0F830014D
:1009200018B31F290FBF4A464A08C2F1190209FA33
:1009300002F2002300E052004568ED08ED00A5EB4F
:1009400009055D4503D25FEA050B06460BD04569F4
:10095000D70F00EB8700002D00691CBF85422B4696
:100960000028E8D11846B8BBC6BB0120884040002B
:10097000414208436168084000F05D8141420840FF
:10098000401E010B01F01001C840420902F00802AC
:10099000D040830803F00403D840450805F0020561
:1009A0005118E8405918C0F3400729443944F84029
:1009B000401804EB8000D0F830010DE00846416893
:1009C000C908C900A1EB090159453CBF8B46064641
:1009D00001690029F2D140690028F0D1002E00F011
:1009E0002A81A068A0EB0900834580F0248120695A
:1009F0008642C0F01E817068C00809EB0B08C00079
:100A0000404518BF00F00EFE06EB0905AE4280F02F
:100A10001081F768D6F818A0B7420CD0B0682169E9
:100A2000884223D3C168B14204BFB968B1421DD125
:100A3000C760B8601CE006F11400076837B906F11A
:100A400010000768A7B101E00846076807F1140124
:100A50000A68002A02BF07F110010A68002AF3D1D0
:100A60002169884202D30021016001E000F0DAFD33
:100A7000BAF1000F39D0F06904EB80004FF498719F
:100A8000084401688E4209D10760380014D1F26928
:100A90006068012191408843606026E020698245BA
:100AA00008D3DAF81000B04214BFCAF81470CAF8BC
:100AB000107001E000F0B6FDBFB12069874212D38B
:100AC000C7F818A0306930B12169884226BF386163
:100AD000876100F0A7FD706938B12169884202D3AF
:100AE0007861876101E000F09DFDBBF1100F09D234
:100AF00048F00300706006EB0800416841F0010116
:100B0000416095E049F0030070604BF001006860BF
:100B10004FEADB0045F80BB020281DD204EBC001E2
:100B200001F12807216821FA00F2D207BB4605D45B
:100B3000012202FA00F00843206006E0B86821694B
:100B400088422CBF834600F06DFDBD60CBF80C5091
:100B5000C5F808B0EF606BE05FEA1B2023D0B0F56A
:100B6000803F28BF1F201ED2A0F58071090C01F024
:100B700008018840A0F58052120C02F00402904057
:100B8000A0F580431B0CC1F10E0103F00203891A8A
:100B9000C91A984001EBD030C11D2BFA01F202F0C6
:100BA000010101EB400004EB80014FF49872114405
:100BB000E86100226A612A61626822FA00F3DB07B9
:100BC00006D4012303FA00F0104360600D601CE0BE
:100BD00009681F281DBF4008C0F119000BFA00F07A
:100BE000584600E011464A68D208D2005A4510D053
:100BF000C20F01EB820202F1100340001A68002AC2
:100C0000F0D12069834211D31D60A961ED60AD6010
:100C10000EE022698868914228BF904206D3C560E1
:100C20008D60A860E9600020A86101E000F0FAFC96
:100C300008E100F0F7FC02E12DE9F84F0446884690
:100C4000606841420840401E010B01F01001C8409D
:100C5000420902F00802D040830803F00403D840A0
:100C6000450805F002055118E8405918C0F3400640
:100C700029447118F040401804EB8000D0F830018E
:100C80004168C908C9000646A1EB080A09E0084600
:100C90004168C908C900A1EB080151453CBF8A461B
:100CA000064601690029F2D140690028F0D1206987
:100CB0008642C0F0C2807068C00808EB0A09C00014
:100CC000484518BF00F0AEFC06EB080B5E4580F00F
:100CD000B480F768B569B7420CD0B0682169884222
:100CE00023D3C168B14204BFB968B1421DD1C76006
:100CF000B8601CE006F11400076837B906F110006F
:100D00000768A7B101E00846076807F114010A68FF
:100D1000002A02BF07F110010A68002AF3D12169F5
:100D2000884202D30021016001E000F07BFC002D2D
:100D300035D0F06904EB80004FF4987108440168E5
:100D40008E4209D10760380011D1F2696068012133
:100D500091408843606022E02069854205D328697C
:100D6000B04214BF6F612F6101E000F05BFCB7B1CE
:100D70002069874211D3BD61306930B12169884251
:100D800026BF3861876100F04DFC706938B1216978
:100D9000884202D37861876101E000F043FCBAF138
:100DA000100F09D249F00300706006EB090041689A
:100DB00041F0010141603FE048F0030070604AF0FB
:100DC0000100CBF804004BF80AA0D4F808804FEAE1
:100DD000D805202D28BF00F025FCB8F1000F27D042
:100DE000D4F81490009504EBC50000F128052F46B7
:100DF000B8F1100F38BF00F015FC2068009920FAF8
:100E000001F2D10705D4009A0121914008432060E6
:100E100006E0A868216988422CBF074600F002FC62
:100E2000C5F80890C7F80C90C9F80870C9F80C50BC
:100E3000C4F808A0C4F814B004E000F0F3FB0020EC
:100E4000BDE8F28F06F10800BDE8F28F2DE9F04F02
:100E500083B00546AFF30080F52DDFF8C04780F082
:100E600002810B2D31BF102705F10B00C708FF00D1
:100E70002068FE08F04010F0030F42D0C04300F09D
:100E80000100861904EBC60000F12808F700D8F825
:100E900008506868C008C000B84218BF00F0C2FB24
:100EA000D5F80890454508BF00F0BCFB4D4508BF8C
:100EB00000F0B8FB6868C008C000B84218BF00F076
:100EC000B1FBC84505D120680121B14088432060AD
:100ED0000DE02069814508D3D9F80C00A84204D15F
:100EE000C8F80890C9F80C8001E000F09BFB47F0BF
:100EF00003006860E8190835416841F0010141606C
:100F0000F9E0A168B94280F0C080002800F0A2801A
:100F1000012505FA06F149004A42B0401143084054
:100F200041420840401E010B01F01001C840420937
:100F300002F00802D040830803F00403D8404608BA
:100F400006F002065118F0405918C0F34008711815
:100F5000414420FA08F000EB010804EBC80000F15E
:100F600028094FEAC80AD9F808607068C008C000AC
:100F7000504518BF00F056FBD6F808B04E4508BFE4
:100F800000F050FB5E4508BF00F04CFB7068C008E5
:100F9000C000504518BF00F045FBD94505D1206879
:100FA00005FA08F1884320600DE02069834508D3E5
:100FB000DBF80C00B04204D1C9F808B0CBF80C90B3
:100FC00001E000F02FFB47F003007060AAEB070878
:100FD000F019019048F0010001994860019840F82B
:100FE0000880A7684FEAD70ABAF1200F28BF00F09F
:100FF00019FB47B3CDF800A004EBCA00D4F8149055
:1010000000F1280AD346102F38BF00F00BFB2068F0
:10101000009920FA01F2D10705D4009905FA01F1EF
:101020000843206007E0DAF80800216988422CBFF5
:10103000834600F0F7FACAF80890CBF80C90C9F88C
:1010400008B0C9F80CA0C4F8088006F1080501989A
:10105000606150E06068C0B339462046FFF7ECFDA0
:10106000050012D047E015F1400F28BF4FF0FF37C1
:101070000BD205F10B00C7086068FF0028B13946A4
:101080002046FFF719FC050035D1A068B8421CD3F3
:10109000C11B626910290AD3D0196061A16041F0B7
:1010A00001034360415047F0030050600AE0002113
:1010B000A160616140F0030151601044416841F05A
:1010C0000101416002F1080515E0E06887420DD298
:1010D000C01BA169E060CA19A26140F00100506024
:1010E00001F1080547F00300486004E03946204656
:1010F000FFF718FA0546AFF30080284603B0BDE8B5
:10110000F08F00B970472DE9F047A0F10804AFF364
:101110000080DFF8085528698442C0F07982616850
:1011200001F00302012A00F07382CA084FEAC208E4
:10113000CA0704EB080937D4226811F0030F00F046
:10114000698251420C4484429044C0F061826969D2
:101150008C4200F0D980D608202E70D2D4F80CA092
:10116000A768544508BF00F05DFABC4208BF00F014
:1011700059FA6068C008C000B0EBC60F18BF00F095
:1011800051FA05EBC60000F128018F4205D029690C
:101190008F4251D3F968A1424ED1BA453DD128685A
:1011A0000121B140884328604C4580F03182D9F854
:1011B0000400C10740F12C82810700F17D81A969FB
:1011C000894540F0B680E868AC614044E86040F092
:1011D0000101616069698C4202D100216961A960E5
:1011E000E969814280F01682DFF83404006808B9AA
:1011F000FEF7ACFFA969002900F00C82E8682928F5
:1012000024BF2846FEF794FFE869E968884280F029
:1012100001824FF0FF30E861FCE12830824506D0C2
:101220002869824508D3DAF80800A04204D1C7F83B
:101230000CA0CAF80870B7E700F0F4F9B4E7E76863
:10124000A669A7420BD0A168814222D3C868A042F8
:1012500004BFB868A0421CD1CF60B9601BE004F1A4
:1012600014010F6837B904F110010F689FB101E054
:1012700011460F6807F114021368002B02BF07F133
:1012800010021368002BF3D1814202D300200860C2
:1012900001E000F0C7F9002E86D0E06905EB800080
:1012A0004FF49871084401688C4209D107603800F6
:1012B00011D1E2696868012191408843686073E751
:1012C0002869864205D33069A04214BF776137612F
:1012D00001E000F0A7F9002F3FF466AF28698742CC
:1012E000AAD3BE61216929B1814226BF39618F61CC
:1012F00000F098F9606900283FF456AF29698842E8
:101300009AD3786187614FE799F8040000F00300F1
:1013100003287FF449AFC5F80880D9F804004008D5
:101320004000C9F8040048F00100606044F80880FB
:1013300070E16969894508D1A8686C614044A8607A
:1013400040F001016160205064E1C008C0004FEA34
:10135000D00ABAF1200F804437D2D9F80C70D9F8EE
:101360000860B94508BF00F05DF9B14508BF00F05D
:1013700059F9D9F80400C008C000B0EBCA0F18BF73
:1013800000F050F905EBCA0000F128018E4207D0A9
:1013900029698E42C0F08380F168494540F07F8022
:1013A000B74206D12868012101FA0AF18843286072
:1013B00077E02830874205D0286987426FD3B86824
:1013C00048456CD1F760BE606BE0D9F80C70D9F875
:1013D00018604F450DD0D9F808002969884223D3F9
:1013E000C168494504BFB96849451DD1C760B860A7
:1013F0001CE009F11400076837B909F1100007680B
:10140000A7B101E00846076807F114010A68002A3D
:1014100002BF07F110010A68002AF3D12969884246
:1014200002D30021016001E000F0FCF8002E38D06A
:10143000D9F81C0005EB80004FF49871084401684E
:1014400089450AD10760380012D1D9F81C20686894
:10145000012191408843686023E02869864205D3D2
:101460003069484514BF7761376101E000F0DAF870
:10147000BFB12869874212D3BE61D9F8101029B1D3
:10148000814226BF39618F6100F0CCF8D9F8140091
:1014900038B12969884202D37861876101E000F0A0
:1014A000C1F848F00100606044F80880686984422F
:1014B0000BD1C5F80880ADE040084000C9F8040031
:1014C00048F00100606044F808804FEAD807202FF8
:1014D00022D205EBC70000F128094E46B8F1100FE3
:1014E00038BF00F09FF8286820FA07F1C90704D434
:1014F0000121B9400843286007E0D9F808002969AC
:1015000088422CBF064600F08DF8C9F80840F46008
:10151000A660C4F80C907DE05FEA182008BF0021A7
:1015200023D0B0F5803F28BF1F211ED2A0F58071C7
:10153000090C01F008018840A0F58052120C02F05D
:1015400004029040A0F580431B0CC1F10E0103F092
:101550000203891AC91A984001EBD030C11D28FA3C
:1015600001F202F0010101EB400105EB81004FF4B3
:1015700098721044002262612261E1616A6822FA75
:1015800001F3DB0706D4012303FA01F1114369607B
:1015900004601CE000681F291DBF4908C1F1190142
:1015A00008FA01F1414600E010464268D208D20034
:1015B000424510D0CA0F00EB820202F1100349002D
:1015C0001A68002AF0D129698B4211D31C60A061EE
:1015D000E460A4600EE02A698168904228BF9142CD
:1015E00006D3CC608460E060A1600020A06101E0CF
:1015F00000F018F8286A401E28620BD1D5F8C801FF
:1016000000E080680028FCD14FF0FF30286201E044
:1016100000F008F8AFF30080BDE8F087B442002086
:10162000F84A0020012000F025B8A0F16101062948
:1016300024BFA0F14101062904D330380A28804193
:10164000C00F7047012070470749086808B10020A3
:1016500070470648C008C00008600549C908C900AD
:10166000091A0160704700BFC04B0020971200208C
:101670009012002080B500F007F8024A11001820EF
:10168000ABBEFBE72600020080B500F033F8020095
:101690000023DB431068984204D011000220ABBE47
:1016A000002010605068984204D0111D0220ABBE8B
:1016B0000020506001BD000010B584B0040000F0AF
:1016C00019F8A100421810680021C94388420DD1C1
:1016D00007A00090002C01D1002000E00420019020
:1016E0000320029069460120ABBE106004B010BD1B
:1016F0003A747400004870477C0B002080B5DFF816
:10170000580C01F0ACF9BDE804400FF2080100F0FC
:101710002CBC00006C6F673E204D6F746F722063AD
:101720006F6E74726F6C20696E6974204F4B2E0D52
:101730000A0000004FF080402DE9F84FDFF81C6CE4
:10174000DFF81C7CB06000254FF40060B0604FF4FF
:10175000FA740220B860A9464FF48050B060AA46DF
:1017600001F0CAFBAB46A846009017E04FF480504A
:10177000B06003200FF2C40101F079FC4FF0010BBF
:10178000BAF1C90F0AD30A20BAFBF0F00A2101FB13
:1017900010A018B9A4B2312CA8BF641E01F0ACFB94
:1017A0000099401A48F6B80188423AD218EA0B0F5D
:1017B00037D1012000F0C1FBDFF8A80B01F0DCFEFF
:1017C0002846451C80B2B0F5FA6F14DBB8F1000F63
:1017D00011D138680025400604D5786880F00200F1
:1017E000786008E00220B86003200FF6B83101F0FD
:1017F0003EFC4FF00108484600F1010980B2A1B259
:101800008842BDD3BBF1000FBAD13068C0064FF09B
:1018100000090AF1010AA9D5706880F4805070604F
:10182000AEE70220B86000214FF48050B060DFF8CE
:10183000380B01604160BDE8F18F00006C6F673EBE
:10184000205A207265736574204F4B2E0D0A0000DC
:101850002DE9F041DFF8106BDFF8102B336801241D
:101860008342A0464FF0FF3C03D2C71A4FF480409A
:1018700003E01F1A64464FF0804010607068884291
:1018800003D20D1A4FF0006003E0451AE0464FF412
:10189000006010602946384600F00FF83068012CCF
:1018A0000CBF3818C01B3060B8F1010F70680CBF56
:1018B0002818401B7060BDE8F0812DE9F24F86B01A
:1018C00000210590019100914000039000270699A6
:1018D0000698049140000026029040F6B9318842F3
:1018E00024BFA0F6B83004900398DFF8841AB0F54E
:1018F000FA7F84BFA0F5FA70059000F0C6F801F0F9
:10190000FBFA804601F0F8FA4FF0000B4FF4FA644E
:101910004FF4FA75DA46814644E001F0EDFAA0EBA7
:10192000080050284FF4FA6403D301F0E5FA80462A
:10193000012605980199884202D2032EB8BF0326DA
:10194000504600F1010A80B2A8422BD300980299B8
:10195000884227D2401C00904FF0000ADFF8140A9A
:10196000DFF8101A006880F4805008600098C00703
:1019700018D427B1012F5CD0032F6AD00BE001F0FF
:10198000BBFAA0EB090064284FF4FA7503D301F009
:10199000B3FA0127814604980099884202D2032FA6
:1019A000B8BF032701980399884222BF0098029983
:1019B000884260D2012000F0C0FADFF8A80901F0E7
:1019C000DBFD584600F1010B80B2A042B8D301986C
:1019D00003998842B4D2401C01904FF0000BDFF80D
:1019E0009009DFF88C19006880F002000860019807
:1019F000C007A5D4300090D0012E02D0032E0CD009
:101A000097E7641F01F078FAA4B2B4F5967F804698
:101A10008FDC4FF4967402268BE7641D01F06CFA9C
:101A2000A4B2B4F5FA6F80468ADB4FF4FA64042658
:101A300086E701F061FAA0EB09000428ABD36D1E24
:101A400001F05AFAADB2112D8146A4DA1025022711
:101A5000A1E701F051FAA0EB09000428A2D36D1C04
:101A600001F04AFAADB2B5F5FA7F81469ADB4FF440
:101A7000FA75042796E7DFF8F81800F006F807B0C3
:101A8000BDE8F04F022001F0A5BD022048604FF4F0
:101A90008050DFF8E0184860704700002DE9F84FEB
:101AA00004460020009001F027FA804622460FF6F7
:101AB0000811DFF8C468DFF8C478DFF8C45800F014
:101AC000B8F800F041FCFFF7C3FE01F015FAA0EBF7
:101AD00008020FF60C1100F0ACF801F00DFA611ECF
:101AE0000F294FF480602DD8DFE801F0080A0D10AF
:101AF000131517191B1E20222426282A306021E0E6
:101B00004FF4007103E04FF4807100E080213160F8
:101B100018E0202106E0102104E0082102E0042161
:101B200000E0022139600DE040210AE0202108E0B8
:101B3000102106E0082104E0042102E0022100E077
:101B40000121296038604FF00069C7F8009001F06A
:101B5000D3F9824601F0D0F9A0EB0A0043F69821B0
:101B6000884208D2DFF8F407D0F800B000F0FDF8A2
:101B70005FEA0B70EED4641E0F2C4FF0806A00F009
:101B8000D3F94FF4003E30D8DFE804F0080B0E1113
:101B90001517191B1D202E232527292CC6F800A058
:101BA00023E04FF0007004E04FF0807001E04FF44C
:101BB0000000306019E0386017E0396015E03A60E5
:101BC00013E03B6011E0C7F800E00EE04FF4800046
:101BD0000AE0296009E02A6007E02B6005E0C5F80B
:101BE00000E002E04FF48030286001F085F90446FF
:101BF00001F082F9001B41F28831884207D200F0DF
:101C0000B4F8684601F02AFE0028F1D003E00FF294
:101C1000FC7100F0A7F8C7F80090C7F800A001F029
:101C20006BF9A0EB08020FF2F47100F002F8BDE8C6
:101C3000F28F032001F01BBA2DE9F04701F05CF9A7
:101C400004460FF2FC71DFF81467DFF8149700F018
:101C500089F844F6206140F21240FFF7F9FD01F0E7
:101C60004BF9021B0FF2F471FFF7E3FF01F044F9A7
:101C700005460120B0604FF40037B76041F2883864
:101C800001F03AF9401B404505D200F06EF8D9F852
:101C900000008006F4D4B7604FF48035B56040F69C
:101CA000B83001F097FC01F027F982460220B060BD
:101CB000B56001F021F9A0EB0A00404504D200F024
:101CC00054F830680006F4D4B760B56001F014F938
:101CD000021B0FF2B471DFF8A466FFF7AAFF002120
:101CE0000520FFF7B5FD01F007F9021B0FF2C471E3
:101CF000FFF79FFF4FF40060C9F8080030604FF015
:101D00008067376001F0F8F84FF00008054601F0F1
:101D1000F3F8401B42F21071884208D200F025F817
:101D2000D9F8000000F0010090F00108EFD04FF06A
:101D3000006535603760B8F1000F1CBF4FF4FA60E2
:101D400001F048FCC9F80850FFF7F4FC01F025FF4A
:101D500001F0D2F8021BBDE8F0470FF284710320B6
:101D600001F085B9032001F082B9022001F032BCF4
:101D70002DE9F84F834601F0BFF882465A460FF22C
:101D80008471DFF8DC65DFF8FC75DFF8FC45FFF7F0
:101D900050FF01F0B1F8ABF101000F284FF000083F
:101DA0002ED8DFE800F0080B0E111416181A1C1FAD
:101DB00021232527292B4FF4806006E04FF4007083
:101DC00003E04FF4807000E08020B06018E0202035
:101DD00006E0102004E0082002E0042000E00220D9
:101DE000B8600DE040200AE0202008E0102006E066
:101DF000082004E0042002E0022000E00120A060AE
:101E000001F07AF88146DFF8845501F075F8A0EB0F
:101E1000090042F2107188423FD2FFF7A6FFABF1F2
:101E200001000F2836D8DFE800F0080A0D10121460
:101E300016181A1D202326292C2F306813E030682D
:101E4000800B23E03068400B20E030680EE03868FB
:101E50001CE0286813E0286814E0286815E028686A
:101E6000800913E02068C00B10E02068000B0DE033
:101E70002068C00A0AE02068800A07E02068400A5B
:101E800004E02068000A01E02068C00900F00100B9
:101E900080F00108B8F1000FB7D001F02DF8ABF1D8
:101EA000010BBBF10F0F00F03FF84FF400352ED8B7
:101EB000DFE80BF0080B0E111517191B1D1F2C2244
:101EC0002426282A4FF0806007E04FF0007004E0DD
:101ED0004FF0807001E04FF40000B06017E0B86090
:101EE00015E0B96013E0BA6011E0BB600FE0BD60BF
:101EF0000DE04FF4800009E0A16008E0A26006E078
:101F0000A36004E0A56002E04FF48030A06000F020
:101F1000F3FFA0EB0A0243460FF20C61032001F02D
:101F2000A6F84046BDE8F28F4FF400104FF4801140
:101F30004FF400224FF48023704781B000210CE061
:101F40000521ADF80210BDF802104A1E0029ADF8B7
:101F50000220F8D1BDF80010491CADF80010BDF802
:101F600000108142ECD301B07047032001F07FB82C
:101F70002DE9F0470E460FF2E05156F8040FDFF856
:101F8000EC7301F0D9FFC8B956F8040F0FF2D05125
:101F900001F0D2FF28B94FF4804038600FF2C851E9
:101FA00098E030680FF2D85101F0C6FF002821D127
:101FB0004FF0804038600FF2D0518BE0D6F80080AF
:101FC0000FF2DC5100F0BDF94FF400654FF0006AEC
:101FD000B0B956F8040F85A101F0AEFF20B9C7F8DB
:101FE00000A00FF2C45175E030680FF2D05101F03B
:101FF000A3FF002840F09C813D600FF2C85169E0CA
:102000000FF2D851DFF8704300F09BF94FF400391C
:10201000B8B900F0BFF90546B06800F0AFFC8246E1
:1020200007E000F0BAF900F085F900F0B6F900F029
:1020300081F95FEA0A00AAF1010AF2D10FF2A45174
:1020400048E00FF2BC5100F07CF9E8B900F0A2F9C9
:102050008046B06800F092FC82464FF080544FF406
:10206000805509E000F06AF93C6000F068F900F082
:1020700065F93C6000F063F95FEA0A00AAF1010A21
:10208000F0D10FF2845125E00FF2985100F059F988
:1020900098B900F07FF90446B06800F06FFC05467F
:1020A00029462046FFF709FC2B462246BDE8F047AB
:1020B0000FF27851032000F0DABF0FF2945100F0D4
:1020C00040F950B90FF29051FFF74CFEFFF732FB89
:1020D0000FF2AC51BDE8F04747E70FF2CC5100F0EA
:1020E00030F970B900F056F9044622460FF2C45197
:1020F000FFF79FFD002C5FD0112C5DD200F024F97A
:1021000018E00FF2C85100F01CF930B90FF2C851B5
:10211000FFF728FE002105200CE00FF2D85100F057
:1021200010F958B90FF2D851FFF71CFE44F62061A0
:1021300040F21240BDE8F047FFF78ABB0FF2E051D2
:1021400000F0FFF8E8B900F025F9044622460FF246
:10215000D851FFF76EFD3CB1112C05D2E0B2FFF76C
:102160009DFCFFF769FD03E00FF2D851FFF7FAFD80
:10217000E0B2FFF7FDFDBDE8F04702460FF2E45183
:10218000EDE50FF2006100F0DCF84FF4803630B975
:102190000FF2FC51FFF7E6FD0220386040E00FF23D
:1021A000046100F0CEF840B90FF20861FFF7DAFDE4
:1021B00001203860C7F80090BAE00FF2106100F01B
:1021C000C0F830B90FF21461FFF7CCFDC7F80090EA
:1021D00026E00FF22061694F00F0B3F84FF48069F8
:1021E00030B90FF22061FFF7BDFD27E075700000E8
:1021F0000FF2286100F0A5F84FF0806628B90FF2C1
:102200002C61FFF7AFFD3D600AE00FF2386100F08E
:1022100098F838B90FF24061FFF7A4FDC7F800A0A5
:102220003E6085E00FF24861554D00F08AF850B9E4
:102230000FF24861FFF796FD02202860C7F8009072
:10224000C7F800A074E00FF2486100F07AF808B90E
:10225000012028E00FF2446100F073F808B9022071
:1022600021E00FF2446100F06CF808B904201AE094
:102270000FF2406100F065F808B9082013E00FF292
:10228000406100F05EF808B910200CE00FF23C61EC
:1022900000F057F808B9202005E00FF23C6100F08B
:1022A00050F810B94020286042E00FF2386100F089
:1022B00048F808B902201AE00FF2346100F041F842
:1022C00008B9042013E00FF2346100F03AF808B9BD
:1022D00008200CE00FF2346100F033F808B9102048
:1022E00005E00FF2386100F02CF810B920203860BA
:1022F0001EE00FF2386100F024F808B980200EE0EB
:102300000FF2386100F01DF810B94FF4807006E04C
:102310000FF2386100F015F818B94FF40070206022
:1023200006E00FF2386100F00CF808B9C4F800902C
:10233000BDE8F087C4F800902846FEE53D604046C1
:10234000FBE5404601F0F8BD114800EBC400083839
:1023500041680068704700008802002008140140AE
:1023600008180140E40100209C4B0020101401409B
:102370000C1801400C1401401018014010100140CD
:10238000100801400810014008080140080C0140F5
:1023900008020020706800F0F1BA02202060284690
:1023A000CBE500006C6F673E205820726573657442
:1023B000204F4B2E0D0A00006C6F673E20676F6F39
:1023C0006473207069636B757020616374696F6EEC
:1023D0002C2066726F6D20726F616425640D0A0097
:1023E0006C6F673E20676F6F6473207069636B75F5
:1023F0007020585A206D6F7665207573656420745F
:10240000696D653A25646D730D0A00006C6F673E57
:10241000206572726F72210D0A0000006C6F673EBA
:1024200020676F6F6473207069636B7570207573BC
:1024300065642074696D653A25646D730D0A00004A
:102440006C6F673E20676F6F64732073686F7720CF
:10245000616374696F6E0D0A000000006C6F673E67
:1024600020676F6F64732073686F7720585A206DF0
:102470006F766520757365642074696D653A2564AF
:102480006D730D0A000000006C6F673E20676F6F70
:1024900064732073686F7720646F6F72206D6F763E
:1024A0006520757365642074696D653A25646D7384
:1024B0000D0A00006C6F673E20676F6F64732072B7
:1024C00065636F766572206D6F76652075736564E0
:1024D0002074696D653A25646D730D0A0000000073
:1024E0006C6F673E20676F6F64732073686F77202F
:1024F000757365642074696D653A25646D730D0AA2
:10250000000000006C6F673E20676F6F647320638C
:102510006865636B20616374696F6E2C20726F61F4
:102520006425640D0A0000006C6F673E20676F6FC2
:10253000647320636865636B2075736564207469D8
:102540006D653A25646D732C2072657475726E3AF0
:1025500025640D0A00000000786469720000000024
:102560006C656674000000006C6F673E206D6F74D0
:102570006F722058206C6566742E0D0A00000000F2
:1025800072696768740000006C6F673E206D6F743D
:102590006F7220582072696768742E0D0A0000005F
:1025A0007A646972000000006C6F673E206D6F7482
:1025B0006F72205A2075702E0D0A0000646F776EBE
:1025C000000000006C6F673E206D6F746F72205AC0
:1025D00020646F776E2E0D0A00000000787374651A
:1025E000700000006C6F673E206D6F746F72207812
:1025F0002073746570206F7665722E0D0A000000DE
:102600007A737465700000006C6F673E206D6F74A4
:102610006F72207A2073746570206F7665722E0D4C
:102620000A00000073657470706572006C6F673E1D
:10263000206D6F746F722058206D6F76653A256437
:102640002C205A206D6F76653A25642E0D0A000005
:1026500072657365740000006C6F673E207365746B
:1026600070656572206D6F746F722072657365742A
:1026700020626567696E6E696E672E0D0A00000044
:102680006C6F673E2073657470656572206D6F7442
:102690006F7220726573657420636F6D706C6974FE
:1026A000652E2E0D0A0000006D6F7665726F6164F5
:1026B000000000006C6F673E206D6F766520746FC0
:1026C00020726F61643A25640D0A00006D6F7665B3
:1026D0006261636B000000006C6F673E206D6F7677
:1026E0006520746F206261636B757020726F616426
:1026F0002E0D0A006D6F766573686F77000000001D
:102700006C6F673E206D6F766520746F2073686F05
:102710007720706F736974696F6E2E0D0A00000068
:1027200074657374000000006C6F673E207069630D
:102730006B757020676F6F647320726F61643A25E8
:10274000640D0A006C6F673E206572726F722066BE
:102750006F72206765742074686520676F6F6421ED
:102760000D0A00006C6F673E20726F6F6164256414
:1027700020636865636B20726573756C743A640DD1
:102780000A0000006761705F646F6F725F757000B0
:102790006C6F673E206761705F646F6F725F75700A
:1027A0000D0A00006761705F646F6F725F646F771E
:1027B0006E0000006C6F673E206761705F646F6F32
:1027C000725F646F776E0D0A000000006761705FD2
:1027D000646F6F725F73746F700000006C6F673EA0
:1027E000206761705F646F6F725F73746F700D0A42
:1027F00000000000636172676F5F6D6F746F725FDE
:10280000696E00006C6F673E20636172676F5F6D79
:102810006F746F725F696E0D0A000000636172670A
:102820006F5F6D6F746F725F6F7574006C6F673E72
:1028300020636172676F5F6D6F746F725F6F757425
:102840000D0A0000636172676F5F6D6F746F725F76
:1028500073746F70000000006C6F673E20636172DC
:10286000676F5F6D6F746F725F73746F700D0A00C6
:1028700068696768745F7465737400006C6F673EA5
:102880002068696768745F746573740D0A000000DE
:102890006F70656E5F726F61645F31006F70656E3F
:1028A0005F726F61645F32006F70656E5F726F613F
:1028B000645F33006F70656E5F726F61645F3400D8
:1028C0006F70656E5F726F61645F35006F70656E0B
:1028D0005F726F61645F36006F70656E5F726F610B
:1028E000645F37006F70656E5F726F61645F3800A0
:1028F0006F70656E5F726F61645F39006F70656ED7
:102900005F726F61645F3130000000006F70656E50
:102910005F726F61645F3131000000006F70656E3F
:102920005F726F61645F3132000000006F70656E2E
:102930005F726F61645F3133000000006F70656E1D
:102940005F726F61645F3134000000006F70656E0C
:102950005F726F61645F3135000000006F70656EFB
:102960005F726F61645F3136000000000146002035
:1029700000291CBF084601F00DBB704738B504465E
:1029800000255CB105E014F8011B0A20303900FB7A
:102990000515207801F019FB0028F4D1284632BD36
:1029A000B0B5054600241DB3287830280BD16878CF
:1029B000782818BF582806D1AD1C04E0A7F15700AD
:1029C00000EB04146D1C2F78380010D001F0FDFAD4
:1029D00010B1A7F13000F3E7A7F14100062838BF96
:1029E000A7F13700ECD3A7F161000628E6D3204613
:1029F000B0BD70B500230FF2003409E011F8016B8F
:102A000086EA202534F8155085EA002080B25B1C48
:102A10009DB29542F2D370BD01090A2200F00F0069
:102A200002FB0100C0B270470A2190FBF1F10A22BB
:102A300002FB110040EA0110C0B2704738B50446ED
:102A4000254600E06D1C2878010003D001F0C2FA91
:102A50000028F7D1FFE700202870204632BD002172
:102A600000281CBF0268002A0BD0DFF884120A6815
:102A700012B9086004E00A4691680029FBD1906011
:102A8000012108467047B0B5DFF864120D680446AE
:102A900092B0002000214DF82010401C1028FADBD5
:102AA0002078010005D001F0A9FA002808BF641CB5
:102AB000F6D001270094204602E04DF827007F1C45
:102AC000017891B1102F10DA01780A0018BF20297F
:102AD00004D0401CF8E7002100F8011B01780A002F
:102AE00001D02029F7D00029E7D100204DF8270098
:102AF00000E0AD685DB1012FFBDB2968204601F0E5
:102B00001BFA0028F5D16A6869463846904712B02A
:102B1000B0BD2DE9F04105460E464FF0FF380027C5
:102B200000E07F1CBFB23C4655F8240028B1314676
:102B300001F002FA0028F4D1A0464046BDE8F08139
:102B400081B0002101E00099491C00910099814267
:102B5000F9D301B0704767490A6812B90860704735
:102B60000A46824204D011690029F9D1016110613D
:102B700070470021C16070475E490968002000E08D
:102B8000096921B1CA688B689A42F9D3086870470D
:102B900058490968002000E0096951B14A68002AD3
:102BA000FAD0CA68521CCA60CA688B689A42F3D3CA
:102BB00008687047002918BF002A09D0531E134225
:102BC00006D10160436000218160C160012070472F
:102BD0000020704738B504460D4600F00EF86168D5
:102BE000884208D2E268206811404554E068401CE1
:102BF000E060012032BD002032BDC1688068081A43
:102C00007047C16881607047F8B50D4600261746C9
:102C1000002D18BF002F044611D0FFF7EEFFB84279
:102C200001D207465FB1A1686268206811407F1E2B
:102C3000405CA855761CA068401CA060F2E73046B6
:102C4000F2BDF8B50D4600261746002D18BF002F1F
:102C5000044614D0FFF7D1FF6168081A401CB8423F
:102C600001D207465FB1E168626820681140AA5D41
:102C700042547F1EE068401CE060761CF2E730465C
:102C8000F2BD70B504460D46FFF7B7FF002685423A
:102C900005D2A1686268206869181140465C304618
:102CA00070BD30B5002304E02C705B1C202401F8BB
:102CB000014B934215DAC45C24094D1C0A2CACBFAD
:102CC000373430340C70C15CCC0801EB1474240927
:102CD000A1EB0414E4B2691C0A2CACBF37343034C5
:102CE000E2E70D2008700A2048700020887030BD8F
:102CF000B44B0020B84B002000002110422063306C
:102D00008440A550C660E770088129914AA16BB143
:102D10008CC1ADD1CEE1EFF13112100273325222EB
:102D2000B5529442F772D662399318837BB35AA393
:102D3000BDD39CC3FFF3DEE36224433420040114BB
:102D4000E664C774A44485546AA54BB528850995E3
:102D5000EEE5CFF5ACC58DD553367226111630068B
:102D6000D776F6669556B4465BB77AA71997388733
:102D7000DFF7FEE79DD7BCC7C448E5588668A7784B
:102D80004008611802282338CCC9EDD98EE9AFF983
:102D9000488969990AA92BB9F55AD44AB77A966A2B
:102DA000711A500A333A122AFDDBDCCBBFFB9EEBD3
:102DB000799B588B3BBB1AABA66C877CE44CC55CFB
:102DC000222C033C600C411CAEED8FFDECCDCDDD23
:102DD0002AAD0BBD688D499D977EB66ED55EF44ECB
:102DE000133E322E511E700E9FFFBEEFDDDFFCCF73
:102DF0001BBF3AAF599F788F8891A981CAB1EBA1C7
:102E00000CD12DC14EF16FE18010A100C230E32042
:102E10000450254046706760B9839893FBA3DAB3EA
:102E20003DC31CD37FE35EF3B1029012F322D23292
:102E30003542145277625672EAB5CBA5A8958985BA
:102E40006EF54FE52CD50DC5E234C324A0148104E2
:102E50006674476424540544DBA7FAB79987B8978A
:102E60005FE77EF71DC73CD7D326F2369106B01632
:102E700057667676154634564CD96DC90EF92FE94A
:102E8000C899E9898AB9ABA9445865480678276882
:102E9000C018E1088238A3287DCB5CDB3FEB1EFB2A
:102EA000F98BD89BBBAB9ABB754A545A376A167AD2
:102EB000F10AD01AB32A923A2EFD0FED6CDD4DCDFA
:102EC000AABD8BADE89DC98D267C076C645C454C22
:102ED000A23C832CE01CC10C1FEF3EFF5DCF7CDFCA
:102EE0009BAFBABFD98FF89F176E367E554E745E72
:102EF000932EB23ED10EF01E01484068704700BFCD
:102F00000403002010B5DFF8E8440320207286B0E7
:102F1000012000F0D1F84FF4807204F1200104F197
:102F20001000FFF747FE68460FF2F451142201F03B
:102F30008DF80021684600F036FB4FF49070204475
:102F4000FFF78DFD0FF2BC41032000F090F806B0B2
:102F500010BD80B50FF2C441032000F088F800F0E6
:102F600067F90A2000F036FBF9E770B5044601F076
:102F7000F3F800250026DFF87C0450F8251019B975
:102F800040F82540AE1D02E06D1C082DF5DB01F078
:102F9000FCF8F0B270BD0A460146DFF85404007A2E
:102FA000C5E180B50A460146DFF84C04FFF72CFE68
:102FB00080B202BD80B5DFF84004FFF71EFE80B28C
:102FC00002BD0EB430B504464FF4807001F040F9F4
:102FD00005000CD003AB00F06AF8284600F0DAFFD9
:102FE00081B22846FFF7D7FF284601F0B6F930BC7A
:102FF0005DF810FB2DE9F84F81460026B9F1000F6E
:103000000D4632D0280030D0E80805EB10700009DA
:10301000B5EB001118BF012101EB15101FFA80FB61
:10302000332001F015F95FEA00081ED000240FF2EA
:10303000084A12E0AF1BBFB2112FA8BF10273A46B3
:1030400041464846FFF72DFE424631465046FFF7BF
:10305000B8FFBE19B944B6B2641CA4B25C45E9DB42
:103060004046BDE8F24F01F078B9BDE8F18F0CB4ED
:1030700038B50C46010017D0DFF87413897A814205
:1030800012D34FF4807001F0E3F805000CD004ABCC
:1030900000F00DF8284600F07DFF81B22846FFF7CA
:1030A0007AFF284601F059F931BC5DF80CFB224645
:1030B0004FF4807101F0A2B938B5CD4D0446E868EF
:1030C000844203D001F048F8EC600BE031BD38B524
:1030D000C74DA97A8842044603D001F03DF8AC728E
:1030E00000E031BDBDE8314001F04FB82DE9F04DB1
:1030F0000125BF4EE8B201F042FA5FEA000B68D04A
:10310000307A85420BF1010813D1404601F0A0F856
:1031100004005ED05A462146E8B201F04EFA002083
:1031200004F80B005A462146E8B200F057F8204652
:103130004DE0717AE8B2884206D101F05AFAB0F552
:103140007A7F28BF002430D2E8B201F018FA824614
:10315000BAF10B0F3DDBE8B201F04BFAB0F57A7F24
:1031600037D3002400E0641C544532DAA1B2E8B23F
:1031700001F015FA7328F6D1AAEB04000728F2DB58
:103180000027391989B2E8B201F009FAF0557F1C1D
:10319000062FF6DB0020B07130460FF2A82100F0B8
:1031A000CBFE0028DFD1002C13D4404601F050F8AC
:1031B00007000ED05A463946E8B201F0FEF9002069
:1031C00007F80B003919E8B200F06FF8384601F043
:1031D000C4F86D1C062D8DDBBDE8F08D70B5844EF6
:1031E0001546327A90420C460DD1F06818B1294646
:1031F0002046FFF7D0FE2A46214606F11000BDE822
:103200007040FFF71EBDBDE870404EE038B50400C9
:103210000DD000F0BFFE764D82B2287A2146FFF72E
:10322000DDFF287ABDE8384002226EA1D6E731BD25
:1032300070B56F4C04F11000FFF7DFFC86B29EB34F
:10324000711E04F11000FFF71CFD0D2818BF0A289D
:1032500021D1701C00F0FCFF05001CD0324629462D
:1032600004F11000FFF7D0FC86B20020A855A81981
:10327000801E41780D2912BF0A2900214170017872
:103280000D2912BF0A29002101702846FFF7FBFB18
:10329000284601F062F8B6F5807F05D104F11000F0
:1032A000BDE87040FFF7ADBC70BD70B504460E467A
:1032B00006220FF290114E4D304601F00BFC002813
:1032C00011D0697A8C4231D13046FFF7B7FB0FF24B
:1032D000C811304600F030FEF8B92C7213220FF2FC
:1032E00088111FE0761C3078010018BF2028F9D122
:1032F0003078010003D0202808BF761CF8D0304673
:10330000FFF79CFB0FF28811304600F015FE68B9FC
:103310006C7219220FF2341104E00020687213223B
:103320000FF258112046BDE8704000E070BD034622
:10333000084611461A000CD0062B04DA0A4601464C
:10334000184601F0BAB82B4A02EB830252F8182C47
:103350001047704770B50C460FF2481154F8040F2F
:1033600000F0EAFD88B965681FA100F047F808B9C8
:10337000012003E01DA100F041F808B9FFF79CFE11
:1033800062680FF22811032028E025680FF2381137
:10339000174E00F033F838B90FF234110320FFF75D
:1033A00066FE0320307270BD0FF2401100F026F867
:1033B00018B96068BDE8704028E70FF2381100F0D6
:1033C0001DF870B965682DB12846FFF7D7FAC0B26D
:1033D000FFF77DFEB27A0FF228110220BDE870409F
:1033E00045E670BD0D0A00006F6E00006F66660056
:1033F0000C000020B84A00201C000020284600F0E5
:103400009BBD00006C6F673E20436F6E736F6C65F1
:1034100020696E69742E0D0A000000006C6F673E13
:1034200020436F6E736F6C65207461736B207374CF
:103430006172742E0D0A00003078253034583A2518
:103440007300000073797374656D0000506C6561E2
:10345000736520696E707574207061737320776F67
:1034600072642E0D0A000000436F6E736F6C65204E
:103470006C6F67696E204F4B2E0D0A00506173739D
:10348000776F7264206572726F722E0D0A000000F1
:10349000524F4F5400000000313233343536373844
:1034A000000000006563686F000000006C6F673EFD
:1034B00020436F6E736F6C6520736574206563685D
:1034C0006F3A25732E0D0A006C6F676F75740000DC
:1034D0006C6F673E20434D442070697065207769AA
:1034E0006C6C2072657365742E0D0A0076697274B7
:1034F00075616C006C6F676C6576656C0000000030
:1035000077617272696E673E2053797374656D20BE
:103510006C6F67206C6576656C3A25642E0D0A0029
:10352000742A0108532F000800000000000000006A
:103530008001000038B5040001D1012032BD2068AF
:103540004CF6CC41016045F2555101606168416023
:10355000A1688160FFF7D0FC05462068C16831B1E1
:10356000FFF7CAFC401B3128F7D3032032BD4AF6CF
:10357000AA210160002032BD00684AF6AA2101603C
:10358000002070470021842818BFC11C08467047DE
:10359000EFF3058000B10120C0B2704780B501F0A3
:1035A00089FB002002BD3EB504460D46B4F9080073
:1035B000FFF7E8FF02A9019100902B4622692168DC
:1035C000606892B201F09CFA012801D000203EBD53
:1035D00002983EBD80B500B9012001F04EFB0020ED
:1035E00002BD012001F0B9BE38B5044600200090AC
:1035F0000CB9802032BD002511F1010F08BF4FF03A
:10360000FF3500F063F838B100F05BF8012807D10E
:1036100000F060F8002032BD00F04DF80128F9D02C
:10362000FF2032BD38B500F07EF860B16946204613
:1036300001F0CAFF012801D0FF2032BD009838B147
:1036400000F0D4F804E000F068F8012818BFFF2566
:10365000284632BD10B501290DD1032200210120D9
:1036600001F054FE040004D000230022002101F0E8
:10367000C2FE204610BD002010BD38B50446002013
:1036800000900CB9802032BD002511F1010F08BF58
:103690004FF0FF3500F01AF838B100F012F80128A9
:1036A00007D100F017F8002032BD00F004F801281F
:1036B000F9D0FF2032BD00232A460021204601F028
:1036C000C3BF6A460021204602F06CB801D001B1A8
:1036D0000D465DE7009838B149494FF080500860C9
:1036E000BFF34F8FBFF36F8F704738B500F01BF8F3
:1036F00060B16946204601F067FF012801D0FF2034
:1037000032BD009838B100F071F804E000F005F81F
:10371000012818BFFF25284632BD002300220021C2
:10372000204601F068BE00250446009530E7416858
:103730000068002201F0EABD32B582B004460020E4
:103740001546009005B90125FFF722FF58B1002367
:103750006A4602A9204601F0E5FE01280BD1FFF7D9
:10376000B9FF00203EBD00232A4602A9204601F0F1
:1037700042FE0128F5D0FF203EBD7FB504460D4630
:103780000020029501900DB9802026E0002612F15C
:10379000010F039008BF4FF0FF3600F023F870B11F
:1037A00003AA01A9284601F0FDFF01280CBF102043
:1037B00000200090039888B100F018F80EE0002374
:1037C000324601A9284601F03FFF012808BF10201A
:1037D00003D0002E0CBF00204020009068460EC889
:1037E0000EC47FBD01D002B11646D1E604494FF0A8
:1037F00080500860BFF34F8FBFF36F8F704700009A
:1038000004ED00E080B501F059FC012803D0BDE8CB
:10381000014000F0CCBC01BD042001F09EBD10B5FC
:1038200001F0ABFD0024012818BFFF24204610BD85
:1038300080B508B9802002BD002211F1010F08BF38
:103840004FF0FF3201D001B10A46114601F0AFFD41
:10385000012801D0FF2002BD002002BDF8B50446BA
:10386000022000F08CFE002507460A2F25DB00F021
:10387000EFFC060021D03A463146022000F09DFEC2
:10388000304601E0401C7F1E02787E2A04BF427849
:103890001B2ABFB201D0092FF4DA092F0ADBC17845
:1038A000122907D102690FF2180122600320FFF7E5
:1038B000DEFB0125304600F050FD2846F2BD000039
:1038C0006C6F673E207265616420524649443A2518
:1038D00023780D0A0000000000B585B068460FF29D
:1038E0004461142200F0B2FB00216846FFF75BFE42
:1038F000C348FFF7B4F80FF2A03100F04BF905B060
:1039000000BD10B5BF4C2046FFF725F92046FFF754
:1039100030F90FF29C3100F03DF92046FFF729F90C
:1039200000F030F81420FFF755FEF6E7B6480078AF
:103930007047B5488068704770B504460D46002151
:10394000002002F00BF901284FF0FF3615DB02F0E2
:1039500086F890B9AC4EFFF7CFFA70602946307800
:10396000401C3070204602F07EF8060005D032463A
:103970000FF254310320FFF77AFB304670BDA249A5
:10398000C86070472DE9FE4F00200290ADF804009A
:103990009D4E9E4C307804F2044538B194F90100F4
:1039A00020B901206070FFF7A7FA2860FFF7A4FA9A
:1039B0002968401A642804D3307810B10020307090
:1039C000607001A902A802F0C9F8824694F90000CB
:1039D000DFF83C82504502BF029808F1040188429A
:1039E00002BFBDF80400B8F8B410884203D084F8D0
:1039F00000A00020B06001A902A802F0AFF838B919
:103A0000B06008F10400B8F8B41002F068F8BAE049
:103A1000B06869680FF25C370FF24C3908431ED169
:103A20000120686008F10403B8F8B4000FF2B42173
:103A3000009052460320FFF71AFB0FF2143100F0FA
:103A4000A9F803F0B7FC5FEA000A42D000F0D2F810
:103A500000F09BF85146384603F0D0FC39E0FFF700
:103A60004BFA71684CF2503B401A58451ED3FFF791
:103A700043FA70600120686003200FF20031FFF705
:103A8000F6FA03F097FC5FEA000A0FD000F0B2F8F4
:103A900000F07BF85146384603F0B0FC002814BF14
:103AA0000FF2F0210FF2143100F074F8686880B161
:103AB000FFF722FA7168401A58450AD3FFF71CFA3B
:103AC00070600020B060686003200FF24C21FFF7A7
:103AD000CEFA40F2FF31201D01F0D5FF0746012F3D
:103AE00051DB3A460FF24C210320FFF7C0FAE119EF
:103AF00000200871F268100002D0B9B2201D904772
:103B0000686800283FD0201D02F0FCFF0027040059
:103B100039D00FF2543103F0DEFB81460FF25431FD
:103B2000204603F0D8FBB9F1000F24D0D9F80C10CF
:103B3000042920D1F8B1006908F1240100F0FCF952
:103B4000C8B90FF23C31204603F0C5FB80462BA1DB
:103B5000204603F0C0FB002818BFB8F1000F0AD0C0
:103B600000690FF2243100F0E7F920B90FF220319B
:103B700000F010F80127204602F03CFC1FB10120A4
:103B8000B06000206860BDE8F78F024649465046A5
:103B900003F0BEBB0320FFF76ABA10B50FF2442151
:103BA000FFF7F8FF03F006FC040022D04FF00050AE
:103BB000184903F0DFFB02460FF24021204603F0D4
:103BC000A7FB00F017F802460FF23821204603F059
:103BD0009FFB21460FF2342003F010FC0028BDE8C3
:103BE000104014BF0FF22C210FF254210320FFF7D5
:103BF0003EBA10BD0020084903F0BCBB636D6400F1
:103C00003407002040070020544B0020A83E00202D
:103C1000B8450020D01263410000F03F38B50C4693
:103C20000FF2E81154F8040F00F086F930B90FF2E2
:103C30007C21FFF7AFFFBDE83140AEE725680FF20A
:103C40008C21284600F078F938B90FF28821FFF767
:103C5000A1FFBDE8314003F0BDBD0FF29821284619
:103C600000F06AF938B90FF29421FFF793FFBDE82D
:103C7000314003F05DBD0FF2A421284600F05CF94D
:103C800040B96468204600F085F981B22046BDE85D
:103C9000344051E631BD00006C6F673E2050726FBA
:103CA000746F636C20696E6974204F4B2E0D0A008F
:103CB0006C6F673E20544350207461736B207374A3
:103CC0006172742E0D0A00006C6F673E20544350E1
:103CD0002073656E6420646174612C2072633A25E0
:103CE000640D0A006C6F673E2053797374656D2014
:103CF000736F636B657420706174683A25642C205F
:103D00007365727665723A25732C20706F72743AFF
:103D100025752E0D0A0000006C6F673E20686561F6
:103D20007274626561742074696D656F75740D0AD3
:103D3000000000006C6F673E2054435020726561A4
:103D40006420646174612C2072633A25640D0A005A
:103D50006C6F673E20446F2054435020636F6E6E3B
:103D60006563742E0D0A0000686561727462656196
:103D700074000000434D442D313030006C6F673EBD
:103D80002073656E64206865617274626561742E6B
:103D90000D0A00006C6F673E2053656E64486561D4
:103DA0007274426561742073656E6420646174612D
:103DB0002073756363657373210D0A006C6F673E32
:103DC0002053656E64486561727442656174207346
:103DD000656E642064617461206572726F72210D7A
:103DE0000A0000006C6F673E2066696E6973682088
:103DF00070726F63657373210D0A000062616769F9
:103E000064000000726573756C740000434D442DAE
:103E1000313033006C6F673E2066696E6973685F8E
:103E200070726F636573732073656E642064617470
:103E3000612073756363657373210D0A00000000D0
:103E40006C6F673E2066696E6973685F70726F633E
:103E50006573732073656E6420646174612065729C
:103E6000726F72210D0A00006D6573736167656979
:103E700064000000646576696365696400000000A1
:103E80006465736972656400434D442D39390000DF
:103E90006C6F673E20686561727462656174207240
:103EA0007370204F4B2E0D0A000000006C6F673EB0
:103EB00020434D442D3130332073656E642073757B
:103EC0006363657373210D0A00000000434D442DA8
:103ED000313034006C6F673E20434D442D31303417
:103EE0002073656E642073756363657373210D0AB7
:103EF00000000000434D442D313035006C6F673EAB
:103F000020434D442D3130352073656E6420737528
:103F10006363657373210D0A000000007465737498
:103F2000000000005C2901080339000800000000BF
:103F30000000000080010000820707D010F8012B6C
:103F400011F8013BBAB19A42F6D014E002680B684E
:103F50009A42A2F1013301BF934313F0803F50F81E
:103F6000042F51F8043FF3D010F8012B11F8013B56
:103F70000AB19A42F8D0D01A70478268521C826007
:103F8000426832B10268531C036011704168491ED7
:103F90004160704700F10103810704D010F8011B54
:103FA00089B18107FAD10268B2F10131914311F070
:103FB000803F04BF50F8042FF6E710F8011B11B141
:103FC00010F8011BFBE7C01A704730380A288041FF
:103FD000C00F704710B50446A4F120005F280BD332
:103FE000204603F033FE38B9204603F039FE401E68
:103FF0008041C043C00F10BD012010BD10B5044664
:10400000202C11D0A4F120005F280BD3204603F010
:104010001DFE38B9204603F023FE401E8041C043F8
:10402000C00F10BD012010BD002010BD62B38B0772
:1040300008D0521E11F8013B00F8013B00F024802B
:104040008B07F6D1830740F0208000BF103A07D3DA
:1040500030B4B1E83810103AA0E83810F9D230BCCA
:10406000530724BFB1E80810A0E8081044BF51F876
:10407000043B40F8043BD20724BF31F8022B20F860
:10408000022B44BF0B7803707047083A07D3B1E89E
:104090000810083A40F8043B40F804CBF7D2530725
:1040A000E4E70268531C036011707047490810B5BB
:1040B0004900A0F10C034FF0807459609C600FF22E
:1040C0000D01196040F8202D203810BD5249496873
:1040D000502011F1010F06D080F31188BFF34F8FEC
:1040E000BFF36F8FFEE780F31188BFF34F8FBFF3ED
:1040F0006F8FFEE71CB54948474C01780191FF21BD
:10410000017001788DF800109DF8001001F0500149
:104110002170072105E09DF800205200491E8DF80E
:1041200000209DF800201206F5D4090201F4E06198
:10413000A160019901703A48016841F47001016081
:10414000016841F07041016000F072F80020606089
:1041500003F0CDFD002016BD502080F31188BFF381
:104160004F8FBFF36F8F2C494A68521C012A4A6057
:104170000AD12C490968090606D080F31188BFF3DB
:104180004F8FBFF36F8FFEE770472348416839B9FF
:10419000502080F31188BFF34F8FBFF36F8FFEE77E
:1041A000491E416004BF002080F31188704780B52C
:1041B000502080F31188BFF34F8FBFF36F8F00F053
:1041C000FBFD18B117494FF080500860002080F3C4
:1041D000118801BDEFF30580502110280E4A0BD342
:1041E000114B185C1378984206D281F31188BFF303
:1041F0004F8FBFF36F8FFEE790680C4A126802F48E
:10420000E062904206D281F31188BFF34F8FBFF373
:104210006F8FFEE7704700009402002000E400E08A
:1042200020ED00E004ED00E0F0E300E00CED00E044
:104230000549064809684FF47A72B1FBF2F1491E4C
:1042400041600721016070473007002010E000E066
:104250002DE9F041044600F058FD674EB068002596
:1042600008BB06F1180306F1180213F007034FF418
:104270003051104605D0D01DC008C000C0F53051E7
:10428000511809180839C908C90030607560B16053
:104290004D600D600A1A4260016040683061F06054
:1042A0004FF0004070614FF05008706904423FD1F8
:1042B000002C3DD0083414F0070F1FBF04F1080094
:1042C00004F00701441A14F0070F00F03DF87CB326
:1042D000F068A0422CD33768304601E038460F46DC
:1042E0007968A14202D239680029F7D1B1688F42BA
:1042F0001ED0016801F10805396801607868011B6A
:10430000112908D3381910F0070200F01DF8416098
:104310007C6000F04EF87868F1683269091AF16043
:10432000914238BF3161716908437860002038607C
:1043300000F0F1FC0DB903F02BFD15F0070000F0C3
:1043400003F82846BDE8F08106D088F31188BFF352
:104350004F8FBFF36F8FFEE7704738B5F0B1A0F114
:104360000804254D606869695022084202D100F0B6
:1043700016F8FEE7236813B100F011F8FEE7884352
:10438000606000F0C2FCE86861680818E8602046D8
:1043900000F00FF8BDE8314000F0BDBC31BD82F344
:1043A0001188BFF34F8FBFF36F8F70471248C068FB
:1043B000704730B510490A4600E01A461368834238
:1043C000FBD35368D418844203D14068C0185060AE
:1043D000104643681468C518A54208D189688C4204
:1043E00004D06168C9184160246800E00C4604608C
:1043F000824218BF106030BD9012002008B584B012
:104400000023029311B90093019302E00090481E2B
:10441000019004AB694607487844183003F018FD52
:10442000009911B1009A00211170002858BF02981C
:1044300005B000BD47FBFFFF2DE9F041DFF84475F3
:104440000646F86B0C46154628B907F17C00FEF7C6
:1044500006FB0120F86330002DD0062E2BDA280051
:1044600029D0681E284226D12846FFF7F1FE5FEAD0
:10447000000820D0761EF6B207EB860707F1680029
:104480003C60FFF7AEF8B862012107F15400FFF776
:10449000E1F878614FF0FF31FFF7EFF8DFF8E8045B
:1044A0002A46414600EB0610FEF784FB2068C168EF
:1044B00041F02001C160BDE8F0812DE9F04100F03C
:1044C00092F824D0062C22DA0DB332001FD0DFF888
:1044D000B40400EB840808F110074FF0FF3178694D
:1044E000FFF782F8641E032C58F8040C3246294664
:1044F00002D804F031FE01E004F00BFE38684FF002
:10450000FF31FFF7BAF87869FFF78CF83046BDE85D
:10451000F08138B51446020010D006280EDA69B1D1
:1045200022000BD0DFF85C5405EB80004FF4FA63F7
:1045300050F8040C04F092FD204632BD002032BD3C
:104540000CB410B5044600202200ADF5007D11D05A
:10455000062C0FDA71B10A4682AB4FF4007168463F
:10456000FFF74CFF6846FFF715FD82B2694620460B
:10457000FFF7CFFF0DF5007D10BC5DF80CFB014689
:1045800080B500200A0008D0062906DADFF8F80313
:1045900000EB01101038FEF730FB80B202BD02467E
:1045A0000020130008D0062A06DADFF8DC0300EB4F
:1045B00002101038FEF765BB704770B500F013F8B5
:1045C0000FD0062C0DDA65B131000AD000F088F862
:1045D000DFF8B40300EB0410324629461038FEF72A
:1045E00013FB80B270BD04460D4600202100164624
:1045F000704710B50446002021000DD0062C0BDAC0
:10460000FEF77AFCDFF87C1301EB8401C96B401ADA
:10461000B0F57A7F88BF002010BD020000D170473E
:1046200010B5062816DAD74A02EB800454F8040CB9
:10463000426891420ED00268D36823F02003D36011
:10464000416004F0D3FC54F8040C0068C16841F0E8
:104650002001C16010BDF8B506460F46062EB8BF52
:10466000062F1CDAFFF778FDC84DC74C2E746F7407
:104670003EB104EB0611284600F02EF82846FEF75E
:10468000C0FA47B1C24E04EB0711304600F024F8DF
:104690003046FEF7B6FABDE8F140FFF776BDF1BD52
:1046A00038B50D460446062DB8BF062C13DAFFF7C1
:1046B00053FDB6488574C4744DB1B349B54C01EB94
:1046C0000511204600F008F82046FEF79AFABDE8EA
:1046D0003140FFF75ABD31BD10391022FFF7B6BC8B
:1046E0002DE9F84F00250FF2C426DFF89C8208EB75
:1046F00005173846FEF781FA79686C1C80B2491CB0
:10470000884204D1E0B2FFF774FF642809D238462A
:10471000FEF773FA68B1E0B2FFF76BFFB0F57A7F8E
:1047200007D33846FEF76DFA6A1C31460220FEF7C1
:104730009EFC6D1C052DDADBDFF85892934F0025A7
:1047400000E06DB9B87C01001CBFFE7C002E14D0C7
:1047500008EB00104C4650F8040CC9F80C0018E0A7
:10476000012D0AD1387C010007D008EB00103C462F
:1047700050F8040CF8607E7C0BE0022D25D1787C8B
:10478000010022D008EB0010814C50F8040CE060CE
:104790003E7CD4B12046FEF730FA1FFA80FABAF117
:1047A000000F12D05046FFF753FD5FEA000B0CD00C
:1047B000524659462046FEF727FA82B259463046FD
:1047C000FFF77BFE5846FFF7C8FD6D1C032DB8DBD5
:1047D000BDE8F18FF8B505466A4800EB850656F846
:1047E000044CF4B120680168890602D5C1688906C5
:1047F00002D40168090714D54768FEF77DFBF06312
:10480000F9B2614800EB05101038FEF7E3F900201B
:104810000090206801680091406800900098012095
:10482000F2BD0020F2BD0021564A52F821309842D4
:1048300002D0491C0529F8DB052906DA02EB8100C4
:104840004069002818BFFEF750BF70472DE9F84FA8
:1048500004460F460FF2A4180FF27C190FF2201A2B
:1048600016E00FF23C2100F09EF878B900F094F8C1
:1048700000F095F80646F1B2E8B2FFF711FF3346B3
:104880002A460FF224210320FEF7F1FB3F1D641E90
:10489000012C71DB3D68002D6ED0514600F083F88D
:1048A00078B900F079F800F07AF8064633462A46DF
:1048B00049460320FEF7DBFB3146E8B2FFF7ADFEC9
:1048C000E4E7414600F06FF880B900F065F805466E
:1048D000B868FEF74BF80646B968B2B2E8B2FFF71F
:1048E000ECFD33462A460FF21C11CCE70FF23811CB
:1048F00000F059F860BB00F04FF80546C0B2FFF772
:104900003EFE06001DD0FFF7A3FC5FEA000BBDD002
:1049100032465946E8B2FFF750FE33462A460FF2B8
:1049200010110320FEF7A3FB31465846FEF733FB78
:104930000FF218110320FEF79AFB5846FFF70DFD02
:10494000A4E72A460FF214110320FEF790FB9DE71F
:104950000FF2201100F027F8002882D100F01CF897
:1049600000F01DF80646F1B2E8B2FFF774FE3346D8
:104970002A460FF2081186E7BDE8F18F000000001B
:104980006264720054070020D0480020104B0020C1
:10499000644B0020744B00207868FDF7EFBF05469C
:1049A000B868FDF7EBBF2846FFF7C6BA77617272A9
:1049B000696E673E205541525425752072656365C6
:1049C000697665206669666F206F766572666C6FC2
:1049D000772E0D0A000000006C6F673E2055415293
:1049E0005425642062617564726174652063686136
:1049F0006E6720746F2025642E0D0A0073656E6447
:104A0000000000006C6F673E205541525425642021
:104A100073656E642064617461206C656E67746890
:104A20003A25640D0A000000726561640000000010
:104A30006C6F673E20554152542564207265616455
:104A40002073697A653A25640D0A00006C6F673E31
:104A50002020203C656E642E0D0A00006C6F673EBE
:104A600020554152542564206E6F20646174612E7C
:104A70000D0A000072656D61700000006C6F673E8A
:104A8000205541525425642072656D617070696EC5
:104A90006720746F205541525425642E0D0A000082
:104AA0006D6F6E69746F72006C6F673E2055415276
:104AB000542564206D6F6E69746F72205541525495
:104AC0002564207265636569766520646174612E72
:104AD0000D0A000010B401E0491C521E6AB10B78A7
:104AE00004789C4205D010BC2CBF01204FF0FF3051
:104AF000704710F8013B002BEED110BC002070472E
:104B00002DE9F0430446154685B088469946A8002D
:104B1000FFF79EFB06001AD05420FFF799FB070011
:104B200012D03E630020039002974B460D980190EF
:104B30002A460C9800904146204600F00DF8384671
:104B400000F046F8012004E03046FFF706FC4FF085
:104B5000FF3005B0BDE8F0832DE9F8430A9C80469C
:104B6000206B00EB8200001FC708FF00994607F08A
:104B700007000A5C231883F834200A5C12B1401C39
:104B80001028F6D3002084F8430004F14405089E61
:104B9000072E28BF0626E6622E606860201D04F0FE
:104BA0001EFD04F1180004F01AFDC6F10700A06113
:104BB000246164620020A86028734A464146384652
:104BC000FFF774FA2060099800B10460BDE8F18332
:104BD0002DE9F0410446FFF7BFFADFF83856DFF859
:104BE0003886E86C401CE8641426A86A28BBAC62CE
:104BF000E86C012827D1002706FB07F0404404F0A9
:104C0000E1FC7F1C072FF7D305F1740004F0DAFCF8
:104C100005F18807384604F0D5FC284604F0D2FC9C
:104C200005F1140004F0CEFC05F1380004F0CAFCD4
:104C300005F17400E8622F6305E0A86D18B900F073
:104C400034F828BFAC62A86E401CA8660122E06A56
:104C5000696D824011436965704300F00AF8FFF7FF
:104C600094FAA86D18B1A86AE16A00F0C1FABDE82B
:104C7000F081211D404404F0B5BC10B504000DD0F6
:104C8000DFF80006006F00F0F2F800F03EF80021B7
:104C9000204600F0C3FA00F03EF808B900F0ACF985
:104CA00010BD502080F311887047E06AA96AC96A74
:104CB000884270471CB5DFF8CC450FF2D05104F1A3
:104CC0009C00019000230020009064220FF24930E4
:104CD000FFF716FF502101280FD181F3118800F052
:104CE00090F94FF0FF30E0660120A06500202065BC
:104CF000BDE81340FFF7FEB913BD10F1010FFBD162
:104D000081F3118800F07DF9FEE7DFF87805016F87
:104D1000491C0167704770B5DFF86855286F002699
:104D2000002400F03FF8FFF717FA286F401E2867AD
:104D3000286F002835D1E86CD0B932E0E868C66841
:104D400006F1180004F073FC301D04F070FCF06AEA
:104D5000696D0122824000F057FA311D104404F0C1
:104D600041FCF06AA96AC96A884224BF012028660A
:104D700028680028E2D10EB100F08EF9EE6D3EB148
:104D800000F01AF808B101202866761EF8D1EC650B
:104D9000286E30B1DFF8F0144FF08050012400F09D
:104DA0002FF925E138B9502080F31188BFF34F8FD8
:104DB000BFF36F8FFEE770472DE9F843DFF8C44477
:104DC000206F0025002847D1206D10F10109C4F89B
:104DD00050900CD1E06A006800F049F8E06A216B5D
:104DE000E1622063606E401C606600F055F9E06E81
:104DF000DFF824841427814523D315E0301D04F007
:104E000016FCB06A18B106F1180004F010FCF06A44
:104E100000F0ACF87843311DFFF72CFFF06AA16A6F
:104E2000C96A884228BF0125E06A006810B94FF0BE
:104E3000FF3005E0E06AC068C66870688145DDD271
:104E4000E066A06AC06A784358F800000228E06D66
:104E500028BF012528B902E0E06D401CE06502F0A2
:104E60006FFF206E00B101252846BDE8F28338B1FE
:104E7000502080F31188BFF34F8FBFF36F8FFEE791
:104E8000704710B5DFF88C43206F10B10120206609
:104E900010BD2066A06A006BA16A0968884205D32C
:104EA000A06A00F13401A06A02F0B6FF606DB0FAAA
:104EB00080F0C0F11F0014214843DFF85C130A584A
:104EC00022B9FFF7EEFE00F09CF8FEE7084400F17F
:104ED0000802416849684160914204BF49684160E5
:104EE0004068C068A06210BD10B50C46FFF75AFFBD
:104EF000DFF82013896A183104F080FB2046BDE8F2
:104F00001040FFE7012189E138B5C068C46824B9C1
:104F1000FFF7C7FE00F075F8FEE704F1180004F093
:104F200086FBDFF86053286F20B900F054F900F0D9
:104F300010F802E004F11801284604F053FBA86AB7
:104F4000E16AC06A884202D20120286632BD002090
:104F500032BDE06A696D0122824011436965142304
:104F6000DFF8B4225843211D10447047616D0122BF
:104F7000824011436165704738B9502080F3118831
:104F8000BFF34F8FBFF36F8FFEE7DFF8F8124A6E63
:104F90000260096D4160704770B504460D465020AF
:104FA00024B980F3118800F02CF8FEE725B980F3CE
:104FB000118800F026F8FEE7FFF7CEF8DFF854027C
:104FC000016D2A6812F1010F0FD06368406E2668E8
:104FD000B04201D099420AD2C81A904207D2501A60
:104FE000181828602046FFF7C7FF002400E00124BE
:104FF000FFF7CBF8204670BDDFF88C124FF08050E1
:105000000860BFF34F8FBFF36F8F7047DFF87412E4
:10501000012008667047000070B5DFF8FC41DFF83A
:1050200064521AE0FFF771FE6869461EB641FFF749
:1050300072FEF60F8EB9FFF78FF8286AC668301D2A
:1050400004F0F5FAE86C401EE864686B401E686383
:10505000FFF79BF8304600F015F8686B0028E1D1A7
:105060002068022800F003F802F052FEF5E708D3AA
:10507000DFF814124FF080500860BFF34F8FBFF37A
:105080006F8F704710B50446206BFFF766F9204616
:10509000BDE81040FFF761B9DFF8E801C16A0968AF
:1050A00011B94FF0FF3103E0C16AC968C9684968A6
:1050B000C1667047DFF8CC01806A7047DFF8C40131
:1050C000816D09B901207047006F08B9022070474F
:1050D000002070472DE9F041040037D0DFF834514B
:1050E000FFF7E3FD32D2A069002804D4A86AC06AA1
:1050F000C0F10700A0611427E16A474E6069794357
:10510000314488421FD100F066F8002801BFE06AF0
:105110007843305800284FF0010805D1686DE16AE6
:1051200008FA01F188436865A86AC06AE06208FA73
:1051300000F2696D114369657843211D3044BDE873
:10514000F04104F04FBAA86AC06AE062BDE8F0819D
:105150002DE9F04104460020002C3AD02D4DAA6ADA
:105160005021944204D081F31188FFF74AFFFEE7F3
:10517000A26C22B981F31188FFF743FFFEE7636C4D
:10518000511EE26AA1649A4223D011BB00F023F8B9
:1051900001261427DFF88080002801BFE06A7843E9
:1051A00058F80000002805D1686DE16A06FA01F19F
:1051B00088436865606CE062C0F10700A061E06A46
:1051C000696D06FA00F2114369657843FFF751FDF6
:1051D0000120BDE8F081201D04F029BADFF8A40009
:1051E000816A19B1816A8A6C521C8A64806A70472C
:1051F000C06A884207D224494FF080500860BFF34C
:105200004F8FBFF36F8F7047114369651423024AB4
:10521000584370477446002014470020F8B5194CD5
:10522000256D0646A06A0F46001D04F000FA40B93D
:10523000A06A616DC06A012202FA00F021EA000052
:10524000606516F1010F08D13FB1A06A011D04F19C
:105250003800BDE8F44004F0C5B9A06A761946608C
:10526000AE42A06A05D2011D206BBDE8F44004F0F7
:10527000C5B9011DE06A04F0C1F9E06E864238BF8D
:10528000E666F1BD7446002004ED00E049444C455B
:105290000000000038B504000D4602D100F0A3F86C
:1052A000FEE7FEF759FFE16B226C2068514308448A
:1052B00060600020A0632068E16B226CA060491E42
:1052C000206851430844E0604FF0FF3104F144008E
:1052D0000170417075B92069A0B104F11000FFF7A9
:1052E00013FE78B1DFF858164FF08050086000F0D8
:1052F00054FA07E004F1100004F064F904F124000A
:1053000004F060F9FEF741FF012032BDF8B504005A
:105310000D46164602D100F066F8FEE7002D0EBFDE
:10532000482005FB04F04830FEF792FF070007D045
:105330000097334607F148022946204600F002F85C
:105340003846F2BD82B0029B01B91A461A60D86392
:1053500019641846012102B09CE710B502460021ED
:105360000120FFF7D3FF040005D00020606020601B
:10537000E06000F017F8204610BD10B5040002D11F
:1053800000F031F8FEE7FFF795FE6168814207D132
:10539000E068401EE06001D100F004F8012010BD7B
:1053A000002010BD002300220021204623E038B554
:1053B00004000D4602D100F016F8FEE7FFF77AFE72
:1053C0006168814204D1E068401CE060012032BD88
:1053D00000232A460021204600F036F910B1E1688A
:1053E000491CE16032BD502080F31188BFF34F8F1C
:1053F000BFF36F8F70472DE9F74F8046002450258B
:10540000B8F1000F8B461E4600F0D5F8BBF1000F37
:1054100008F1240701D1F86960B9022E02D1B869F8
:1054200001280AD1FFF74AFE78B9029868B100F066
:10543000B2F9FEE700F0AFF9FEE700F0ACF9FEE7E5
:10544000404600F03EFAFFF766FCFEF785FE7869FD
:10545000B969DFF8EC9488424FF0805A01D3022EEC
:1054600014D132465946404600F0E4F9396821B17A
:105470003846FFF749FD08B904E018B1C9F800A0A3
:1054800000F08BF9FEF781FE012049E0029810B987
:10549000FEF77BFE43E01CB96846FFF76DFD012473
:1054A000FEF773FEFFF731FCFEF756FE08F14400ED
:1054B00090F9001011F1010F04BF0021017090F963
:1054C000011011F1010F04BF00214170FEF75DFED4
:1054D00002A96846FFF760FDE0B9FEF73DFE786976
:1054E000B96988420CBF01250025FEF74EFE002D4C
:1054F000A6D0029908F11000FFF7F6FC404600F034
:10550000E0F9FFF708FC00289FD1C9F800A000F0DF
:1055100044F99AE7404600F0D4F9FFF7FCFB00207D
:10552000BDE8FE8F2DE9F04780465025B8F1000F09
:10553000894616461F4600F03EF8B9F1000F08F103
:10554000240401D1E06930BB022F02D1A0690128F7
:1055500024D1FEF73FFEEFF3118A00F01CF96069D9
:10556000A169884201D3022F20D198F945503A46CB
:105570004946404600F05EF915F1010F11D120684F
:1055800090B12046FFF7C0FC002818BF002E0BD0BA
:105590000120306008E000F0FEF8FEE700F0FBF8C4
:1055A000FEE7681C88F84500012000E000208AF32F
:1055B0001188BDE8F08706D185F31188BFF34F8FBE
:1055C000BFF36F8FFEE77047F8B504460D465027CE
:1055D00024B987F3118800F0E0F8FEE7206C20B1D1
:1055E00087F3118800F0D9F8FEE7206808B96068F1
:1055F000E0B9FEF7EFFDEFF3118687F3118800F0B5
:1056000013F9E16B88421BD294F94510401C11F14B
:10561000010FA0630FD1606A80B100F0B8F80028D4
:1056200018BF002D0AD00120286007E087F31188F9
:1056300000F0B3F8FEE7481C84F84500012000E0C4
:10564000002086F31188F2BD2DE9F44783B00446AB
:105650000D4699460026502724B987F3118800F09B
:105660009CF8FEE70DB9206C48B9FFF727FD80B91B
:10567000039870B187F3118800F08FF8FEE787F385
:10568000118800F08AF8FEE7204600F01AF9FFF7CB
:1056900042FBFEF761FDA76BDFF8A4A24FF0805834
:1056A0000FB300F0BDF8B9F1000F0ED1781EA06362
:1056B000206810B9FFF792FD6060206978B104F1AD
:1056C0001000FFF721FC30B909E0E660606A30B1F4
:1056D00000F05DF818B1CAF8008000F05EF8FEF73F
:1056E00054FD012050E0039810B9FEF74EFD4AE04A
:1056F0001EB96846FFF740FC0126FEF746FDFFF79E
:1057000004FBFEF729FD04F1440090F9001011F1AB
:10571000010F04BF0021017090F9011011F1010F78
:1057200004BF00214170FEF730FD03A96846FFF772
:1057300033FC002820461DD100F0F6F80028A3D045
:10574000206830B9FEF708FD6068FFF7C3FCFEF77C
:105750001CFD039904F12400FFF7C6FB204600F06E
:10576000B0F8FFF7D8FA002893D1CAF8008000F00B
:1057700014F88EE700F0A5F8FFF7CDFA204600F008
:10578000D3F8002885D0002004B0BDE8F08704F1EC
:105790002400FFF7B9BB85F31188BFF34F8FBFF328
:1057A0006F8F70472DE9F04704468946164650250D
:1057B00014B9FFF7F0FFFEE7B9F1000F04F110078D
:1057C00001D1386B60B9FEF705FDEFF31188FFF7E3
:1057D000E2FFBD6A3DB9002088F31188BDE8F0877B
:1057E000FFF7D9FFFEE794F944A04946204600F0B0
:1057F00055F8681E1AF1010FB8620BD1386868B10C
:105800003846FFF781FB002818BF002E06D0012084
:10581000306003E00AF1010084F844000120DBE776
:10582000E6682946204639E0BFF34F8FBFF36F8FFC
:10583000A06B7047F8B504461746A56B226C00268E
:1058400042B9206830BB6068FFF782FC0646002042
:1058500060601FE067B9A068FEF7E8FBA068216CF4
:1058600008446168A060884214D32068A06011E0F9
:10587000E068FEF7DBFB206CE16840420144E16038
:105880002268914202D261680844E060022F01D18F
:1058900005B16D1E681CA0633046F2BD10B5026CE8
:1058A0000B466AB1C16844681144C160A14224BF7B
:1058B0000168C160C168BDE810401846FEF7B6BB7C
:1058C00010BDF8B50446FEF747FC04F1440504F1A9
:1058D000100795F9016005E0FFF759FF08B1FFF7E0
:1058E00095FB761E76B2012E02DB78690028F3D193
:1058F0004FF0FF346C70FEF748FCFEF72DFC95F975
:10590000006006E03846FFF7FFFA08B1FFF77EFBBC
:10591000761E76B2012E02DB38680028F2D12C7098
:10592000BDE8F140FEF731BC10B50446FEF714FCAB
:10593000A06B441EA441FEF728FCE00F10BD000040
:1059400004ED00E0BFF34F8FDFF8F405DFF8F42536
:10595000016801F4E06111430160BFF34F8F00BFA4
:10596000FDE710B5DFF8E04584B0206840F08050D6
:105970002060206800F0805002900298206840F07B
:1059800000602060206800F000600290029803F040
:1059900061FE684600F058F9A068800004D5BDF8A3
:1059A0000200401CADF80200A068C00004D5BDF89C
:1059B0000400401CADF80400A068000104D5BDF847
:1059C0000600401CADF80600A068400104D5BDF8F3
:1059D0000000401CADF800000120DFF87015DFF872
:1059E00070450860BDF80210DFF868058160BDF8F9
:1059F0000010C160BDF806100160BDF804104160E0
:105A000003200FF27851FDF732FB0FF2A85100F09E
:105A100018F84FF4806204F11401201DFDF7CAF854
:105A20000FF2BC500068029002A8FDF7DAFD20607A
:105A300004F21440FDF713F80FF2A85100F001F83A
:105A40001FBD0320FDF713BB10B50446FEF784FB12
:105A5000DFF804050460BDE81040FEF796BBDFF8F0
:105A6000F8040068704738B504460D4600F034F875
:105A70000D2803D12946204603F088FE0128B8BF2F
:105A80004FF0FF3032BD70B5DFF8C46404460D46F8
:105A900000F01DF82A462146301DFDF7B5F80446F2
:105AA0003068FDF7BFFD24B2012C05DB2A460FF25A
:105AB00048510420FDF7DBFA200006D100F00CF875
:105AC00010F1010F08BF4FF0FF34204670BD306861
:105AD0004FF0FF31FDF788BD002100203EE070B59A
