:020000040800F2
:100000009012002051280108A9250108AB250108FC
:10001000AD250108AF250108B12501080000000049
:10002000000000000000000000000000FFA5000824
:10003000B325010800000000B9A50008B525010896
:10004000D1280108D5280108D9280108DD28010890
:10005000E1280108E5280108E9280108ED28010840
:10006000F1280108F5280108F9280108FD280108F0
:10007000C3250108012901080529010809290108EA
:100080000D290108C92501081129010815290108B0
:10009000192901081D29010821290108252901081C
:1000A000292901082D2901083129010835290108CC
:1000B000392901083D29010841290108452901087C
:1000C000492901084D29010851290108552901082C
:1000D000592901085D290108CF250108E5250108F6
:1000E0006129010865290108692901086D290108AC
:1000F0007129010875290108792901087D2901085C
:100100008129010885290108892901088D2901080B
:100110009129010895290108992901089D290108BB
:10012000A1290108A5290108A9290108AD2901086B
:100130004FF4E07210440268914203D343681A44BA
:10014000914202D380680028F5D17047DFF85C0740
:10015000016891B94FF4803181604FF48051416062
:100160004FF0FF31C16001610421DFF84427416194
:10017000C2F8BC11DFF83C1701600120704701F1A3
:10018000080313F0070305D001F10803C3F10803C6
:1001900003F007031944D21A8161C26042F00103DF
:1001A0004B60114428234B60DFF800170969C161D7
:1001B00070472DE9F84F064601F1080010F00700DE
:1001C00008BF884607D001F10800C0F1080000F020
:1001D000070001EB000802F1080010F0070006D04C
:1001E00002F10800C0F1080000F0070002441546C3
:1001F000A5EB0800A0EB030908EB030B43F0030099
:10020000C8F80400AB4528BF01F00CFA2879C007F4
:1002100058BF01F007FAB9F1100F38BF01F002FA28
:10022000B069854209D1F0684844F060C6F818B05A
:1002300040F00100CBF8040070E1706985420BD1F9
:10024000B0684844B060C6F814B040F00101CBF883
:1002500004104BF8000061E1686800F00301012917
:1002600040F0AF80C008C0000190C00820283BD2F9
:10027000D5F808A0EF680090BD4208BF01F0D2F9A0
:10028000554508BF01F0CEF968680099C008C00064
:10029000B0EBC10F18BF01F0C5F9009806EBC00024
:1002A00000F128018A4508D031698A45C0F0848070
:1002B000DAF80C10A94240F07F80574506D1009A29
:1002C0003068012191408843306077E028308742D0
:1002D00005D0306987426FD3B868A8426CD1CAF89C
:1002E0000C70C7F808A069E0EF68D5F818A0AF4215
:1002F0000CD0A8683169884223D3C168A94204BFE1
:10030000B968A9421DD1C760B8601CE005F11400AE
:10031000076837B905F110000768A7B101E0084682
:10032000076807F114010A68002A02BF07F11001EB
:100330000A68002AF3D13169884202D300210160A2
:1003400001E001F06FF9BAF1000F37D0E86906EB70
:1003500080004FF49871084401688D4208D107600D
:10036000A7B9EA697068012191408843706025E06F
:100370003069824508D3DAF81000A84214BFCAF8E1
:100380001470CAF8107001E001F04CF9B7B130698F
:10039000874211D3C7F818A0296929B1814226BF25
:1003A00039618F6101F03EF9686938B1316988427D
:1003B00002D37861876101E001F034F901980544C6
:1003C000814468684008400068604FEAD90549F0F8
:1003D0000100CBF804004BF80990202D23D206EB46
:1003E000C50000F12807BA46B9F1100F38BF01F077
:1003F00019F9306820FA05F1C90704D40121A94090
:100400000843306006E0B868316988422CBF8246F4
:1004100001F008F9C7F808B0CAF80CB0CBF808A08A
:10042000CBF80C707AE05FEA192108BF002023D0D6
:10043000B1F5803F28BF1F201ED2A1F58070000CAF
:1004400000F008008140A1F58052120C02F0040275
:100450009140A1F580431B0CC0F10E0003F0020394
:10046000801AC01A994000EBD130C11D29FA01F25F
:1004700002F0010101EB400006EB80014FF498729D
:100480001144CBF81C000022CBF81420CBF810202C
:10049000726822FA00F3DB0707D4012303FA00F0A5
:1004A00010437060C1F800B01DE009681F281DBF2F
:1004B0004008C0F1190009FA00F0484600E0114672
:1004C0004A68D208D2004A4514D0C20F01EB82021A
:1004D00002F1100340001A68002AF0D1306983420B
:1004E0001AD3C3F800B0CBF81810CBF80CB0CBF887
:1004F00008B013E032698868914228BF90420BD35C
:10050000C0F80CB0C1F808B0CBF80800CBF80C105C
:100510000020CBF8180001E001F084F808F1080091
:10052000BDE8E68F2DE9FA4D0546DFF88003006847
:1005300082B008B9FFF70AFEDFF8700302998068FD
:1005400041182F31401E21EA00000299814280F0BB
:10055000A9814FF4D8716E18B16839B1326880182A
:10056000824280F09F818142C0F09C8101F06CF852
:1005700000281EBF0446D0F8008014F1010F00F0DF
:1005800091813068716840448142306038BF0146D3
:100590007160A86980BB286908B1844200D22C61CF
:1005A0000020F0613461C6F8148005F12801BF48CD
:1005B000006868624FF0FF3028620020C9608960DF
:1005C00001F108024A610A61801C10312028F5D32C
:1005D000B748854203D1A8F1280221462AE055F800
:1005E000040CC00805EBC000A0F1080104EB0800F2
:1005F000401AA0F128021DE04FF4E07029180846C7
:1006000000E08068D0B1026843681A449442F8D18F
:10061000027B120712D4AA6903689A420ED3476874
:100620003B449A420AD208EB07014160E868A96995
:1006300008EB00022846FFF7A2FD1DE1286984426D
:10064000084638BF2C6104EB080100E0806880B1E7
:1006500002688A42FAD1017B09070AD40460416822
:10066000414441602146029B284604B0BDE8F04D5C
:100670009FE5AF6939462846FFF75AFD4FF0000B5A
:100680000168406808440190273810F0070101997B
:100690000EBF0020C0F1080000F0070008442F380A
:1006A00007F11001884234BF00970090009804F1D0
:1006B000080100F1180A11F00701A8F1280005D07F
:1006C00004F10801C1F1080101F00701401A2144B9
:1006D000A961E86040F001024A60084428224260B3
:1006E00072480069E8610098083010F0070018BFF0
:1006F00000F098FF00991B2048604FF4E0712944F6
:10070000B1E80C5000980830A0E80C503461C6F8ED
:100710001480C6F81CB000980830B061019801E060
:100720000AF1040A0721CAF804100BF1010B0AF1BF
:1007300008018142F4D3BBF1020FB8BF00F072FF91
:100740000098B84200F09880C01B3918C4084A6865
:10075000520852004A6040F0010179603850202C64
:1007600020D205EBC40101F12806B046102838BF9D
:1007700000F058FF286820FA04F1C90704D40121C9
:10078000A1400843286006E0B068296988422CBF70
:10079000804600F047FFB760C8F80C70C7F80880C3
:1007A000FE6069E0010A23D0B1F5803F28BF1F2118
:1007B0001ED2A1F58072120C02F008029140A1F540
:1007C00080531B0C03F004039940A1F58044240CD2
:1007D000C2F10E0204F00204D21A121BA14002EB75
:1007E000D131CA1D20FA02F303F0010202EB4101EC
:1007F00005EB81024FF498731A44F96100237B6181
:100800003B616B6823FA01F4E40705D401208840BA
:100810001843686017601CE012681F291DBF490853
:10082000C1F1190100FA01F1014600E01A465368CE
:10083000DB08DB00834210D0CB0F02EB830303F114
:10084000100449002368002BF0D12869844211D399
:100850002760BA61FF60BF600EE0296990688A4234
:1008600028BF884206D3C7609760B860FA6000204E
:10087000B86101E000F0D6FEE8680299814211D229
:10088000401AE860A969029A0A44AA6140F001008E
:100890005060029840F00300486004B001F1080085
:1008A000BDE8F08D002004B0BDE8F08DF84A0020CE
:1008B000B44200206859883C2DE9F84F04460026D0
:1008C00089465FEA1920C9F1000B08BF002123D037
:1008D000B0F5803F28BF1F211ED2A0F58071090C02
:1008E00001F008018840A0F58052120C02F00402C9
:1008F0009040A0F580431B0CC1F10E0103F00203F0
:10090000891AC91A984001EBD030C11D29FA01F2A9
:1009100002F0010101EB400104EB8100D0F830014D
:1009200018B31F290FBF4A464A08C2F1190209FA33
:1009300002F2002300E052004568ED08ED00A5EB4F
:1009400009055D4503D25FEA050B06460BD04569F4
:10095000D70F00EB8700002D00691CBF85422B4696
:100960000028E8D11846B8BBC6BB0120884040002B
:10097000414208436168084000F05D8141420840FF
:10098000401E010B01F01001C840420902F00802AC
:10099000D040830803F00403D840450805F0020561
:1009A0005118E8405918C0F3400729443944F84029
:1009B000401804EB8000D0F830010DE00846416893
:1009C000C908C900A1EB090159453CBF8B46064641
:1009D00001690029F2D140690028F0D1002E00F011
:1009E0002A81A068A0EB0900834580F0248120695A
:1009F0008642C0F01E817068C00809EB0B08C00079
:100A0000404518BF00F00EFE06EB0905AE4280F02F
:100A10001081F768D6F818A0B7420CD0B0682169E9
:100A2000884223D3C168B14204BFB968B1421DD125
:100A3000C760B8601CE006F11400076837B906F11A
:100A400010000768A7B101E00846076807F1140124
:100A50000A68002A02BF07F110010A68002AF3D1D0
:100A60002169884202D30021016001E000F0DAFD33
:100A7000BAF1000F39D0F06904EB80004FF498719F
:100A8000084401688E4209D10760380014D1F26928
:100A90006068012191408843606026E020698245BA
:100AA00008D3DAF81000B04214BFCAF81470CAF8BC
:100AB000107001E000F0B6FDBFB12069874212D38B
:100AC000C7F818A0306930B12169884226BF386163
:100AD000876100F0A7FD706938B12169884202D3AF
:100AE0007861876101E000F09DFDBBF1100F09D234
:100AF00048F00300706006EB0800416841F0010116
:100B0000416095E049F0030070604BF001006860BF
:100B10004FEADB0045F80BB020281DD204EBC001E2
:100B200001F12807216821FA00F2D207BB4605D45B
:100B3000012202FA00F00843206006E0B86821694B
:100B400088422CBF834600F06DFDBD60CBF80C5091
:100B5000C5F808B0EF606BE05FEA1B2023D0B0F56A
:100B6000803F28BF1F201ED2A0F58071090C01F024
:100B700008018840A0F58052120C02F00402904057
:100B8000A0F580431B0CC1F10E0103F00203891A8A
:100B9000C91A984001EBD030C11D2BFA01F202F0C6
:100BA000010101EB400004EB80014FF49872114405
:100BB000E86100226A612A61626822FA00F3DB07B9
:100BC00006D4012303FA00F0104360600D601CE0BE
:100BD00009681F281DBF4008C0F119000BFA00F07A
:100BE000584600E011464A68D208D2005A4510D053
:100BF000C20F01EB820202F1100340001A68002AC2
:100C0000F0D12069834211D31D60A961ED60AD6010
:100C10000EE022698868914228BF904206D3C560E1
:100C20008D60A860E9600020A86101E000F0FAFC96
:100C300008E100F0F7FC02E12DE9F84F0446884690
:100C4000606841420840401E010B01F01001C8409D
:100C5000420902F00802D040830803F00403D840A0
:100C6000450805F002055118E8405918C0F3400640
:100C700029447118F040401804EB8000D0F830018E
:100C80004168C908C9000646A1EB080A09E0084600
:100C90004168C908C900A1EB080151453CBF8A461B
:100CA000064601690029F2D140690028F0D1206987
:100CB0008642C0F0C2807068C00808EB0A09C00014
:100CC000484518BF00F0AEFC06EB080B5E4580F00F
:100CD000B480F768B569B7420CD0B0682169884222
:100CE00023D3C168B14204BFB968B1421DD1C76006
:100CF000B8601CE006F11400076837B906F110006F
:100D00000768A7B101E00846076807F114010A68FF
:100D1000002A02BF07F110010A68002AF3D12169F5
:100D2000884202D30021016001E000F07BFC002D2D
:100D300035D0F06904EB80004FF4987108440168E5
:100D40008E4209D10760380011D1F2696068012133
:100D500091408843606022E02069854205D328697C
:100D6000B04214BF6F612F6101E000F05BFCB7B1CE
:100D70002069874211D3BD61306930B12169884251
:100D800026BF3861876100F04DFC706938B1216978
:100D9000884202D37861876101E000F043FCBAF138
:100DA000100F09D249F00300706006EB090041689A
:100DB00041F0010141603FE048F0030070604AF0FB
:100DC0000100CBF804004BF80AA0D4F808804FEAE1
:100DD000D805202D28BF00F025FCB8F1000F27D042
:100DE000D4F81490009504EBC50000F128052F46B7
:100DF000B8F1100F38BF00F015FC2068009920FAF8
:100E000001F2D10705D4009A0121914008432060E6
:100E100006E0A868216988422CBF074600F002FC62
:100E2000C5F80890C7F80C90C9F80870C9F80C50BC
:100E3000C4F808A0C4F814B004E000F0F3FB0020EC
:100E4000BDE8F28F06F10800BDE8F28F2DE9F04F02
:100E500083B00546AFF30080F52DDFF8C04780F082
:100E600002810B2D31BF102705F10B00C708FF00D1
:100E70002068FE08F04010F0030F42D0C04300F09D
:100E80000100861904EBC60000F12808F700D8F825
:100E900008506868C008C000B84218BF00F0C2FB24
:100EA000D5F80890454508BF00F0BCFB4D4508BF8C
:100EB00000F0B8FB6868C008C000B84218BF00F076
:100EC000B1FBC84505D120680121B14088432060AD
:100ED0000DE02069814508D3D9F80C00A84204D15F
:100EE000C8F80890C9F80C8001E000F09BFB47F0BF
:100EF00003006860E8190835416841F0010141606C
:100F0000F9E0A168B94280F0C080002800F0A2801A
:100F1000012505FA06F149004A42B0401143084054
:100F200041420840401E010B01F01001C840420937
:100F300002F00802D040830803F00403D8404608BA
:100F400006F002065118F0405918C0F34008711815
:100F5000414420FA08F000EB010804EBC80000F15E
:100F600028094FEAC80AD9F808607068C008C000AC
:100F7000504518BF00F056FBD6F808B04E4508BFE4
:100F800000F050FB5E4508BF00F04CFB7068C008E5
:100F9000C000504518BF00F045FBD94505D1206879
:100FA00005FA08F1884320600DE02069834508D3E5
:100FB000DBF80C00B04204D1C9F808B0CBF80C90B3
:100FC00001E000F02FFB47F003007060AAEB070878
:100FD000F019019048F0010001994860019840F82B
:100FE0000880A7684FEAD70ABAF1200F28BF00F09F
:100FF00019FB47B3CDF800A004EBCA00D4F8149055
:1010000000F1280AD346102F38BF00F00BFB2068F0
:10101000009920FA01F2D10705D4009905FA01F1EF
:101020000843206007E0DAF80800216988422CBFF5
:10103000834600F0F7FACAF80890CBF80C90C9F88C
:1010400008B0C9F80CA0C4F8088006F1080501989A
:10105000606150E06068C0B339462046FFF7ECFDA0
:10106000050012D047E015F1400F28BF4FF0FF37C1
:101070000BD205F10B00C7086068FF0028B13946A4
:101080002046FFF719FC050035D1A068B8421CD3F3
:10109000C11B626910290AD3D0196061A16041F0B7
:1010A00001034360415047F0030050600AE0002113
:1010B000A160616140F0030151601044416841F05A
:1010C0000101416002F1080515E0E06887420DD298
:1010D000C01BA169E060CA19A26140F00100506024
:1010E00001F1080547F00300486004E03946204656
:1010F000FFF718FA0546AFF30080284603B0BDE8B5
:10110000F08F00B970472DE9F047A0F10804AFF364
:101110000080DFF8085528698442C0F07982616850
:1011200001F00302012A00F07382CA084FEAC208E4
:10113000CA0704EB080937D4226811F0030F00F046
:10114000698251420C4484429044C0F061826969D2
:101150008C4200F0D980D608202E70D2D4F80CA092
:10116000A768544508BF00F05DFABC4208BF00F014
:1011700059FA6068C008C000B0EBC60F18BF00F095
:1011800051FA05EBC60000F128018F4205D029690C
:101190008F4251D3F968A1424ED1BA453DD128685A
:1011A0000121B140884328604C4580F03182D9F854
:1011B0000400C10740F12C82810700F17D81A969FB
:1011C000894540F0B680E868AC614044E86040F092
:1011D0000101616069698C4202D100216961A960E5
:1011E000E969814280F01682DFF83404006808B9AA
:1011F000FEF7ACFFA969002900F00C82E8682928F5
:1012000024BF2846FEF794FFE869E968884280F029
:1012100001824FF0FF30E861FCE12830824506D0C2
:101220002869824508D3DAF80800A04204D1C7F83B
:101230000CA0CAF80870B7E700F0F4F9B4E7E76863
:10124000A669A7420BD0A168814222D3C868A042F8
:1012500004BFB868A0421CD1CF60B9601BE004F1A4
:1012600014010F6837B904F110010F689FB101E054
:1012700011460F6807F114021368002B02BF07F133
:1012800010021368002BF3D1814202D300200860C2
:1012900001E000F0C7F9002E86D0E06905EB800080
:1012A0004FF49871084401688C4209D107603800F6
:1012B00011D1E2696868012191408843686073E751
:1012C0002869864205D33069A04214BF776137612F
:1012D00001E000F0A7F9002F3FF466AF28698742CC
:1012E000AAD3BE61216929B1814226BF39618F61CC
:1012F00000F098F9606900283FF456AF29698842E8
:101300009AD3786187614FE799F8040000F00300F1
:1013100003287FF449AFC5F80880D9F804004008D5
:101320004000C9F8040048F00100606044F80880FB
:1013300070E16969894508D1A8686C614044A8607A
:1013400040F001016160205064E1C008C0004FEA34
:10135000D00ABAF1200F804437D2D9F80C70D9F8EE
:101360000860B94508BF00F05DF9B14508BF00F05D
:1013700059F9D9F80400C008C000B0EBCA0F18BF73
:1013800000F050F905EBCA0000F128018E4207D0A9
:1013900029698E42C0F08380F168494540F07F8022
:1013A000B74206D12868012101FA0AF18843286072
:1013B00077E02830874205D0286987426FD3B86824
:1013C00048456CD1F760BE606BE0D9F80C70D9F875
:1013D00018604F450DD0D9F808002969884223D3F9
:1013E000C168494504BFB96849451DD1C760B860A7
:1013F0001CE009F11400076837B909F1100007680B
:10140000A7B101E00846076807F114010A68002A3D
:1014100002BF07F110010A68002AF3D12969884246
:1014200002D30021016001E000F0FCF8002E38D06A
:10143000D9F81C0005EB80004FF49871084401684E
:1014400089450AD10760380012D1D9F81C20686894
:10145000012191408843686023E02869864205D3D2
:101460003069484514BF7761376101E000F0DAF870
:10147000BFB12869874212D3BE61D9F8101029B1D3
:10148000814226BF39618F6100F0CCF8D9F8140091
:1014900038B12969884202D37861876101E000F0A0
:1014A000C1F848F00100606044F80880686984422F
:1014B0000BD1C5F80880ADE040084000C9F8040031
:1014C00048F00100606044F808804FEAD807202FF8
:1014D00022D205EBC70000F128094E46B8F1100FE3
:1014E00038BF00F09FF8286820FA07F1C90704D434
:1014F0000121B9400843286007E0D9F808002969AC
:1015000088422CBF064600F08DF8C9F80840F46008
:10151000A660C4F80C907DE05FEA182008BF0021A7
:1015200023D0B0F5803F28BF1F211ED2A0F58071C7
:10153000090C01F008018840A0F58052120C02F05D
:1015400004029040A0F580431B0CC1F10E0103F092
:101550000203891AC91A984001EBD030C11D28FA3C
:1015600001F202F0010101EB400105EB81004FF4B3
:1015700098721044002262612261E1616A6822FA75
:1015800001F3DB0706D4012303FA01F1114369607B
:1015900004601CE000681F291DBF4908C1F1190142
:1015A00008FA01F1414600E010464268D208D20034
:1015B000424510D0CA0F00EB820202F1100349002D
:1015C0001A68002AF0D129698B4211D31C60A061EE
:1015D000E460A4600EE02A698168904228BF9142CD
:1015E00006D3CC608460E060A1600020A06101E0CF
:1015F00000F018F8286A401E28620BD1D5F8C801FF
:1016000000E080680028FCD14FF0FF30286201E044
:1016100000F008F8AFF30080BDE8F087B442002086
:10162000F84A0020012000F025B8A0F16101062948
:1016300024BFA0F14101062904D330380A28804193
:10164000C00F7047012070470749086808B10020A3
:1016500070470648C008C00008600549C908C900AD
:10166000091A0160704700BFC04B0020971200208C
:101670009012002080B500F007F8024A11001820EF
:10168000ABBEFBE72600020080B500F033F8020095
:101690000023DB431068984204D011000220ABBE47
:1016A000002010605068984204D0111D0220ABBE8B
:1016B0000020506001BD000010B584B0040000F0AF
:1016C00019F8A100421810680021C94388420DD1C1
:1016D00007A00090002C01D1002000E00420019020
:1016E0000320029069460120ABBE106004B010BD1B
:1016F0003A747400004870477C0B00202DE9F04FCD
:1017000082460FF25860A5B015461E46D0E9002368
:10171000CDE9122303AF00207960B8620DF15009C2
:1017200000E045440020ADF8020012AB4FF0FF325C
:1017300029460DF1020001F0AEF88046B8F1010F24
:1017400008DA2878B0F1010868EB08086FEA0800A9
:101750004FEAD078BDF8020025280CBFA8F1010B94
:10176000C346BBF1010F0EDB2C4614F8011B786851
:10177000D0470028786000F0F880B86A401CBBF1C0
:10178000010BB862F1D1BDF80200252807D1002075
:1017900038617861B861F8613862786205E00028E4
:1017A000BFD1B86AE2E240F0010015F8011F20291C
:1017B000F9D023290DD02B2904D02D2906D030298A
:1017C0000AD00CE040F0020080B2EEE740F00400E6
:1017D000FAE740F00800F7E740F01000F4E72A29A4
:1017E0000ED13168316051F8042B3160002A3A6320
:1017F00004D5514240F00400396380B26D1C13E0FF
:10180000002139630BE0396B6FF00043994205D03A
:1018100001EB810302EB4301303939636D1C2A78F7
:10182000A2F130010A29EED329782E2903D04FF0F6
:10183000FF31F9621FE015F8011F2A2907D131682D
:1018400031606D1C51F8042B3160FA6213E0002105
:10185000F9620BE0F96A6FF00043994205D001EBA1
:10186000810302EB43013039F9626D1C2A78A2F141
:1018700030010A29EED3B8860FF2E840297801F04A
:1018800027F808B115F8010B8DF842009DF84200C9
:10189000682802BF29786829622005D06C2804BF17
:1018A00028786C2803D171208DF842006D1C14A893
:1018B000F86015F8014BB4F125002AD01C3800F06F
:1018C000DB80001F022840F2D780133800F0FB8035
:1018D000093800F0D180801E00F06581401E00F0C4
:1018E0003C81401E022840F2C780001F00F0358175
:1018F000401F00F09280401E00F0E580401E37D06F
:10190000C01E0BD0801E00F0DE80C01E00F0DB8009
:101910006CE125208DF85000012070E19DF8420017
:101920006C283068306016D050F8048B3060C7F8EF
:101930000880FC6A002C04D5404600F0D9FF04461C
:1019400007E022460021404600F0EEFF08B1A0EB80
:1019500008047C6154E150F8042B306002A9504621
:1019600000F03EFA002840F14B814FF0FF30FDE1DE
:1019700031683160002251F8040B31604FF03C0EA9
:101980000021CDE9020114A8B860DDE9020191420D
:10199000FC6808BF904201D1FA6AC2B100F00F039F
:1019A0003033DBB23A2BA8BF2733AEF10102000976
:1019B000A354964640EA017009090022914208BFEB
:1019C000904204D0BA6804EB0E039A42E6D304EBCB
:1019D0000E01B960CEF13C00F96A7861884207DAFD
:1019E000081AF8614FF6EF71B88E0840B88607E123
:1019F000002940F1058197F8341001F014011029F5
:101A000040F0FE80396B3A69891AFA69891A081A16
:101A10000128C0F2F580F861F2E09DF842006228EA
:101A20001AD0682806D06A280CD06C281CD07128DF
:101A300008D019E03068306050F8041B3060B86A94
:101A40000880DDE03068306050F8042B3060B86A00
:101A5000C117C2E90001D3E03068306050F8041BC0
:101A60003060B86A0870CBE03068306050F8041B12
:101A70003060B86A0860C3E03068C01D20F007021B
:101A80003260D2E9000108323260CDE9020100295A
:101A900002D538692D2109E0B88E810702D5386951
:101AA0002B2103E0C00705D53869202109F8001073
:101AB000401C386114A839690844B860214602A85E
:101AC00000F09AFB9CE09DF842006C280DD0712834
:101AD00018BF6A2809D13068C01D20F007023260A3
:101AE000D2E900010832326005E03168316051F816
:101AF000040B31600021CDE902019DF84200682805
:101B000003D1DDE9020180B20BE0622803D1DDE9F7
:101B10000201C0B205E0742818BF7A2804D1DDE9BB
:101B200002010021CDE9020197F83400000731D508
:101B3000DDE902230020834208BF82422AD044F01C
:101B40002000782826D13869302109F80010401C7F
:101B5000411C396109F800401CE09DF84200314603
:101B600000F007F9CDE90201DDE9022300218B42F3
:101B700002DA38692D2109E0B88E810702D538696B
:101B80002B2103E0C00705D53869202109F8001092
:101B9000401C386114A839690844B860214602A87D
:101BA00000F0A4FA2CE09DF842006C2809D0012036
:101BB00038613068306050F8041B30608DF8501088
:101BC0001EE03068306001AA50F8041B3060ADF8A8
:101BD00004100020ADF8060002A94FF0FF30F862B3
:101BE000504600F0FDF800280AD5BEE625208DF805
:101BF0005000012038611CB189F801400220386191
:101C0000386B3969401AF969401A7969401A396A9A
:101C1000401AB969401A796AA0EB010897F83400B4
:101C2000400711D42020B8F1010F8DF800000BDB24
:101C3000444601236A4602A9504600F007FE0028E8
:101C40007FF493AE641EF4D1D7F810B0BBF1000F4F
:101C500014AC0DD014F8011B7868D04700287860C8
:101C60003FF483AEB86A401CBBF1010BB862F1D1FE
:101C700030208DF80000FC69012C0ADB01236A4644
:101C800002A9504600F0E2FD00287FF46EAE641E0B
:101C9000F4D1D7F814B0BC68BBF1000F0DD014F824
:101CA000011B7868D047002878603FF45EAEB86AC0
:101CB000401CBBF1010BB862F1D130208DF800005F
:101CC0003C6A012C0ADB01236A4602A9504600F057
:101CD000BDFD00287FF449AE641EF4D1B86879696F
:101CE000D7F818B04418BBF1000F0DD014F8011B41
:101CF0007868D047002878603FF437AEB86A401C57
:101D0000BBF1010BB862F1D130208DF800007C6A84
:101D1000012C0ADB01236A4602A9504600F096FD19
:101D200000287FF422AE641EF4D197F834004007F7
:101D30007FF5F8AC2020B8F1010F8DF80000FFF618
:101D4000F1AC01236A4602A9504600F07FFD00284D
:101D50007FF40BAEB8F10108F3D1E3E4000000001A
:101D600000000000686A6C747A4C000025B0BDE881
:101D7000F08F622826D068281DD06A2808D06C28E9
:101D800027D0712804D0742823D07A280CD020E0E2
:101D90000868C01D20F007000860D0E90023083063
:101DA00008601946104670470A680A6052F8040B2A
:101DB0000A60002170470A680A6052F8040B0A6042
:101DC00000B20BE00A680A6052F8040B0A6040B2E5
:101DD00004E00A680A6052F8040B0A60C1177047F1
:101DE0002DE9F44F0D4694B0D5F830A0BAF1000FAC
:101DF000804648BF6FF0004A00F0C2FD696B401892
:101E000001900FF67820D0E90023CDE9022395F860
:101E10003800400702D40198412805D240200DF136
:101E200010090190002609E0FFF710F85FEA0009A9
:101E3000F8D14FF0FF3056E1AAEB040ABAF1010FD6
:101E4000C0F2CE801498018802AA0DF1010000F0C2
:101E50009CFD0028044600F1DE801498008810B92B
:101E6000641E00F1D880A245C0F2BA806869019969
:101E70002218914280F0A2806E634042296A401A83
:101E8000A969401A696A401AE969401AA96A461A9A
:101E900095F83800400710D42020012E8DF800005E
:101EA0000BDB374601236A462946404600F0CEFC4C
:101EB000002840F0B0807F1EF4D1D5F814B0BBF1FB
:101EC000000F4F460DD017F8011BA868C047002827
:101ED000A86000F0A080E86A401CBBF1010BE8623A
:101EE000F1D130208DF800002F6A012F0ADB012389
:101EF0006A462946404600F0A9FC002840F08B8045
:101F00007F1EF4D1D5F818B0EF68BBF1000F0CD0EC
:101F100017F8011BA868C0470028A8607BD0E86AB2
:101F2000401CBBF1010BE862F2D130208DF80000BB
:101F30006F6A012F09DB01236A462946404600F0FB
:101F400085FC002867D17F1EF5D1E868A969D5F81E
:101F50001CB04718BBF1000F0CD017F8011BA86884
:101F6000C0470028A86056D0E86A401CBBF1010BAE
:101F7000E862F2D130208DF80000AF6A012F09DB52
:101F800001236A462946404600F060FC002842D101
:101F90007F1EF5D195F8380040070DD52020012E81
:101FA0008DF8000008DB01236A462946404600F010
:101FB0004DFC80BB761EF6D100266E612246686914
:101FC0000DF10101484400F0EDFC686920186861DA
:101FD0001498801C1490801E008800287FF42CAF79
:101FE000686B6969401A296A401AA969401A696AC6
:101FF000401AE969401AA96AA0EB010A95F838006D
:10200000400710D4BAF1010F0DDB5446A868202117
:10201000C047A86010B94FF0FF365DE0E86A401C89
:10202000641EE862F2D16B694A462946404600F0D8
:102030000DFC0028EFD12C6A012C0ADBA8683021A6
:10204000C0470028A860E6D0E86A401C641EE86229
:10205000F4D1AB69EA682946404600F0F7FB002856
:10206000D9D16C6A012C0ADBA8683021C04700284E
:10207000A860D0D0E86A401C641EE862F4D1E86829
:10208000A969EB6942182946404600F0DFFB0028A9
:10209000C1D1AC6A012C0ADBA8683021C0470028F6
:1020A000A860B8D0E86A401C641EE862F4D195F8D4
:1020B000380040070ED5BAF1010F0BDBA8682021CC
:1020C000C0470028A860A6D0E86A401CBAF1010AFF
:1020D000E862F3D16E616E6304A881451CBF484677
:1020E000FFF70FF8304615B0BDE8F08F2DE9F34348
:1020F000054608462F696F2808BF082405D041F01F
:102100002001782914BF0A2410243C26D5E9002395
:10211000642818BF69289046994606D100218B4251
:1021200003DAD8F1000869EB49090020814508BFAE
:1021300080450CD1286B50B9082C38D195F838005F
:10214000000734D530203B2687F83B002FE0701E77
:1021500000900646404649462246E31700F05EFCE2
:1021600002F13000C0B23A2803DB9DF80410513967
:102170000818B855494640462246E31700F04EFC81
:10218000804689460020814508BF804503D0E86825
:10219000B9198842DBD3082C09D195F8380000071B
:1021A00005D5B85D302802D0761E3020B855B91953
:1021B000E960C6F13C00296BA861884208DA081A78
:1021C00028624FF6EF71288F08402887BDE8F38317
:1021D00000290ED595F8381001F01401102908D106
:1021E000696B6A69891A2A6A891A0E1A012EA8BFB0
:1021F0002E62BDE8F38300002DE9F24F04468EB055
:10220000D4E90001CDE9020104AF9DF8380040F0A7
:10221000200BBBF1610F0AD0206B002848BF0620BD
:1022200004D408BFBBF1670F01D1012020636168AE
:10223000C1F30A5040F2FF7290421CD1080304BF60
:102240002068002809D10320A0619DF8380061387A
:102250001A2835D30FF2386108E00320A0619DF8F9
:10226000380061381A2828D30FF21C61E068032275
:1022700000F098FBBDE1012815DA204600F045FC8E
:10228000012810DB00250020BBF1610F1FD1E168A0
:1022900030220A708A1CE2609DF83820612A0CBF47
:1022A000782258220FE0626840F2FE3161F31E523C
:1022B000451A62604FF0FF30E6E70FF2C851D5E7EC
:1022C0000FF2C851D2E74A706169891C616110B987
:1022D0000026002584E1BBF1610F40F09880206B5F
:1022E000D4E900AB00284CBF2126461CDDE90201E1
:1022F0000022002300F02CFC36B23ABF8BF00040E5
:10230000CDE902A0CDE902AB06F101082D1FB8F11D
:10231000010F8DF810200DF1110736DBDDE9020108
:102320000022002300F02CFC2FD21C2102A800F078
:102330003FFCDDE9020100F0C1FCA8F10708B8F19B
:10234000010F814609DB00F0E5FC02460B46DDE9A2
:10235000020100F0F7FCCDE90201F81D072105E0BC
:1023600009F00F0200F8012D4FEA2919B9F1010F08
:1023700001DB491EF4D5491E5CBF002200F8012D87
:10238000F9D5C71DB8F1010FC8DA0DF11100391ADE
:10239000B142B8BF0E4636B230000DF111072FD44E
:1023A000884206DA04A9014449780829A8BF0F2108
:1023B00000DA002104AA024400E0761E12F8013976
:1023C000401E8B42F9D00F2904D104A901444A7858
:1023D000521C4A70002802D504AF761C2D1D36B25F
:1023E000701E0DD439180A783032D2B23A2A03DB83
:1023F0009DF838303A3B9A18401E01F80129F2D571
:10240000206B002840F1EC80701E2063E8E0DDE9DD
:1024100002010022002300F09BFB3CBF81F0004141
:10242000CDE902012DB247F2975068434B49DFF8DE
:10243000309190FBF1F52DB2C5F1070ABAF1010F09
:1024400090461CDBDDE902675FEACA7007D54246A9
:102450004B463046394600F035FD06460F464046AD
:10246000494642464B464FEA6A0A00F02BFDBAF154
:10247000000F80468946E7D1CDE9026724E0CAF122
:10248000000A0026374F14E05FEACA7007D54246BB
:102490004B463046394600F015FD06460F4640468D
:1024A000494642464B4600F00DFD4FEA6A0A804617
:1024B0008946BAF1000FE7D1DDE9020132463B4619
:1024C00000F0D2FDCDE90201BBF1660F216BDFF810
:1024D00098900CBF05F10A0006204618142EA8BFDC
:1024E000132630208DF810000DF11107012E3DDB71
:1024F000DDE9020100F0F8FB07F1080104220A23DC
:10250000B0FBF3F303EB8307A0EB4700303001F897
:10251000010C0A20B3FBF0F000EB8007A3EB4703AC
:102520003033521E01F8023DE9D1083E012E01F17F
:102530000807DBDBDDE9020100F0D6FB00F0F4FB6D
:1025400002460B46DDE9020100F0FCFB00224B468F
:1025500000F0B8FCCDE90201CAE700BFA086010087
:10256000000024400000F03F84D797410DF1110096
:10257000381A0DF1110702E0401E6D1E7F1C3978DC
:102580003029F9D0BBF1660F08BF691C04D0BBF13C
:10259000650F0CBF01210021226B8E1836B2B042AC
:1025A000B8BF064636B231001AD4814204DA785CEC
:1025B0003528A8BF392000DA30207A18521E00E0F2
:1025C000761E12F80139491E8342F9D0392802D10A
:1025D000785C401C7854002902D57F1E761C6D1C47
:1025E0002DB29DF83810009533B23A46204600F0DF
:1025F00003F80FB0BDE8F08F2DE9F04786B006462E
:102600008A4690461D4600F078FE012D406A376BE1
:1026100090F8009002DA01250FF278284AF02000A5
:10262000BDF93840662808BF641C12D0672878D1ED
:1026300014F1040F7BDBBC4279DA96F83800641C95
:10264000000702D4BD42B8BF2F4624B23F1B48BF8B
:10265000002724B2F068B169012C23DA4A1C302328
:102660004354012F03DA96F83800000703D5F068C9
:1026700000F80290521CE742B8BF7C4224B260428C
:102680007062E719AF42B261B8BF3D46F068B36906
:102690002DB2F5612A464146184400F083F9781BB3
:1026A000B062BCE022469542084416DA2A4641460A
:1026B00000F078F9B1696918601B012FB16170628F
:1026C00003DA96F83800000705D5F06800F80190A5
:1026D000F069401CF061B762A1E0414600F062F988
:1026E000B06920182D1B012F03DA96F8381009075E
:1026F00003D5F16801F80090401CB0612DB2AF42E3
:10270000B8BF3D46F068B3692DB22A4608EB040114
:10271000184400F047F9B0692818B061781B70625E
:102720007DE0BAF1610F14D14FF0700A16E0BD429E
:1027300004DA96F83810090758BF2F467F1E48BFA5
:102740000027BAF1670F14BF4FF0450A4FF0650A32
:1027500004E0BAF1410F08BF4FF0500AB169F368C5
:10276000481CB061012F18F8012B5A5403DA96F86F
:102770003810090717D5F168431CB36101F80090C0
:10278000012F10DB6D1E2DB2AF42B8BF3D46F06881
:102790002DB22A464146184400F004F9B0692818C1
:1027A000B061781B7062F068B1690144200081F863
:1027B00000A004D42B20487001F1020804E02D226F
:1027C0004A7001F102086442002502AF08E00A22C3
:1027D000684600F0ABFD019807F8010B6D1C009CEA
:1027E00021B20129F3DA022D06DA4AF02000652829
:1027F00004BF302008F8010B4DB9302008F8010B58
:1028000007E06D1E02A8405D303008F8010B012D75
:10281000F7DAF068B1690844A8EB0000F06196F8B7
:10282000380000F0140010280DD17069B169081843
:10283000716A0818F1690818B16A0818716B884242
:10284000BCBF081A306206B0BDE8F087F8B5044690
:102850000D4616461F46002077B116F8011BA868E2
:10286000A047A86030B1E86A401CE86200207F1EE3
:10287000F3D1F2BD4FF0FF30F2BD000000000000C8
:10288000000000006E616E004E414E00696E6600F1
:10289000494E46003000F8B504460D4616461F4620
:1028A00000F055FD3B4632462946204601B0BDE8C2
:1028B000F04000F062BD8268521C8260426832B112
:1028C0000268531C036011704168491E41607047E3
:1028D0000278C9B28A421AB11CBF10F8012FF9E779
:1028E00018BF002070470268531C036011707047C6
:1028F00000F10103810704D010F8011B89B18107A1
:10290000FAD10268B2F10131914311F0803F04BF66
:1029100050F8042FF6E710F8011B11B110F8011B55
:10292000FBE7C01A70470000C9B2830706D0521EE9
:1029300022D310F8013B9942F7D11FE0083A13D394
:1029400002F1040241EA012141EA014150F8043B4D
:10295000121F21BF4B40A3F1013C2CEA030C1CF0D9
:10296000803FF3D0C9B2001F083210F8013B521E5D
:1029700028BF91EA030FF8D818BF0120401E704706
:1029800080B500F0E4FC012002BD70B504460D46A0
:10299000164600F0DCFC324629462046BDE8704071
:1029A00000F0DEBC62B38B0708D0521E11F8013B69
:1029B00000F8013B00F024808B07F6D1830740F03C
:1029C000208000BF103A07D330B4B1E83810103A75
:1029D000A0E83810F9D230BC530724BFB1E8081082
:1029E000A0E8081044BF51F8043B40F8043BD2076C
:1029F00024BF31F8022B20F8022B44BF0B78037060
:102A00007047083A07D3B1E80810083A40F8043B89
:102A100040F804CBF7D25307E4E700001B4213D180
:102A2000094236D12AB18446B0FBF2F002FB10C253
:102A3000704700F0C5BCFCD30022002370470B0098
:102A40000200002100207047904271EB030CF6D386
:102A500070B5B1FA81F4B3FA83F52C1BA340C4F12D
:102A6000200532FA05F63343A2405FF00046E64007
:102A700002E05B085FEA3202841A71EB030524BFAF
:102A8000204629467641F4D302000B003000002195
:102A900070BD012ACFD970B5140C20D0B1FA81F4E1
:102AA000B2FA82F5C4F120046419B4F12006D6D339
:102AB000B2405FF00044F440002502E052085FEAB3
:102AC0003303C61A71EB020E24BF304671466441CF
:102AD0006D41F3D302000B002000290070BD0C46AD
:102AE000B1FBF2F102FB11452D0445EA1045B5FB9F
:102AF000F2F402FB145580B240EA0545B5FBF2F052
:102B000002FB105240EA044070BD30B4436803F049
:102B100000420121C3F313034360002B04BF036889
:102B2000002B08D10DE00368DD0F45EA4404446042
:102B30005B000360491E4468E302F4D5C4F3130349
:102B4000436043681A434260084630BC7047000047
:102B50004FF4001C1CEB410F94BF1CEB430F09E02A
:102B600041EA030C50EA4C0C52EA0C0C03D2994295
:102B700008BF9042704714BF8B42824270470000EA
:102B80004FF4001C1CEB410F94BF1CEB430F09E0FA
:102B900041EA030C50EA4C0C52EA0C0C03D28B4273
:102BA00008BF8242704714BF9942904270470000AC
:102BB00070B504460D466068C0F30A5040F2FF71DC
:102BC000884207D16068000304BF2068002817D03E
:102BD000022070BD20B92046FFF797FF012866DA72
:102BE000012D0FDB40F2FF71091A8D420AD3606894
:102BF000002847BF00202F4900202F49C4E90001C9
:102C0000012070BD4142A942616806DA6FF31E518E
:102C1000401941EA0050606040E0401E6368451979
:102C2000012205F1350062F31F53352801F0004100
:102C3000636003D361600020206070BD002015F147
:102C40001F0F04DA206823600022203562606A4288
:102C500012D0401E25688041C2F12003C0439D4030
:102C600045EAD07025686668D54006FA03F32B4321
:102C700023606368D340636062680A43B0F1004F29
:102C8000626003D80DD12078C0070AD52068401CA7
:102C90002060206828B96068401C60604FF0FF30F9
:102CA00070BD6068884204BF20680028F6D100200B
:102CB00070BD00BF0000F0FF0000F07FF446400D43
:102CC00040EAC120490006D200F014F8004248BF93
:102CD0006FF00040604700F00DF84FF0004188426F
:102CE0008CBF084640426047400D40EAC120490081
:102CF00080F00D8040F00040490DA1F58061491C35
:102D000005D4D1F11F0154BFC840C01770474FF020
:102D100000007047010040F10980F446404200F095
:102D200005F851F000416047010000BF09D0B0FA3A
:102D300080F18840C91CC1F58461090501EBD021EF
:102D400040057047F0B44FF0004591EA030F44BFCF
:102D50006B4000F041BB00BF841A71EB030604D244
:102D60006E40001BB141121973414FF4001C1CEB63
:102D7000410F34BF7CEB430684E00C0DA4EB1356EB
:102D8000362E7DDC012E43DC45EAC32343EA525351
:102D900012BFD20292025B08240545EAC12141EA32
:102DA0005051D2EBC020994125D407D1B0FA80F61A
:102DB00010FA06F164D00020203608E0B1FA81F65E
:102DC000B140C6F1200220FA02F21143B0404FEAAE
:102DD000F474B4EB465434F001064FEA74040AD894
:102DE000D6F50016760D04F00044F04061FA06F2C4
:102DF0005040F1404840C00A40EA415021F00041B3
:102E000028BF5FEA500550F1000044EBD12137E0C4
:102E100045EAC323DB0A45EAC121C90AB6F1200508
:102E20000EDD42EA0242120CC5F1200603FA06F654
:102E3000EB4042EA06056D42984161F100010DE068
:102E400062FA06F5F240554063FA06FC82EA0C028B
:102E5000F3405A406D42904161EB030111F4801F31
:102E600005D1641E620502D06D004041494121F444
:102E70008011430875F1004350F1000041EB04510B
:102E8000F0BC70471CEB410F15D223F0004352EA0F
:102E900043060BD04FEA4C0CBCEB410F04D80C0D91
:102EA000661E342EB7DDEBE7801A994150EA4106E1
:102EB00008BF0021E4E708BF1CEB430F28BF6FF0F9
:102EC0000001DDE7B0B581EA030C0CF0004C40F2E4
:102ED000FF7515EA11541DBF15EA1357AC42AF42F6
:102EE00039E0E41923EA455343F48013C90241F061
:102EF000004141EA505EC7021100A7FB0202002810
:102F00004FF00000EEFB01204FF00001E3FB072132
:102F100018BF42F00102401800214941E3FB0E01B5
:102F2000A4F580640F0302D252004041494154F19C
:102F300001046CDD470872F1004250F1000051EBD2
:102F40000451A1F580115CBF41EA0C01B0BD4CEA0F
:102F500005510020B0BD05EA1357AC4214BFAF4283
:102F600041E050EA410E1CBF52EA430E02E06146C6
:102F70000020B0BD24423C441BD15FEA070EF6D0CE
:102F8000090302BF01460020AEF1140EB1FA81F729
:102F9000AEEB070401FA07FE0C37C7F1200100FA77
:102FA00007F7C8404EEA000E23EA455343F4801366
:102FB000A2E733F00043B3FA83F704BFB2FA82FE0C
:102FC00077440B3FE41BB7F1200E2FBF02FA0EF33C
:102FD000BB40C7F1200E22FA0EFE38BF43EA0E03B3
:102FE000BA40641C82E750EA410E14BF52EA430E15
:102FF0006FF000014FF4001717EB430F8ABF19461B
:1030000017EB410FB5E74CEA05510020B0BDD4F1F4
:103010000104B4F120070FDAC4F12007520828BFD9
:1030200042F0010210FA07F501FA07F7E1BF2A435F
:10303000E0403843E1400FE0352C98DCC7F1200434
:1030400052EA400220FA07F218BF42F0010231FAB8
:1030500007F0A1400A43002172F1004250F1000044
:1030600051EB0C01B0BD00002DE9F04140F2FF75BD
:1030700081EA030C0CF0004C15EA11541DBF15EA4F
:103080001357AC42AF42E9E0BC41C1F31301C3F3B3
:103090001303801A994143F4801304D2641E400044
:1030A000494180185941C90241EA5051B1FBF3F638
:1030B00003FB1611A2FB0675D7EBC020A94102D273
:1030C000761E80185941C90241EA5051B1FBF3FE06
:1030D00003FB1E11A2FB0E75D7EBC020A94103D242
:1030E000AEF1010E80185941890241EA90517605EE
:1030F00046EA8E2EB1FBF3F603FB1611A2FB067512
:10310000D7EB8020A94102D2761E80185941C9020E
:1031100041EA50514EEA060EB1FBF3F603FB1611DD
:10312000A2FB0675D7EBC020A94102D2761E8018FB
:103130005941C90241EA5051B1FBF3F703FB1711A2
:10314000A2FB0735D3EBC020A94167F100070CBFF4
:10315000004247F0010766F3D5274FEA1E31B80851
:1031600014F5806414DDBD0775F1004250EB0E507C
:1031700051EB045111F5801F5CBF41EA0C01BDE821
:10318000F0814CF07F6141F0E0410020BDE8F0812A
:10319000BD076D0840EA0E5041F48011D4F10104DE
:1031A000B4F120060ADAC4F120060200E04001FA78
:1031B00006F3E1401843B24015430EE0342C14DC12
:1031C000C6F1200445EA40056D0820FA06F21543D1
:1031D00021FA06F0A1400D43002175F1004250F1A3
:1031E000000051EB0C01BDE8F08100205FEA0C010A
:1031F000BDE8F081CFB992185B41B3FA83F704BF01
:10320000B2FA82F6BF190B3FB7F120062FBF02FAC0
:1032100006F3BB40C7F1200622FA06F638BF334357
:10322000BA401CB1E419641E2FE77F4231F000411F
:10323000B1FA81F404BFB0FA80F6A4190B3CB4F1E2
:1032400020062FBF00FA06F1A140C4F1200620FAA3
:1032500006F638BF3143A0403C1B16E7AC421ABF0C
:1032600005EA1357AF4214E050EA41061CBF52EA88
:103270004306BFE750EA4107304661461CBF41EABA
:103280000551BDE8F08152EA430C08BFC143BDE8D7
:10329000F08100204FF4001616EB410F98BF16EB9B
:1032A000430F08BF16EB410F24BFC14305E016EBE7
:1032B000430F0CBF61464CEA0551BDE8F0810000A8
:1032C00080B5134800F0F2F80FF24C020FF24401FF
:1032D0000160426241600FF24402826381600FF23A
:1032E0004402C1600161416181618162C162016327
:1032F0004163C2630164416401BD10B5044800F03C
:10330000D5F80446206808B9FFF7DAFF204610BD5B
:10331000000C0020000000002E00000066616C73AD
:1033200065000000747275650000000091FBF2F307
:1033300003FB1211C0E900317047000010B50446CC
:10334000DFF8180000F0B2F850F8240010BD80B586
:10335000DFF8080000F0AAF8806902BD940B002095
:1033600030B430B90FF24800D0E90045C2E9004559
:103370001BE00170012030BC704730B431B90FF24E
:103380003800D0E90045C3E900450EE01AB930BC69
:103390006FF00100704708B10A7802800978481E72
:1033A000804130BCC043C00F7047002030BC704724
:1033B000000000000000000000000000000000000D
:1033C00070470000F0B44FF0004591EA030C44BF91
:1033D0006B40FFF7C1BC00BF841A71EB030603D238
:1033E000001BB141121973414FF4001C1CEB410F3B
:1033F00034BF7CEB430443E00C0DA4EB1356352E95
:1034000050DC45EAC323DB0A45EAC121C912B6F103
:1034100020050DDD63FA05F6EB4086EA030512424E
:1034200018BF45F00105C01851F100010CD213E09E
:1034300062FA06F5F2405540F3415A40B340F3407A
:103440005A408018594107D349085FEA30005FEAC3
:10345000350528BF45F0010501F58011420875F1D9
:10346000004250F1000041EB0451F0BC4FF4001C4D
:103470001CEB410F38BF70470020090D090570474C
:103480001CEB410F10D252EA43060BD0BCEB410FAC
:1034900005D80C0DAB43661E342EB5DD02E0AB4300
:1034A00080185941F0BC7047F0BC7047704700006D
:1034B000DFF8CC0B0068704770B504000D4601D1F1
:1034C000D5B100E015B9012070BD6D1C207801F068
:1034D00031F80646287801F02DF8864204D114F818
:1034E000010B0028F1D170BD207801F023F80446CB
:1034F000287801F01FF8201A70BD70B50446FFF758
:10350000F7F900F0A8FB451C28468847060001D1C2
:10351000002070BD2A462146FFF744FA304670BDB0
:1035200010B500F098FB2820884704001CBF282114
:1035300001F00AF8204610BD70B50400DFF8406BBA
:1035400019E0E0682568C00503D4A06808B1FFF75A
:10355000F3FFE068C00503D4206908B1B16888476B
:10356000E068800503D4206A08B1B1688847B16873
:10357000204688472C00E4D170BD2DE9F94B82B07C
:1035800001200E46009000273078DFF8FCBA0024B6
:1035900000252D2804BFDFF8F4BA761CA046307849
:1035A000302808BF761CA9463078313809280ED259
:1035B00000F077F800F06FF842464B46FFF702FF45
:1035C000804616F8010F30380A288946F0D3307843
:1035D0002E281CD1707830380A2818D2761C00F0BA
:1035E00060F800F058F842464B46FFF7EBFE804685
:1035F00089460020DFF8941A22462B46FFF7E2FEA8
:10360000044616F8010F30380A280D46E7D3307803
:10361000652818BF452815D116F8010F2B2804D0AE
:103620002D280BD14FF0FF300090761C06E016F8E5
:10363000011B0A2000FB0710A0F13007307830385A
:103640000A28F4D300225B4640464946FFF73AFC7D
:103650008046009889467843FFF75CFB22462B465C
:10366000FFF7B0FE02460B460020DFF8241A01F0F7
:1036700079F942464B46FFF725FC029AC2E906015A
:10368000FFF71CFB0299486103200299C86030468D
:1036900004B0BDE8F08B8046307889463038FFF7BB
:1036A00039BB0020DFF8E81942464B46FFF70ABC59
:1036B000F8B504001CBF2068002801D10020F2BD2D
:1036C000A268636851188B4201DB1044F2BD481EAA
:1036D00040EA600040EAA00040EA201040EA2020D2
:1036E000DFF89C69716840EA2040451C28468847FD
:1036F0000700B668206804D1B047002060602060F1
:10370000F2BD626801463846FFF74CF92068B047C1
:1037100065602760A0683844F2BD10B500281CBF62
:103720000168002901D1002010BD84680819FFF745
:10373000DFF8001910BD2DE9F0410646DFF8400919
:103740004568D6E906480F46002000212246434638
:1037500001F022FB0ED11FB1022100F03BFA01E083
:103760000220A847070069D0B9A0017839704178D4
:10377000797063E07069FFF7CDFA22464346FFF7A0
:10378000E1FA00F063F81CD220464146DFF83C2CF9
:10379000DFF83C3CFFF7DCF913D20022DFF8343CC1
:1037A000FFF7EEF90DD81FB1152100F013FA01E073
:1037B0001520A847070041D07269A6A101F0FCFAC4
:1037C0003CE01FB1402100F005FA01E04020A8478D
:1037D000070033D02046414601F008FB224643460D
:1037E000FFF7B0FA00F032F80ED2204628F0004180
:1037F000DFF8E42BDFF8E43BFFF7AAF904D2224616
:1038000043460FF2400116E0204628F00041DFF861
:10381000D02BDFF8D03BFFF79BF905D30122DFF86F
:10382000C83BFFF7ADF903D8224643468AA102E020
:103830002246434689A1384601F0BEFA3846BDE823
:10384000F0810000252E30660000000021F00041CC
:103850000122DFF8243CFFF77BB910B50178A1F114
:1038600030030A2B38BF30390AD3A1F14103062BAC
:1038700038BF373904D3A1F16102062A3DD2573946
:103880004278A2F130040A2C38BF303A0AD3A2F1B0
:103890004104062C38BF373A04D3A2F16103062B4A
:1038A0002BD2573A02EB01118278A2F130040A2C94
:1038B00038BF303A0AD3A2F14104062C38BF373A58
:1038C00004D3A2F16103062B17D2573AC078A0F1B6
:1038D00030030A2B02EB011103D2303800EB011048
:1038E00010BDA0F14103062B38BF3738F6D3A0F145
:1038F0006102062A38BF5738F0D3002010BD2DE9E9
:10390000F84304460F467D1C3A78DFF87417002010
:10391000222A06D00F6098E015F8012B5C2A08BF18
:103920006D1C2A78222A18BF002A01D0401CF3D12E
:103930004968401C88475FEA000908BF0020EAD0B8
:103940007D1C4F460FF2181803E015F8010B07F81D
:10395000010B2878222818BF00286BD05C28F4D1EE
:1039600015F8010F62280AD066280AD06E280AD0FE
:1039700072280AD074280AD075280AD056E0082088
:1039800054E00C2052E00A2050E00D204EE00920C7
:103990004CE0681CFFF761FF06462D1DA6F55C4054
:1039A000B0F5806F44D3002E42D0A6F55840B0F554
:1039B000806F17D268785C2804BFA878752837D143
:1039C000E81CFFF74AFFAD1DA0F55C41B1F5806F23
:1039D0002ED2DFF8D41A01EA8621C0F30900084389
:1039E00000F580360420802E02D201207F1C16E0D4
:1039F000B6F5006F02D20220BF1C0EE0B6F5803F84
:103A000007D306F0BF0141F0800107F8031FB60994
:103A100001E00320FF1C00F027F800F025F818F85B
:103A20000010314307F8011D074401E007F8010BBE
:103A30006D1C8EE7002038702878C4F8109022287A
:103A400008BF6D1C0420E0602846BDE8F28300003A
:103A50003000000025640000256500002566000098
:103A60000000C0E0F0F8FC0006F0BF0141F080016A
:103A700007F8011DB60970472DE9F04782460F4649
:103A800000260020544608E0202903DB222918BF25
:103A90005C2901D140F00100641C21780A00F3D1B7
:103AA000DFF8DC15D1F80480C0B9A4EB0A06F01CDD
:103AB0001FB1014600F08EF800E0C04707003DD07E
:103AC0003C46222004F8010B5146204601F0BEF985
:103AD0002220A055A1190020487070E0BAF1000F13
:103AE0000FD11FB1032100F075F801E00320C0479A
:103AF000070008BF002063D0032295A1FEF752FF04
:103B00005DE054460FF2BC0903E0202DB8BF761DDE
:103B1000641C25784DB1761C07D029464846FEF72F
:103B2000D7FE0028F1D0761CF2E7F11C17B100F0A7
:103B300051F801E00846C047070001D100203FE0EE
:103B40003E462220544606F8010B0FF2800503E0A2
:103B500014F8010B06F8010B207801002BD0202867
:103B600003DB222818BF5C28F2D15C2006F8010B89
:103B700014F8012B082A0ED0092A14D00A2A0ED0D4
:103B80000C2A0AD00D2A0CD0222A18BF5C2A0CD18C
:103B900006F8012BE0E76220DCE76620DAE76E201A
:103BA000D8E77220D6E77420D4E72946304601F0E2
:103BB00003F9761DD0E7222030700020707038465F
:103BC000BDE8F087225C080C0A0D09007525303429
:103BD0007800000038466BE500694DE700E0401CC6
:103BE00020B101780A0001D02129F8DB70472DE9C6
:103BF000F04104460D461646FFF792FC8046DFF87A
:103C000080740020B8F1000F38601BD02046FFF709
:103C1000E5FF0146404600F022F8040003D140468B
:103C2000FFF78AFC09E056B1FFF7D8FF0446207879
:103C300028B14046FFF780FC3C60002002E005B15F
:103C40002C604046BDE8F08100220021CFE7002330
:103C5000002200217EE0DFF8281449687047F8B59B
:103C60000E00074671D004220FF6B001304601F075
:103C70000FF910B90220F86013E005220FF6A40135
:103C8000304601F005F910B9F860701DF2BD04224C
:103C90000FF69801304601F0FBF820B90120F860DA
:103CA0007861301DF2BD30780146222904D13146B9
:103CB0003846BDE8F44022E62D2902D030380A28E3
:103CC00004D231463846BDE8F44056E45B29DFF8BB
:103CD000B04332D138D10520F860701CFFF77EFF69
:103CE000064630785D2826D0FFF71AFC0500BD6037
:103CF0002BD03046FFF772FF01462846FFF7AFFF93
:103D0000FFF76CFF060020D030782C2811D1FFF788
:103D100007FCD0B1286045600546701CFFF75EFFC8
:103D200001462846FFF79BFFFFF758FF0600EBD13F
:103D30000BE05D2808D1701CF2BD7B2904D131460F
:103D40003846BDE8F44046E126600020F2BD0000A0
:103D500022220000F8B50024002850D0D0F80CE052
:103D60000FF2B8750FF2BC760FF2C077002B5FFA36
:103D70008EFE24D0BEF1060F40D8DFE80EF00B1304
:103D8000041C1E393C0000F03BF8040036D005222C
:103D900029460DE0062100F034F804002ED006225A
:103DA000314605E000F02CF8040027D00522394602
:103DB000FEF7F8FD22E0194613E0194615E0BEF1C2
:103DC000060F1BD8DFE80EF00608040C10141700CD
:103DD000284602E0304600E03846FFF78EFB0CE054
:103DE0000021FFF7A8FC08E00021FFF7F5FE04E042
:103DF00000F009F801E000F056F904462046F2BD53
:103E00000521184654E42DE9F24F044682B0A56816
:103E10004FF0000993461E464FF00508CA4600279A
:103E200002E02D6809F10109002DFAD1944841689A
:103E3000B9F1000F0DD11EB1032100F0C9F801E066
:103E400003208847040003D003228EA1FEF7AAFDB9
:103E5000B0E0002E41D0D6F808A0012100F0B8F85B
:103E600007003FD05B203870B068401CB060A56888
:103E700011E008F1010100F0ABF8070032D000F0CA
:103E80009CF81CBF202007F8010B00203870B06898
:103E90004044B0602D68ADB133460298411C5A468B
:103EA0002846FFF757FF3046FFF737FCB060286819
:103EB0000028EFD0BBF1000F14BF4FF002084FF005
:103EC0000108D6E7022100F083F807000AD000F0CD
:103ED0007AF8306800EB0A046CE04FEA8900884702
:103EE000060001D1002066E04FEA890100F02CFBBA
:103EF000A56801E001272D68C5B1BFB90298411C32
:103F000000235A462846FFF725FF46F82A000028D6
:103F10000AF1010AEED0FEF7EBFC5FEA0B0118BFD5
:103F200001214044081800F10208E4E72FB9FFF727
:103F300092FE4046884704000FD14FF0000A05E08A
:103F400056F82A0000B188470AF1010A4C488168F6
:103F5000CA45F5DB30468847C4E75B202070671C04
:103F60000020387082461CE056F82A000090FEF7C8
:103F7000BFFC054600992A463846FEF713FD7F1917
:103F8000A9F10100824507D000F017F81CBF2020DE
:103F900007F8010B0020387056F82A00C0470AF1D4
:103FA000010A3748D0F80880CA45DDDB3046C047F3
:103FB00000F009F82046BDE8FE8F2C2007F8010B21
:103FC000BBF1000F70475D2038700020787070479B
:103FD0003046FFF76DBB70B50D46064628787B2846
:103FE0004AD10620F06000F055F8054628787D2873
:103FF00040D0FFF795FA0400B46037D02846FFF7A9
:10400000EDFD01462046FFF77AFCFFF7E7FD0500CE
:104010002CD000F041F82FD100F03CF801462046AA
:10402000FFF71DFEFFF7DAFD05001FD028782C28CA
:104030001ED1FFF775FAC8B120604460044600F055
:1040400029F801462046FFF75AFCFFF7C7FD050097
:104050000CD000F021F80FD100F01CF801462046EA
:10406000FFF7FDFDFFF7BAFD0500DFD1002070BDB1
:104070007D2801D1681C70BD01480560F6E700008D
:10408000000000205B5D00000000F03F0000F0BF7A
:1040900000002440681CA1E5206920620020206106
:1040A00028783A2870472DE9F14F84B086684FF0A0
:1040B000000A0C4615469B464FF00709CDF808A0AC
:1040C000002703E00298401C02903668002EF9D1C8
:1040D000DFF8D8830298D8F8042010BB211DBBF16B
:1040E000000F04D005B9032100F088F903E005B9F9
:1040F0000321084690475FEA000930D04F467B20F5
:1041000007F8010B45B1641E0A20012C07F8010BCA
:1041100002DB00F076F93F197D20387087F801A0A6
:104120004FE1BBF1000F00F08580002DDBF808A007
:1041300014BF4FF002094FF0010900F05DF90700CC
:104140000DD07B2007F8010B00F060F9641C00F033
:104150004DF9049886680DE000F04EF907006FD025
:10416000306810B12C2007F8010B00F04FF900F077
:104170003DF93668002E41D07DB1214600F03EF970
:1041800000285DD0012C03DB0922214600F096FEB9
:10419000DBF808002018CBF808005946306AFFF712
:1041A0006BFC5846FFF7B9FACBF80800002D14BF96
:1041B0004FF002094FF00109494600F01FF90700CE
:1041C0003ED03A2038700DB1092078705B4600F07F
:1041D0000DF92A4621463046FFF7BCFD5846FFF749
:1041E0009CFACBF808005FEA0509306818BF4FF069
:1041F00001090028B0D009F10109ADE7002D14BF75
:10420000611C022100F0FAF8070019D055B1641EB4
:10421000012C4FF0000A05DB0922214600F04EFE7A
:104220003F19A2467D20FFF7CFFEDBF8000000EB30
:104230000A09C6E08600304690475FEA000B01D1CC
:104240000020BFE0D8F8041030468847009020B91D
:10425000D8F8081058468847F2E73146584600F02B
:1042600073F90098314600F06FF904988668641C71
:1042700025B104F1070901E00127366856B3306A19
:104280000021FFF7F9FB00232A460099039041F82B
:104290002A0021463046CDF804A0FFF75BFD0199C6
:1042A0004BF821000AF1010A0399002918BF0028E0
:1042B000E2D0FEF71DFB01900398FEF719FB019A6F
:1042C000002D14BFA11C00214A448018081800F1D9
:1042D0000209D2E77FB9D8F80410484688475FEA58
:1042E000000908D07B2089F8000009F1010700F0DF
:1042F0008DF8824650E04FF0000A0BE050F82A009B
:1043000000B188475BF82A0010B1D8F80810884738
:104310000AF1010A0298D8F8081082450098EDDBEE
:10432000884795E725B1012C02DB00F06AF83F19B8
:10433000009850F82A000190FEF7DAFA0646019933
:1043400032463846FEF72EFBBE193A2006F8010B1E
:1043500015B1092006F8010B30465BF82A1000F071
:1043600075FD5BF82A00FEF7C3FA37180298401E65
:1043700082451CBF2C2007F8010B00F047F800987D
:10438000D8F8081050F82A0088475BF82A00D8F8B7
:10439000081088470AF1010A02988245C2DB00989A
:1043A000D8F808108847D8F80810584688472DB123
:1043B000641E012C02DB00F024F83F197D20FFF77A
:1043C00003FE484605B0BDE8F08F00000100C0FFC5
:1043D000FFFFDF410000E0C144F3C2E4E4E9634CC5
:1043E0008DEDB5A0F7C6B03E65CDCD41DBF8080038
:1043F0004844CBF80800704709F101015846FFF71F
:1044000057B909222146384600F058BD15B10A2097
:1044100007F8010B00203870704738B585680C46E6
:1044200000E02D682DB1286A2146FFF745F80028E5
:10443000F7D1284632BD016048607047826841B1BB
:1044400012B981607047024610680028FBD11046FF
:10445000F1E7704770B5160004460D460AD0306A81
:1044600010B11249896888472846FFF746F830623C
:1044700031461DE070BD00000000B03C70B5150075
:1044800004460E460ED0E868800504D4286A10B1B0
:10449000064989688847E8682E6240F40070E86041
:1044A000294605E070BD000000FC0F000000002060
:1044B0002046BDE87040C1E710B50446FFF730F86C
:1044C00018B1210018BF0121C16010BD70B50446AC
:1044D0000D46FFF725F8060008D00320F060C6E976
:1044E000064520462946FEF7E9FB7061304670BD5F
:1044F00038B50446FFF714F8050005D00420E8603D
:104500002046FEF7FAFF2861284632BD80B5FFF746
:1045100007F808B10621C16002BD00006E756C6C21
:104520000000000066616C736500000074727565C0
:104530000000000010B504460120FEF7FFFE2046F3
:10454000BDE8104000F0EDBC002200F0BBBC000054
:104550002DE9FF4D86B0DDE90801CDE9040107989A
:10456000C0F30A5040F2FF71884208D10798002733
:10457000000305BF069800280224012412E0012848
:1045800007DA06A8FEF7C1FA012802DB002700249B
:1045900008E0079A40F2FE3161F31E520792471A73
:1045A0004FF0FF34002104A800F0C1FC054612982A
:1045B00010B112990020088035B9DDE908230020E8
:1045C000002100F0E9FB11D0002C11D53FB2012FE2
:1045D00013D1DDE906230020C84900F0DDFB05D03A
:1045E000012D0AD1C64900F0D7FB2ED1C549B6E14D
:1045F000022C04D1DDE90601B1E1012D59DB022DC8
:1046000008BFDDE9080100F0AA81012C1BD1079841
:104610000028099802D4002848D532E0002809D49F
:10462000002D43D14FF0FF3104A800F080FC00289A
:104630003CD538E02DBB4FF0FF3104A800F077FCEB
:1046400000281ED519E0012D09D1099800283FB294
:1046500002D4012F2ADA14E0012F12DA26E0099899
:10466000002811D46DB94FF0FF3104A800F05FFCB1
:10467000002844BF0798002803D500204FF00041D0
:104680006DE1002000216AE100F090FC2221016030
:1046900065B94FF0FF3104A800F049FC002844BF81
:1046A0000798002802D50020974958E10020974933
:1046B00055E10798002848BF002D08D500F076FC8A
:1046C000212101604FF0FF306FF0004147E1DDE94B
:1046D000060100220023FEF753FA38BF019209D3E6
:1046E00081F00041CDE906014FF0FF3104A800F050
:1046F0001EFC0190012F13D1DDE90601844A854B90
:10470000FEF726FA0CD2DDE9062300204FF08041A7
:10471000FEF7D8FBCDE9060100260024794D1CE008
:10472000DDE9062300207C49744DFEF7CBFB002217
:104730002B46FEF747FEFEF7C1FAA0F120063046F1
:10474000FEF7E8FA0022754BFEF7BCFB00222B4671
:10475000FEF738FE04460D4676010FF21C20304469
:1047600000902246DDE906012B46FEF7EBFA824671
:104770008B46DDE9060122462B46FEF723FE024664
:104780000B4650465946FEF76FFCCDE90201DDE9C4
:104790000223FEF797FBCDE906AB0646884600F0FC
:1047A0000BFC32464346FEF78DFBDDE90623FEF7A0
:1047B000C9FA064688460020524922462B46FEF793
:1047C000C1FA00224FF08043FEF77CFB324643469D
:1047D000FEF7F8FDDDE90223FEF774FB02460B4607
:1047E000DDE90601FEF7EEFD82468B464C4A4D4B55
:1047F000FEF73AFCCDE904013846FEF78BFA009A41
:1048000006468846D2E9000132464346FEF7DAFD05
:10481000DDE90423FEF7D6FDCDE90401DDE9082337
:10482000FEF750FB0022404BCDE90201FEF790F964
:10483000C0F07E8001223D4BFEF7A2F97CD9002218
:104840000023FEF785F9DDE9022339BF00202C495A
:1048500000202A49FEF7B6FDFEF730FA074630463B
:10486000009E2F4C2F4DD6E900234146FEF7AAFDAE
:10487000DDE90823FEF726FB064688463846FEF7A4
:1048800049FA02460B4630464146FEF75BFA22469D
:104890002B46FEF717FB064600988446D0E9022314
:1048A0008846DCE90401FEF78DFDDDE90823FEF70B
:1048B00009FB22462B46FEF705FB04460D46DDE9C3
:1048C000080152465B46FEF7FDFA22462B46FEF7EC
:1048D00079FD32464346FEF775FDCDE90201129897
:1048E00008B10780002700970022064B02A800F0BD
:1048F000B9FBE8B101281FD02AE000BF0000E03F6B
:104900000000E0BF0000F03F0000F0FF0000F07F7B
:10491000CD3B7F669EA0E63F000050400000903FE8
:10492000EF39FAFE422EE63F0000E0C00000E04012
:104930000020CDE9020007E00020014902E000BFAD
:104940000000F07FCDE9020100F030FB2221016080
:1049500001980028DDE9020118BF81F000410AB08A
:10496000BDE8F08D10B582B000240094FFF7F0FD93
:104970001CBD000000000000000000000000F0BFAF
:104980000000000000000080000000000000008027
:104990000000000000000000000000C05294EEBFC4
:1049A00000000048204E51BE000000F86467BCBC07
:1049B0000000000000000000000000208133EDBF77
:1049C00000000080B3DB14BE000000506706A3BCEB
:1049D0000000000000000000000000D0E9DCEBBF98
:1049E00000000008C39259BE00000080B0D3B8BCDC
:1049F000000000000000000000000070F98FEABF16
:104A0000000000C0A51028BE000000E8BFC0B0BC78
:104A1000000000000000000000000070284CE9BF0A
:104A200000000060134B42BE000000C03D20B8BC37
:104A3000000000000000000000000050FA10E8BF75
:104A4000000000C05FF62BBE000000905C71A7BCA8
:104A5000000000000000000000000020FCDDE6BFB8
:104A6000000000C0F8F154BE00000018E9F6B9BC1F
:104A70000000000000000000000000D0C3B2E5BF4D
:104A800000000070E43254BE00000050DB06B4BCED
:104A9000000000000000000000000010EF8EE4BFE6
:104AA00000000020F36252BE000000C02A879ABCBA
:104AB0000000000000000000000000B02272E3BF10
:104AC000000000F0E8E056BE00000028352DBDBC17
:104AD0000000000000000000000000000A5CE2BFCF
:104AE000000000B0FA8E41BE00000040AE6FBDBCB9
:104AF000000000000000000000000000564CE1BF74
:104B0000000000F015CD5FBE00000000141C90BC3A
:104B1000000000000000000000000040BD42E0BFB7
:104B200000000030F93457BE000000E06C1E93BC5A
:104B30000000000000000000000000E0F57DDEBF86
:104B4000000000B08A535EBE00000080DA77AABC85
:104B50000000000000000000000000C09D81DCBFDC
:104B600000000000FFA226BE0000006057E2B0BCBB
:104B7000000000000000000000000060F98FDABFB4
:104B8000000000580A8151BE000000F05F60B8BC10
:104B900000000000000000000000000098A8D8BF3E
:104BA000000000607A7F45BE000000D05433A3BCF3
:104BB0000000000000000000000000600FCBD6BF26
:104BC000000000D091CB40BE000000406D1BA0BC97
:104BD0000000000000000000000000A0FBF6D4BFB1
:104BE00000000098C5CE52BE000000003A397EBCDD
:104BF0000000000000000000000000E0FE2BD3BF1A
:104C00000000004073872BBE00000000926879BC52
:104C1000000000000000000000000040C069D1BF9B
:104C200000000058F16353BE00000080438D7CBC3F
:104C3000000000000000000000000080D85FCFBF2F
:104C4000000000181F8354BE000000B03F42A2BC09
:104C500000000000000000000000008067FCCBBFE7
:104C600000000060FAFF53BE00000050E00DB8BC29
:104C700000000000000000000000000098A8C8BF6D
:104C8000000000607A7F35BE000000C0543393BC42
:104C9000000000000000000000000000DC63C5BF51
:104CA00000000058D6FF54BE00000000396490BCDC
:104CB0000000000000000000000000C0AD2DC2BFD9
:104CC00000000080A45915BE000000E0484BABBCBA
:104CD0000000000000000000000000801A0BBEBFB2
:104CE00000000050BF3C5ABE000000A0B364B6BC38
:104CF00000000000000000000000008004D6B7BFE4
:104D000000000040BBCF36BE0000008076CEA8BCBD
:104D100000000000000000000000008032BBB1BFB6
:104D2000000000402A0043BE00000028C60CBDBCA5
:104D30000000000000000000000000009473A7BF06
:104D4000000000182B3B59BE000000C0E55DA5BC6B
:104D5000000000000000000000000000EE4397BFCC
:104D6000000000A0E6C340BE00000020958DB5BC49
:104D700000000000000000000000000000000080B3
:104D80000000000000000080000000000000008023
:104D9000000000000000000090420CD141EA030C2A
:104DA00050EA4C0C07D0994205D14FF4001C1CEB83
:104DB000410F38BF894270470CB41CB5044604A8A3
:104DC00001900A46009401AB6946074878441830C0
:104DD000FCF794FC009A0021117000285CBF009839
:104DE000001B16BC5DF80CFBFFDAFFFF40F2FF7CF6
:104DF0001CEA115240F2FE33D21ACCBFD2F1350375
:104E000016E0B2F1150309DA6FEA4C53D3400942B8
:104E100001D5401E59410020994370476FF00002B0
:104E2000DA40094202D5801851F1000190437047E1
:104E3000352A09DA50EA41031CBF4FEA0C5101F14F
:104E4000804138BF00210020704700005FEA000C5D
:104E5000830706D011F8013B00F8013BB3B183078B
:104E6000F8D10A68B2F1013323EA020313F0803F5C
:104E700002BF40F8042B51F8042FF3E711F8013B6F
:104E800000F8013B13B111F8013BF9E760467047A8
:104E900010B401E0491C521E6AB10B7804789C42A0
:104EA00005D010BC2CBF01204FF0FF30704710F828
:104EB000013B002BEED110BC0020704762F30F22A3
:104EC00062F31F42401810F0030308D0C91A1FD321
:104ED000DB0748BF00F8012D28BF20F8022D130082
:104EE00030B414461546103928BF20E93C00FAD8E2
:104EF000490728BF20E90C0048BF40F8042D89006D
:104F000028BF20F8022D48BF00F8012D30BC7047A3
:104F1000C91818BF00F8012DCB0728BF00F8012DD4
:104F20007047A0F141011A2938BF2030704742680C
:104F3000C2F30A5240F2FF739A4209D14168090351
:104F400004BF0068002801D101207047022070478B
:104F500043685B0004BF0368002B25D040F2334355
:104F60009A1A521A012A1FDB352A06DB416801F022
:104F7000004141600021016013E0012102F01F03A4
:104F80009940491E920607D5426811404A40426046
:104F900002681143002202E0026811404A400260A8
:104FA00011B14FF0FF307047002070470148FEF705
:104FB0007DBA0000880B002038B504460D461B481A
:104FC0001B4922462B46FDF77DFF1A4A1A4BFEF776
:104FD000F9F922462B46FDF775FF184A184BFEF7E4
:104FE000F1F922462B46FDF76DFF164A164BFEF7E8
:104FF000E9F922462B46FDF765FF144A144BFEF7EC
:10500000E1F922462B46FDF75DFF124A124BFEF7EF
:10501000D9F922462B46FDF755FF01B0BDE83040D7
:105020000E4A0F4BFEF7CEB900000000F7DE29BF95
:10503000D8F8C23FF4B3FECC1A99C33F62CB68D90B
:105040006F46C73FC6C912DAC471CC3F4AE98A9499
:105050002449D23FF75F97999999D93FBC55555547
:105060005555E53F2DE9F04D804686B0D8E90067FB
:1050700014461D463046394600F052F98246204615
:10508000294600F04DF9BAF1000F06D500284DD49D
:10509000022806D1C8E900453FE1BAF1020FF7D175
:1050A00021E050B90022524B30463946FFF774FEDA
:1050B0000FD0C8E9004500202FE1012815D10022BA
:1050C0004C4B30463946FFF767FE18BFC8E900452C
:1050D0004FD1FFF76BFF212101604FF0FF306FF0E0
:1050E0000041C8E90001022017E1BAF1000F0FD119
:1050F000C8E900450E994046FDF75AFD040018BF67
:10510000012C40F00981FFF751FF2221016003E1EA
:105110000022374B30463946FFF73EFE0DD1204680
:105120002946FDF7CFFEC8E9000122E030463946A6
:105130000022314BFDF70CFD0AD200232046294600
:10514000FDF7C0FEC8E9000106B00020BDE8F08D03
:1051500001222A4BFDF714FD0DD80022244B2046D6
:105160002946FDF7AFFEC8E90001FFF71FFF222126
:1051700001600120D1E0224A224BFDF7A3FE00226C
:105180000023FDF7E5FC34BF1F4B414BFEF71AF936
:10519000FDF794FD0290FDF7BDFD82468B464FF072
:1051A00078421A4BFDF78EFE02460B4630463946D2
:1051B000FDF7C8FD06460F46154A164B50465946A0
:1051C000FDF780FE02460B4630463946FDF7BAFD34
:1051D0004FF0FF32104BFDF7D3FC06460F461FD8A9
:1051E00000220E4BFDF7B4FC1AD22046294683E07C
:1051F0000000F07F0000F0FF00C89CC000C89C4089
:10520000FE822B654715F73F0000E0BF422EE63FC8
:10521000F2E4D5BCE7E84B3EFFFF8FBC0000903CBA
:1052200032463B46FDF74EFE82468B46194A1A4BE4
:10523000FDF748FE194A1A4BFEF7C4F802460B4622
:1052400050465946FDF73EFECDE90401154A164B7E
:1052500050465946FDF736FE144A154BFEF7B2F894
:1052600002460B4650465946FDF72CFE0022084BDD
:10527000FEF7A8F802460B4630463946FDF722FEF7
:10528000DDE9042306468B46FEF79CF8094F13E040
:105290000000E03F112E5781A03F503F5843128C31
:1052A0008F71BC3F4BE8A541B752013F0BBDF3DA0C
:1052B000E8708C3F0000F03F02460B460020394664
:1052C000FEF780F8CDE900013246DDE904015B46D6
:1052D000FDF738FD02460B4600203946FEF772F80E
:1052E00002460B46DDE90001FDF7BEFE02460B4615
:1052F00020462946FDF7E6FDC8E9000102980E990F
:1053000009184046FDF754FC040018BF012C03D1D6
:10531000FFF74CFE22210160204606B0BDE8F08D6B
:10532000C1F30A5240F2FF739A420AD012B14FF011
:10533000FF307047C1F31301084309D06FF001003B
:105340007047C1F31301084301D0022070470120C8
:105350007047000080B5DFF8000B01F0A0F8BDE851
:1053600004400FF65831032001F09BBB4FF0804002
:105370002DE9F84FDFF8E46ADFF8E47AB060002541
:105380004FF40060B0604FF4FA740220B860A94690
:105390004FF48050B060AA4601F0E6FDAB46A84647
:1053A000009017E04FF48050B06003200FF64031BA
:1053B00001F077FB4FF0010BBAF1C90F0AD30A20B5
:1053C000BAFBF0F00A2101FB10A018B9A4B2312CED
:1053D000A8BF641E01F0C8FD0099401A48F6B80144
:1053E00088423AD218EA0B0F37D1012000F0B3FB04
:1053F000DFF8700A01F0E0FD2846451C80B2B0F5E8
:10540000FA6F14DBB8F1000F11D13868002540069F
:1054100004D5786880F00200786008E00220B86067
:1054200003200FF6B82101F03CFB4FF0010848467D
:1054300000F1010980B2A1B28842BDD3BBF1000FD7
:10544000BAD13068C0064FF000090AF1010AA9D5A7
:10545000706880F480507060AEE70220B860002170
:105460004FF48050B060DFF8000A01604160BDE891
:10547000F18F2DE9F041DFF8F069DFF8F0293368AA
:1054800001248342A0464FF0FF3C03D2C71A4FF4D9
:10549000804003E01F1A64464FF08040106070683F
:1054A000884203D20D1A4FF0006003E0451AE0462F
:1054B0004FF4006010602946384600F00FF830685D
:1054C000012C0CBF3818C01B3060B8F1010F706898
:1054D0000CBF2818401B7060BDE8F0812DE9F24F29
:1054E00086B00021059001910091400003900027B3
:1054F00006990698049140000026029040F6B931C2
:10550000884224BFA0F6B83004900398DFF86019F1
:10551000B0F5FA7F84BFA0F5FA70059000F0C6F8E8
:1055200001F022FD804601F01FFD4FF0000B4FF40B
:10553000FA644FF4FA75DA46814644E001F014FD4E
:10554000A0EB080050284FF4FA6403D301F00CFDDF
:105550008046012605980199884202D2032EB8BFE1
:105560000326504600F1010A80B2A8422BD30098CE
:105570000299884227D2401C00904FF0000ADFF8C1
:10558000F408DFF8F018006880F480500860009894
:10559000C00718D427B1012F5CD0032F6AD00BE0CD
:1055A00001F0E2FCA0EB090064284FF4FA7503D384
:1055B00001F0DAFC0127814604980099884202D262
:1055C000032FB8BF032701980399884222BF009890
:1055D0000299884260D2012000F0BDFADFF8840809
:1055E00001F0EAFC584600F1010B80B2A042B8D3AA
:1055F000019803998842B4D2401C01904FF0000BEF
:10560000DFF86C08DFF86818006880F002000860B6
:105610000198C007A5D4300090D0012E02D0032EEF
:105620000CD097E7641F01F09FFCA4B2B4F5967FFD
:1056300080468FDC4FF4967402268BE7641D01F0E0
:1056400093FCA4B2B4F5FA6F80468ADB4FF4FA6497
:10565000042686E701F088FCA0EB09000428ABD300
:105660006D1E01F081FCADB2112D8146A4DA10252A
:105670000227A1E701F078FCA0EB09000428A2D3DF
:105680006D1C01F071FCADB2B5F5FA7F81469ADB75
:105690004FF4FA75042796E7DFF8D41700F006F800
:1056A00007B0BDE8F04F022001F0B4BC0220486012
:1056B0004FF48050DFF8BC17486070472DE9F84F71
:1056C00004460020009001F04FFC804622460FF671
:1056D0003401DFF8A467DFF8A477DFF8A45700F0FF
:1056E000B8F8DFF8A00700EBC4000838416800688C
:1056F000FFF7BFFE01F038FCA0EB08020FF62C010B
:1057000000F0A7F801F030FC611E0F294FF4806013
:105710002DD8DFE801F0080A0D10131517191B1E0C
:1057200020222426282A306021E04FF4007103E073
:105730004FF4807100E08021316018E0202106E004
:10574000102104E0082102E0042100E00221396078
:105750000DE040210AE0202108E0102106E00821A8
:1057600004E0042102E0022100E001212960386008
:105770004FF00069C7F8009001F0F6FB824601F097
:10578000F3FBA0EB0A0043F69821884208D2DFF829
:10579000CC06D0F800B000F0F5F85FEA0B70EED45C
:1057A000641E0F2C4FF0806A00F0CCF94FF4003EDD
:1057B00030D8DFE804F0080B0E111517191B1D2057
:1057C0002E232527292CC6F800A023E04FF00070D7
:1057D00004E04FF0807001E04FF40000306019E009
:1057E000386017E0396015E03A6013E03B6011E083
:1057F000C7F800E00EE04FF480000AE0296009E0FD
:105800002A6007E02B6005E0C5F800E002E04FF4F5
:105810008030286001F0A8FB044601F0A5FB001BC6
:1058200041F28831884206D200F0ACF8684601F0B7
:1058300035FD0028F1D0C7F80090C7F800A001F0AE
:1058400093FBA0EB08020FF2107100F002F8BDE824
:10585000F18F032001F025B92DE9F04701F084FB19
:1058600004460FF21871DFF8F465DFF8F49500F0E4
:105870001EFB44F6206140F21240FFF7FAFD01F0F2
:1058800073FB021B0FF21071FFF7E3FF01F06CFBDB
:1058900005460120B0604FF40037B76041F2883808
:1058A00001F062FB401B404505D200F06BF8D9F8CF
:1058B00000008006F4D4B7604FF48035B56040F640
:1058C000B83001F0A7FB01F04FFB82460220B06028
:1058D000B56001F049FBA0EB0A00404504D200F09E
:1058E00051F830680006F4D4B760B56001F03CFBB5
:1058F000021B0FF2D061DFF88465FFF7AAFF0021D9
:105900000520FFF7B6FD01F02FFB021B0FF2E0614F
:10591000FFF79FFF4FF40060C9F8080030604FF0B8
:105920008067376001F020FB4FF00008054601F06A
:105930001BFB401B42F21071884208D200F022F893
:10594000D9F8000000F0010090F00108EFD04FF00E
:10595000006535603760B8F1000F1CBF4FF4FA6086
:1059600001F058FBC9F80850FFF700FD01F039FEBF
:1059700001F0FAFA021BBDE8F0470FF2A061032024
:1059800001F08FB8022001F045BB00002DE9F84F6F
:10599000834601F0E9FA82465A460FF2A461DFF825
:1059A000C064DFF8E474DFF8E444FFF752FF01F06D
:1059B000DBFAABF101000F284FF000082ED8DFE82A
:1059C00000F0080B0E111416181A1C1F212325278E
:1059D000292B4FF4806006E04FF4007003E04FF491
:1059E000807000E08020B06018E0202006E01020E9
:1059F00004E0082002E0042000E00220B8600DE08E
:105A000040200AE0202008E0102006E0082004E002
:105A1000042002E0022000E00120A06001F0A4FACE
:105A20008146DFF86C5401F09FFAA0EB090042F2C6
:105A3000107188423FD2FFF7A5FFABF101000F289C
:105A400036D8DFE800F0080A0D10121416181A1DD7
:105A5000202326292C2F306813E03068800B23E0A8
:105A60003068400B20E030680EE038681CE02868A1
:105A700013E0286814E0286815E02868800913E01E
:105A80002068C00B10E02068000B0DE02068C00A01
:105A90000AE02068800A07E02068400A04E02068E5
:105AA000000A01E02068C00900F0010080F0010850
:105AB000B8F1000FB7D001F057FAABF1010BBBF111
:105AC0000F0F00F03FF84FF400352ED8DFE80BF051
:105AD000080B0E111517191B1D1F2C222426282A0E
